S02200006275696C642F64656275672F7263702D756172742D3830323135342E733337CE
S214004000C00A002069460000698600006D86000030
S214004010D568010071860000798600005B5A0100B1
S2140040205B5A01005B5A01005B5A01005B5A0100B3
S2140040307D86000060D001005B5A01005B5A0100DB
S2140040405B5A010077CC01005B5A01000131010088
S21400405087CC010083CC0100B93701007BCC01007E
S2140040605D490000354A00001D4B00005B5A010008
S2140040704D7A00005B5A01005B5A01005B5A010052
S2140040805B5A0100514A00005B5A01005B5A01006E
S2140040905B5A01005B5A01005B5A01005B5A010043
S2140040A05B5A01005B5A01005B5A0100ED370100C4
S2140040B07FCC0100658F0000293801005B5A0100A3
S2140040C0151D01005B5A0100000000000000000002
S2140040D0013800D0FCE77047000000000000000038
S2140040E001F0FF01102A2BDB10F0070F08D010F8A4
S2140040F0013B013A8B422DD010F0070F42B3F6D1A8
S214004100F0B441EA012141EA014122F007047FF0C0
S21400411000070023F0E80256083C85EA010586EA17
S214004120010685FA47F5A3FA87F586FA47F6A5FA53
S21400413087F68EB9EED1F0BC01F0FF0102F007025F
S21400414032B110F8013B013A83EA010313B1F8D10A
S2140041500020704701387047002D06BF35460338EB
S214004160073815F0010F07D1013015F4807F02BF24
S214004170013015F4C03F0130F0BC0138704700BF75
S2140041802DE9F84F4022002129482A4EDFF8A0B03A
S214004190DFF8C4A0DFF8C490DFF8C480264F17F01D
S2140041A002FB30222448002117F0FDFA234B244A54
S2140041B0DFF8B0E09FED1C7B0020A3F1180C24254F
S2140041C00BEB4014454343E9054A0CEB050400217C
S2140041D043E9039843F8181C43F804EC217721625E
S2140041E0182404FB007442F8144C164C42F8104C89
S2140041F0154C42F80C4C154C42F8084C144C42F83E
S214004200044C144C42F8181C2C44A6EC027B217774
S21400421043F8241B216242F8241B08B1BDE8F88F3E
S2140042200120CCE7AFF30080000000000000000093
S214004230204D0020800E0020F04C0020C04C0020B6
S214004240784C0020E18F0000AB690100C9690100CD
S2140042501D6A0100604C002009900000E56901001D
S214004260CD6901006F6A0100F7B5012005F0DAFAA2
S2140042700446002840F0E880774F784B784DB860C9
S214004280C7E90030286041F60B2330227F217548AD
S214004290AB8017F088FA744B744A1A802146384669
S2140042A09A700AF0E1FD044600B9FEE770490BF08B
S2140042B0C9F800B1FEE70221204618F06BF800B1FD
S2140042C0FEE76C4920460BF0D5FA00B1FEE74FF446
S2140042D0807301A92046019318F08BF8012120462F
S2140042E018F010FB00B1FEE70121204618F018FB7D
S2140042F0064600B1FEE70146B4225F4817F053FABF
S2140043008023324607F11001204618F004FA802870
S21400431000D0FEE7594F01200AF0F2FD4CA3D3E986
S21400432000234FF0FF304FF0FF313C6005F0D2FA2B
S2140043303146284605F0F2FA0121084605F0B6FA9D
S2140043403868012117F0BAFF044600B1FEE70146BF
S2140043508C224B4817F027FA4A4B4B4A9C801C602D
S2140043604A4B4B481A6002219C8012F0DDFB4948FC
S2140043704949037990F80CC0484A4FF0020E6EF394
S21400438001030371464B6EF3010C1960DA60FF26D9
S21400439080F80CC07F3110326FF0630083F828601D
S2140043A09C8083F858609C861963DA6307F0C0FD2A
S2140043B02B790B2B00D9FEE76B790A2BFBD9394BEF
S2140043C01D6001F0FBFE002005F0F2FA08223868B6
S2140043D0114618F08CF800B1FEE711F009FD04460E
S2140043E011F021FD08B144F40034204611F002FD1E
S2140043F005F0ECFA11F00FFD80F00102D2B2386839
S214004400D200082118F073F800B1FEE7264B1B789F
S21400441093B90022002341F20D01244805F05AFA10
S214004420002006F0A9FD224B224800221A7003B095
S214004430BDE8F04013F03FB911F0EDFC0028E8D0DD
S2140044401A4A41F20D03E6E703B0F0BDAFF3008071
S2140044500BE020FF220200005C4E0020159F0000AB
S214004460544E002069560020665600207F7F7F004D
S214004470070011007CD401006C4D00203C4E00204B
S214004480F04E0020480F0020AA570020180F0020EA
S21400449061560020404E0020AB560020980E0020AB
S2140044A0B80E0020504E0020CA0C0020C00D03009D
S2140044B02C5800206ED401000348044B834202D0DF
S2140044C0034B03B118477047DC0C0020DC0C0020BF
S2140044D0000000000548064B1B1AD90F01EBA3018C
S2140044E0491002D0034B03B118477047DC0C00207C
S2140044F0DC0C00200000000010B5064C237843B901
S214004500FFF7DAFF044B13B10448AFF30080012332
S214004510237010BD2856002000000000C8030200CB
S21400452008B5054B1BB105490548AFF30080BDE84B
S2140045300840FFF7CFBF00BF000000009024002017
S214004540C8030200A3F5803A704700BF174B002B44
S21400455008BF134B9D46FFF7F5FF00218B460F461D
S2140045601348144A121A17F01EF90E4B002B00D0EF
S21400457098470D4B002B00D09847002000210400E0
S2140045800D000D48002802D00C48AFF3008009F05B
S214004590B5F82000290008F017FF09F09DF800BFC5
S2140045A0000008000000000000000000C00A002014
S2140045B0DC0C002054580020000000000000000022
S2140045C000239A6AB2F5006F0AD2D3F82838A3F50A
S2140045D00061B1F5605F03D21168084A914203D0CA
S2140045E000230370836070471968054A9142F7D12B
S2140045F0012202709A6842609B69F3E7AD1007B02B
S21400460007B0CD5E002310B5D3F82838A3F50062B6
S214004610B2F5605F11D21968094A91420DD1094C72
S214004620227812F0FD0F01D0002010BDDB699847FC
S2140046300028FAD101232370F6E74FF48170F4E7DF
S21400464007B0CD5E29560020054A06490346106885
S21400465003448B4294BF13604FF0FF30704700BF97
S214004660580B0020007C002008B500F07DF8124BA7
S21400467012498B4212D3124B124900208B4218D398
S214004680FFF764FF186850F82240586840F8224048
S214004690013298688242F5D30C33EAE70022F8E745
S2140046A01C6844F8220001325C68A242F8D3083342
S2140046B0E4E70022F8E700BFD0030200DC030200B4
S2140046C0DC030200DC0302000048704700F04902E9
S2140046D00D4AD2F8943003F00703032B11D0042BB5
S2140046E003D0022B0BD1094B00E0094B1868D2F817
S2140046F00031C3F304230133B0FBF3F07047054BDE
S214004700F4E74FF40040F2E700400E40680B00204C
S214004710640B00205C0B002008B5FFF7D9FF054BA3
S214004720D3F80831C3F308230133B0FBF3F0024B90
S214004730186008BD00400E40600B0020014B186852
S214004740704700BF680B0020054B1860054BD3F878
S214004750943003F00703022B01D1FFF7DDBF70474B
S214004760680B002000400E400D4B0E4A9A60D3F8AE
S214004770882042F47002C3F888200B4B5A6D42F42E
S21400478000525A651A6C22F003021A645A6F22F01D
S21400479001025A671A6E22F080521A66704700BFEE
S2140047A000ED00E00040000000300E40014B1868AD
S2140047B0704700BF640B002038B5124B1B780546C7
S2140047C0DBB1E0B111F0F5F90F4A00231146147B76
S2140047D054B92B601A0101EB031301258C501D738D
S2140047E011F0EDF9204638BD0133082B02F1100216
S2140047F0EDD111F0E4F90548F5E70548F3E705487B
S214004800F1E700BF2A560020A8250020048000F00B
S214004810028000F0018000F00D4B1B7810B50446B6
S21400482093B1072812D811F0C4F90A4B03EB04130E
S2140048301A7B2AB100241C7311F0C1F9204610BD62
S21400484011F0BDF90448FAE70448F8E70448F6E72B
S2140048502A560020A8250020068000F0028000F0DE
S214004860018000F013B5164B1868019000238DF8F0
S214004870043011F09EF9134B1C7824B111F09FF907
S214004880114802B010BD01221A7011F098F90F4BB2
S2140048901C731C7783F82C4083F83C4083F84C400C
S2140048A083F85C4083F86C4083F87C4004230DEB6F
S2140048B003008DF8073001F0C5F82046E1E700BF99
S2140048C0B0D001002A560020038000F0A825002062
S2140048D0F8B50D4D2D7885B1072810DC0B4D05EB8E
S2140048E000140601277B67B1AB51069B6360002569
S2140048F0A56001F0D1F82846F8BD0548FCE7054854
S214004900FAE70548F8E700BF2A560020A825002049
S214004910028000F0018000F0078000F00A4A12785A
S21400492008B552B107280AD8084A02EB00131B7BC9
S2140049303BB101F001F9002008BD0548FCE7054839
S214004940FAE70548F8E700BF2A560020A825002009
S214004950028000F0018000F0078000F02DE9F041B1
S214004960DFF86480D8F86070D8F86C301F4000D547
S214004970FEE7134C01260025374218D02368C8F8F6
S2140049806860A3B1A16862680131A16028469847B3
S214004990637B012B0BD150B90A4B03EB45131A7BF3
S2140049A060F341021A731A7F60F341021A770135E9
S2140049B0082D4FEA460604F11004DDD1BDE8F0816B
S2140049C0A8250020A824002000200E4070B50C4E1C
S2140049D00446012504B970BD94FAA4F0B0FA80F03C
S2140049E006EB001205FA00F324EA03045368002BD2
S2140049F0F0D0117B11B191689847EBE79847E9E74B
S214004A002826002008B5112000F07CFD28B1084BB0
S214004A104FF40032C3F880211A60092000F072FDBE
S214004A2028B1034B4FF40072C3F880211A6008BD0A
S214004A3000E100E0054BD3F82804D3F81C2410400E
S214004A4000F05530C3F82404FFF7C0BF00A00040B4
S214004A50054BD3F82804D3F81C24104000F0AA30E5
S214004A60C3F82404FFF7B2BF00A00040024B196849
S214004A70024B186809F0DCBF6C0B00208C0B002082
S214004A8070B59400224605460E4611F064F9431CA4
S214004A900AD058B922463146284616F05AFE002853
S214004AA0034808BF002070BD0248FCE70248FAE74A
S214004AB010E000F021E000F024E000F010B504461D
S214004AC001F004F9431C10D088B901F015FA20F063
S214004AD0030023462044984201D1002010BD53F81D
S214004AE0042B0132F7D00348F8E70348F6E70348FB
S214004AF0F4E700BF0EE000F021E000F024E000F054
S214004B0008B511F04BF8014B186008BDEC2E0020DC
S214004B10014B186811F046B8EC2E0020044BDA68FA
S214004B20D20604D510225A61024B01221A70704731
S214004B30008001402B5600202F4B002A30B52F4C0A
S214004B40426B18BF1C462E4B0CBF00251025984202
S214004B5032D1062907D8062907D8DFE801F008175A
S214004B60402E06063600812939D000231FE0254B4B
S214004B70D3F81012D3F81002D3F8103201F4FE4125
S214004B8000F00F00014303F0F0030FE01D49D1F8D9
S214004B901032D1F81002D1F810121B0C090C01F0DB
S214004BA0F00103F4FE430B43C0F303410B432240E2
S214004BB0AB401343124A536330BD1249D1F8143246
S214004BC0D1F81402D1F81412E7E70E49D1F81832DA
S214004BD0D1F8181203F00F0301F0F001E6E7094BD5
S214004BE0D3F81412D3F81402D3F8143201F4FE41A9
S214004BF000F00F000143C6E7FFFF00800080FFFFC4
S214004C00002000400080E00F0E4BB0F5FA4F38BF92
S214004C104FF4FA40984210B5044628BF1C4619B90E
S214004C20094800F04FFA0146631E0B44A342B3FB4B
S214004C30F4F028BF00F1FF307F2828BF7F20C0B2E5
S214004C4010BD00BF0024F4004041050070B5CD78CB
S214004C5004460E46002D38D129461F48FFF7D4FFDC
S214004C6005460A23A3603278737843EA0263B27873
S214004C70120402F4FE022D02134305F4FE451D4302
S214004C8033790BB145F0100523685A0748BF45F045
S214004C9004052560757910F081FF23685D4005F0F6
S214004CA0C0055D40256010F07DFF23681B0608D513
S214004CB00A4800F007FA0A4B9C4202D1094800F065
S214004CC001FA4FF40063236470BD03681906C8D464
S214004CD0054800F0F7F9C4E70024F400B8003200F5
S214004CE000200040008204004041050038B50A2339
S214004CF08360154B036100254FF4F8134561856109
S214004D00C5610360114B4564036443F6E413056311
S214004D10056245628362D0F88C3043F00103C0F828
S214004D208C30D0F8903043F001030446C0F8903041
S214004D302A462946FFF700FF294620460122BDE8FD
S214004D403840FFF7F9BE00BF00FFFF00000F030367
S214004D5008B528B9074800F0B5F9012838BF012082
S214004D6000F57420044B00F23F20B0FBF3F001384E
S214004D70C0B208BD4041050040420F000C4B9842AF
S214004D8005D90C4B984210D80122012301E00022DD
S214004D90134609490B640949D1F8003123F08073A2
S214004DA043EA0263C1F8003170470222EDE700BF14
S214004DB00048E8010090D0030000C84300400E40C1
S214004DC0044BD3F84421D20703D4D3F84021104231
S214004DD0FBD1704700400E400A4B0B4998424A6888
S214004DE00BD90A4B98420AD902F040724B6823F05E
S214004DF0407343EA02634B6070470022F6E70122E5
S214004E00F4E700BF40787D0100000E40005A6202C1
S214004E1038B5074C41F67133256C2364FFF754FC14
S214004E20ADB2FFF7D9FF0DB10023236438BD00BF34
S214004E3000000E4038B5064C256C41F671332364ED
S214004E40ADB2FFF7C9FF0DB10023236438BD00BF24
S214004E5000000E4038B5C0F30323013B092B11D8E0
S214004E60DFE803F0052710102B221D101511154D35
S214004E70C0F3043405F1424505F5801504EBC50082
S214004E808000016038BD104DC0F30434F2E70F4DCA
S214004E90C0F304344FF48030FFF792FFEAE7C0F324
S214004EA004340B4D1020F7E7C0F30434094D0120FD
S214004EB0F2E7094DC0F30434DCE7084DC0F30434D0
S214004EC0D8E700BF00400E4050410E40F0400E4074
S214004ED0E8400E40E0400E40C0400E40B0400E405D
S214004EE0C0F30313013B092B3FD8DFE803F0050BA3
S214004EF00F193E3E1F232C351D4BD3F80001C0F37F
S214004F00042070471A4BD3F81401F8E7184BD3F86F
S214004F100031C3F300630133012098400138704725
S214004F20134BD3F80C01C0F308207047104BD3F88E
S214004F300801F8E70F4B984217D10D4BD3F82031F4
S214004F4003F00F03E8E70C4B98420ED1084BD3F85A
S214004F50283103F00303DFE7084B984205D1044BE2
S214004F60D3F8300100F00F0070470020704700BFF4
S214004F7000400E408006160090071A00A009140094
S214004F8000F00F00013807284BD8DFE800F00412C5
S214004F90214A31354A3D294BD3F8940000F00700EA
S214004FA0032849D004283ED002280CBF0420052040
S214004FB07047224BD3F8800000F0070002283BD051
S214004FC0042834D0012808BF032018BF01207047EA
S214004FD01A4BD3F8843003F00703013B032B03D8A6
S214004FE0DFE803F0042123250120704703207047E3
S214004FF0124BD3F88800DFE7104B1B6F13F0010F3E
S2140050000CBF0720092070470C4BD3F85C3103F027
S2140050103003202B0DD0302B0DD0102B08BF0720CF
S214005020D3E70020704702207047062070470A200A
S2140050307047042070470820704700BF00400E40AD
S21400504008B50146FFF79CFF1A4B994211D01A4B40
S214005050994212D0194B994204D1194BD3F88000CB
S21400506000F007000138032821D8DFE800F00A0E18
S2140050701612134BD3F88400F2E7114BD3F88800CE
S214005080EEE7BDE8084010F0E9BCBDE80840FFF7D1
S2140050908DBBBDE8084010F0E4BCFFF719FB084BD9
S2140050A0D3F80031C3F300630133D84008BD0020B5
S2140050B0FCE700BF030020000500240002001E00DD
S2140050C000400E4000F47813B3F5A01F10B5044658
S2140050D054D01ED8B3F5202F6CD009D8B3F5003FB6
S2140050E041D0B3F5802F33D0002B63D0002010BD05
S2140050F0B3F5602F57D0B3F5801F6CD0B3F5402FB3
S214005100F4D1FFF7E5FA3F4BD3F81431C3F3042389
S21400511025E0B3F5001F3BD00FD8B3F5D01F39D02C
S214005120B3F5F01F25D0B3F5B01FDFD13648FFF733
S21400513087FF344BD3F8203126E0B3F5481F3DD027
S214005140B3F5781F54D0B3F5101FCFD12F4811E018
S214005150FFF7BEFA2B4BD3F80C31C3F30823013309
S214005160B0FBF3F0C3E7FFF7B3FA264BD3F80831EA
S214005170F3E72548BDE81040FFF762BF2348FFF776
S2140051805FFF204BD3F8303103F00F03D840AEE773
S2140051901F48EFE71E48FFF753FF1A4BD3F8283196
S2140051A003F00303F2E71B48FFF7EAFE072812D0D6
S2140051B009289BD1BDE81040FFF78ABA1648FFF7CA
S2140051C0DFFE072807D0082808D004288ED1BDE8BF
S2140051D01040FFF7B3BA114B186888E7FFF778FA64
S2140051E0084BD3F80031C3F3042303FB00007EE72B
S2140051F0FFF76EFA0146204610F0CBFCB1FBF0F04C
S21400520075E700BF00400E4002001E0005002400A7
S2140052100300200006000E00B8003200900B0020AD
S214005220014B1880704700BFB40C002010B504284E
S21400523013D8DFE800F047032F132100294AC1F3F3
S2140052400801D2F86838002BFBD1274A136A23F4EA
S214005250FF7323F001030B43136210BD214A01F0D4
S2140052607F01D2F86038002BFBD11F4A136923F068
S2140052707F030B431361F0E71A4A01F07F01D2F86F
S2140052806438002BFBD1184A936923F07F030B4345
S2140052909361E2E7144AD2F89030536A23F0300361
S2140052A043F010035362146B104BC1F3C31003306A
S2140052B00F2803EA040328BF0F200B4343EA0073BA
S2140052C01363CAE74F29074A28BF4F21D2F874381C
S2140052D0002BFBD1044A936B23F07F030B439363AD
S2140052E0BBE700BF0020C84300400E4000F8FF0F99
S2140052F0104A536A13F0300F18D0202913D03029E3
S21400530014D000290C4B08BF4FF44003D2F890107D
S21400531033EA0101FAD15B0246BFD2F8A000C0F31F
S2140053208020012070474FF40003EFE74FF440035E
S214005330ECE700BF00400E40FF03E10702280AD159
S21400534029B1064B4FF48060C3F8A800596612B125
S2140053500220FFF7CDBF0120704700BF00400E407F
S2140053600428F8B546D82F4B13F800C02E4B1D5C0A
S2140053702E4B33F810702E4B33F810402D4B00296F
S2140053803ED0022837D15C6A14F0300F33D15C6A05
S214005390E40705D55E6A26F0300646F010065E6223
S2140053A0254C244B25441F66AD002B68002BFCD0F3
S2140053B002B36444A4002368002BFCD0022819D151
S2140053C0C1B11C4D696A11F0010116D001222021DD
S2140053D0FFF7B4FFD5F89C60012200210220FFF7FA
S2140053E0BFFFC6F30A010220FFF720FF2F662368DF
S2140053F0002BFCD0F8BD0021D2E7FFF779FFE9E7E4
S21400540001211C66A940D3F890000842FBD1002A6F
S214005410F0D00123074903FA0CF3D1F890201A4282
S214005420FBD1E7E7EFD00100EAD00100E0D00100B1
S214005430D6D0010000400E408004F21008B50C489B
S214005440FFF79CFC012211460220FFF789FFFFF7B9
S214005450DFFC084B02225A67FFF73AF9FFF78EFC8B
S214005460FFF75AF9BDE808400021FFF7E3BC00BF8C
S2140054700148E80100400E4010B504461120FFF731
S2140054807FFD002101220220FFF76AFF1B4A217CD4
S214005490536A23F00103022908BF43F00103536255
S2140054A0174B2178C3F8A014936AE17A23F0070318
S2140054B00B439362A188637A43EAC123D362136BDA
S2140054C0A07A217A03F07F630343E08843EAC0238F
S2140054D043EAC11303310F2928BF0F2143EA0173A2
S2140054E01363A37B617B1B0143EA0133E17B0B4320
S2140054F0217B43EA0143536310BD00BF00400E40CA
S2140055000000C8434209054B53F8223000F01F0044
S21400551023FA00F0C04300F00100704700E100E00D
S2140055201848194BC26C1B88C2F303222833013279
S21400553002EB820103EB5303B3FBF1F3C16C013BB7
S214005540072B28BF072321F0EE6141EA036343F4EB
S2140055508013C3640D4BB3F90030002B10DB2833E7
S214005560510801EB420203EB5303B3FBF2F3026D67
S214005570072B28BF072322F0700242EA03130365B5
S214005580704700BF00300E4008550020045500202C
S2140055900A4903798A6922F03F021343027843EAF4
S2140055A08203427843EA4203827843EAC203C2781F
S2140055B0012A08BF43F001038B61704700300E409C
S2140055C01A4B4AF6E85210B5596B5A639A6FD407CD
S2140055D0FCD41B6C13F0030306D0154A0124984232
S2140055E0C2F8B44A0AD110BD18B9114BC3F8B40AB0
S2140055F0F9E7012802BF0F4B02221A700B4B9A6F75
S214005600D207FCD41A6C22F0030202431A649A6F83
S21400561012F00102FBD10038054C18BF0120012909
S214005620C4F8B40A08BF5A63DDE700BF00300E4076
S2140056300000C6432C560020A0F5E163B3F5966F34
S2140056402DE9F04102D90020BDE8F081574C584BB7
S214005650D4F81872B0F5E16F1CD0DD6CC5F3017597
S2140056603C0E2E02C7F307474FF4966C4FF4E16EDC
S21400567001233343B3F5007F4C4E59D017D8B3F50A
S214005680807F52D040F20118434545D0CBB9D6F8BA
S2140056901C3218E0DD6CC5F30175C7F307242E0233
S2140056A0FFB24FF4167C4FF4966E0023E1E7B3F595
S2140056B0407F40D040F20138434533D0D6F82832F8
S2140056C001E0D6F82432C3F30726DBB2A4EB0708C2
S2140056D0A0EB0E0E0EFB08F8B8FBFCF84744A742FA
S2140056E0B1D8F41A0EFB04F4B4FBFCF41C44B44228
S2140056F0A9D872B12E4AD36DB0F5E16623F4FE4305
S21400570018BF012623F0020343EA460343EA0723B1
S214005710D36599B9012097E7D6F824321E0EC3F355
S2140057200743D3E7D6F82832F8E7D6F81C32F5E771
S214005730D6F82032C7E7D6F82032EFE71B4BD3F86F
S2140057400021D2B2032A07D8B0F5E16FD3F82C3285
S2140057500AD0C3F3072308E0022DD3F8303220D056
S214005760032D21D0012DF4D0DBB21B0313F4702FD0
S2140057707FF469AF0E49CA6E22F470421343CB66BB
S2140057804B6E23F4FF7323F00103B0F5E16F18BFEF
S21400579043F00103E72C28BFE72443EA44034B66A3
S2140057A0B8E7C3F30743E0E71B0EDEE70081E00F30
S2140057B000300E40184B1A6FD96C11F0010F02F032
S2140057C0060213D092B1132821D9143813288CBF9F
S2140057D0102308231048013BC26C190322F47F42B1
S2140057E041EA03231343C364FFF79ABED96C01F062
S2140057F00101114304D1092809D90A380928E6E726
S214005800DB6C13F00103E5D01AB92728DFE7042381
S214005810E0E70023DEE700BF00300E40064A074BF5
S214005820D3F88039136F23F0070303431367044B41
S2140058301888FFF7BFBF00BF00300E400000C64309
S214005840065500204E4B37B502229A639B6B03F039
S2140058500F039342044603D00025284603B030BD0C
S214005860484BD3F81C32013312D0474BD96B9A6B96
S2140058701160596C1A6C1160D96C9A6C1160596D74
S2140058801A6D1160D96D9A6D11605A6E1B6E1A6092
S214005890E288A188B4F90C004A2A65D9B2F5FA7FE5
S2140058A064D340F6C3139A428CBF4FF040524FF079
S2140058B00052334DEB6C23F0405323F001030028D5
S2140058C0A8BF43F001031343EB64304B1980EB6E23
S2140058D043F08073EB662E4BD3F8800900B10420AA
S2140058E0FFF79CFF2B6E23F0C0432B66EB6C43F058
S2140058F0060301A8EB6400F0D1FA9DF80500012824
S21400590011D19DF80430022B0DD822490B7853B9DB
S2140059106B6C214A43F001036B642B6E1A401F4BDD
S21400592013432B6608701E4B218919801D4BB4F952
S2140059300C20A0881A80FFF73DFFA37BCBB1012B7C
S2140059401BD0012260881146FFF776FE0546002828
S21400595082D0A37A0E4A003B18BF0123C2F89437C0
S2140059606078FFF72DFE78E70022A2E74FF080521E
S2140059709FE7034B0C4A9A65E3E7014B0B4AFAE7AD
S21400598000300E400081E00F0080E00F065500203A
S2140059900000C6432C560020000F0EF0B4C0400B8B
S2140059A0085500200455002077402057372110B7AF
S2140059B000EB4000F8B50D461F46040116463AB106
S2140059C0154801238B402044C7B100F1C060036036
S2140059D0072D4FF00F0114D8AB00104806FA03F25B
S2140059E09940204410F0A8F93EB90B4A0123AB4079
S2140059F0224477B102F1C0621360F8BD00F1806006
S214005A00E5E7A5F108039B00054806FA03F299406E
S214005A10E7E702F18062EFE70CA0004004A0004038
S214005A2008A00040064B302202FB0033072992BF35
S214005A305868986808398900C84000F00F00704719
S214005A4000A0004010B5044601214FF48A40FFF73D
S214005A5001FAB4F8013022785BBA9BB243EA0263DB
S214005A600B4A136000231362D36253634FF0004364
S214005A70D3664FF0FF339366064A4FF48071C2F840
S214005A808011E3785B01DBB282F80833116010BD49
S214005A9000200E4000E100E0F8B5254D8F7AD1F8E1
S214005AA000C0C3B201269E404FF0300ECB7A0EFBEC
S214005AB000500C461B05097BAE6643EA0743C0F858
S214005AC080C094F80DC0C0F888C043EA415322F065
S214005AD00302C0F88430C0F8982010F06AF8EB6E25
S214005AE03343EB66237A13B16B6B33436B63637A92
S214005AF013B1EB6A3343EB6223792A6823B1DB43A5
S214005B001B0263F47F431A4063790BB142EA032217
S214005B10A3790BB122EA0302E3791343044A136024
S214005B20044B9E62D663BDE8F84010F048B800BF4C
S214005B3000200E4000200E4410B5C0B20124844060
S214005B4010F037F8054AD36E23EA0403D366044BF5
S214005B501C62BDE8104010F032B800BF00200E40B6
S214005B6000200E4410B5C0B20124844010F021F885
S214005B70074B1A6A224208D19B6A9C430CBF012439
S214005B80002410F01CF8204610BD0024F9E700BFE2
S214005B9000200E40044B41F671321A649A6822F0D7
S214005BA001029A60704700BF00000E40034B9A68DF
S214005BB022F001029A6000221A64704700000E402C
S214005BC0094A0A4BD969C90705D512B96FF0020010
S214005BD07047013AF6E7002AF8D001221861DA6029
S214005BE0D86940F3800070478096980000000E4009
S214005BF070B509B9002070BD0E4A0023082550F87C
S214005C00234094610C4CD5600133D669F60705D560
S214005C1014B96FF00200EEE7013CF6E7002CF8D06E
S214005C20D469A40702D49942E9D1E3E76FF00100F2
S214005C30E1E700BF00000E4080969800224B2DE959
S214005C40F0470D4641F671311E6C1964996841F0B3
S214005C5001018146B6B299609708A8464FF0000A3F
S214005C60BA450ED30020D9F800202B689A420ED0F1
S214005C704846FFF7A5FF50B901212846FFF7B8FFB1
S214005C8005E009EB8A042046FFF79AFF48B10E4B61
S214005C909A6822F001029A600EB100221A64BDE8EA
S214005CA0F087C4F30A01C1F500618908A7EB0A036F
S214005CB0994228BF19464046FFF79AFF0028D2D1DE
S214005CC08A4408EB8108CBE700000E40214B41F6E2
S214005CD071311A6C1964996841F0010199600121CB
S214005CE01861D960D969490792B209D5996821F037
S214005CF0010199600AB100221A644FF0FF30704724
S214005D000221D9601449D869C00700D569B9D86995
S214005D1010F002000BD0996821F0010199600AB1D9
S214005D2000221A646FF0010070470139EBE741B9B1
S214005D30986820F00100986002B119646FF00200C4
S214005D407047996821F0010199600AB900207047F0
S214005D501864FBE700000E408096980002F00702E9
S214005D6042EA035201F4FE41024B10300A4343F864
S214005D702020704700600E40074B002047F6077251
S214005D8000F1100153F821100A4204D001300C280B
S214005D90F6D14FF0FF30704700600E40014B0122F5
S214005DA09A60704700500E40194BF0B500215D68B0
S214005DB0184C194E194F0846D6F8E8C16268236891
S214005DC01CF0040F0BD1B3F5006F06D01DD8B3F549
S214005DD0007F02D0B3F5806F01D142F48072D7F80D
S214005DE088C01CF4807F18BF22F01C022B4202D011
S214005DF02A4208BF18430131092904F10804DBD1FF
S214005E00C30348BF20F01C00F0BDB3F5803FE3E7B6
S214005E1000500E40F4D001000040E00F00300E406D
S214005E208B784A789B0143EA82030A781343CA7840
S214005E3043EA02130A7943EAC2234A7943EA023361
S214005E408A79043043EA42430001014A13507047FE
S214005E5000200440014B1860704700BF00008442D9
S214005E60437882789B0043EA021302781343C27891
S214005E7043EA4213027943EA0223427943EA0233B1
S214005E80827943EAC233C27943EA0243027A43EA9A
S214005E904243014A13607047002004400D4AD2F87E
S214005EA0E430D2F8E0109B0003F03C03C1F381110C
S214005EB00B438370D2F8E03003F03F034370D2F810
S214005EC0E830D2F8EC2003F0F003C2F303121343D9
S214005ED00370704700FF0FE0024BD3F8F000D3F8D2
S214005EE0F41070470081E00F024BD3F8FC00000E60
S214005EF0704700BF0081E00F044BD3F8E4301B0E60
S214005F000A3303F01F030120984070470081E00F1A
S214005F1070B5054616461C4619B91448FFF7D2F860
S214005F200146402C1BD003D8DCB1202C1BD070BD02
S214005F30602CFCD1042303FB06F2530803EB411349
S214005F40B3FBF2F30A4A203B02EAC3032A6822F0B4
S214005F5060022A602A6814432C606B61E7E7062318
S214005F60E9E71023E7E70823E5E700BF404105001F
S214005F70F8FF7F0040F6AA63C36041F205020023E3
S214005F80036042600B4A83604361C36482640A4ACA
S214005F900366904243678367C36705D002F5806255
S214005FA0904203D0836570470365FBE7036583650E
S214005FB0C3657047F9FF01000000014038B504468C
S214005FC016F00EFB0FCC044D0FC594E80F0085E8C5
S214005FD00F00002038BD00BFF02E002047F6FF73EC
S214005FE09A42F0B572D0062972D83A4B5B5C022B07
S214005FF06ED8394D05EBC304DF00A17815F83330B1
S214006000012938BF0121012B13D1E0780025401A61
S214006010A84202D80844C0B2F0BD431BA0EB53030D
S214006020666836F913609642CCBF03F1FF301D4612
S214006030EEE760680028EFD0B0F90040944204DB39
S214006040B0F902409442B8BF14468388FF2B04BFC1
S214006050B0F90620B0F908C03D440FBF012600265F
S214006060C8224FF0280C131B93FBFCF333446E78C6
S2140060701BB29E4201DD002B01DA731E1BB20133F8
S2140060809BB24FF47A7C071D5D1E2DB24FEAC50EFB
S21400609000EBC5059E42EA88AD6814FB025222EA70
S2140060A0E27202F15C02B2FBFCF205DD37F8335017
S2140060B0954203F10103E7D200EB0E039888904265
S2140060C028BF1046884238BF0846A4E7FF20A3E74B
S2140060D00020A1E73CD10100F02E00200629F0B5F3
S2140060E061D8324B595C02295DD8314B13F8310028
S2140060F0012816D103EBC1039C78D8785B68012C85
S214006100214638BF0121904294BFC1EB0001C1EB8C
S2140061100201CAB2001B8242C8BF002233F9120035
S214006120F0BD002A3DD003EBC103596800293AD0E0
S2140061309878904202D3B1F90200F1E7DC78B1F921
S21400614000009442ECD95C788B88A3F1FF06013CF2
S214006150734201F10405E4B2734101F10C07DEB2AB
S214006160B44216D805EBC3034FF47A75B3F9024070
S2140061705B686A43D21A04EBD47302EB630292FBA9
S214006180F4F29042CCDBB1F902009042C8DC10B2C7
S214006190C6E737F833C0944503F10106E2D3334629
S2140061A0DDE70448BCE70448BAE700BF3CD101007D
S2140061B0F02E00200CFEFFFF0080FFFF08B504480D
S2140061C0FFF7FCFEBDE80840012016F02CBA00BF21
S2140061D044D1010000487047B60C00207FB5142259
S2140061E0002101A815F0DFFA044B029301A94FF035
S2140061F0FF3016F0A4FA07B05DF804FB006A18003A
S21400620030B587B04FF4F8130193FF220023CDE991
S21400621003330546ADF8083005938DF811200C467B
S214006220002938D11E4A1F4B0121C0E900231E4811
S214006230FEF710FE01216868FEF70CFE2046FEF70A
S21400624087FD21468DF806001848FEF7DDFC01A9FB
S2140062508DF8070028688DF80540FEF7F7FC8423C4
S214006260ADF80E304FF6FF732868ADF8103003A96E
S21400627001238DF812308DF80D400FF02AFC2B68A4
S2140062805A6922F470625A615A6942F480725A61FD
S214006290204607B030BD03606FF03B00F9E700BF53
S2140062A0002000400082040040410500404B4C00A6
S2140062B0024B03480122C3F8042670470010C84367
S2140062C000000F40054B984201BF03F16E7303F5C3
S2140062D088330022C3F80426704700BF00000F4032
S2140062E0074A0346106800B97047027A9A4205D1F9
S2140062F090F85030002B08BF002070470068F2E787
S214006300442F002038B505460FF053FC291D0446DF
S21400631003480FF052FB2046BDE838400FF04FBC54
S214006320402F00202DE9F341064608469046FFF729
S214006330D7FF0F46019000283FD101A801F0AEFD1F
S2140063400446002835D1019D40F20113AB8102239B
S21400635085F850306881E873286085F809802F72C8
S214006360642002F025FC6861019890300FF022FB53
S214006370019894300FF01EFB019898300FF01AFB2E
S21400638001989C300FF016FB0198A0300FF012FB1E
S21400639001990B480FF011FB0A4909480FF02AFB38
S2140063A00FF007FC0123B360019B377133600FF0D9
S2140063B006FC204602B0BDE8F0811224F9E700BFD3
S2140063C0442F00203F60010038B5016204460FF0FC
S2140063D0F0FB214605460B4810F0ADF928460FF0B5
S2140063E0EEFB09490948002200F04CFE2269B2F88B
S2140063F074304FF6FF718B421CBF0133A2F8743025
S21400640038BD00BF342F002011640000202F00206C
S2140064102DE9F843304F4FF002084FF000093B6873
S2140064200BB9BDE8F8830FF0C4FB0646384610F0FB
S21400643068F9056995F85030044623B93046BDE83A
S214006440F8430FF0BCBBB5F87430002BF6D0013B18
S214006450A5F8743030460FF0B2FB237B20697F2B03
S2140064604FEA931222D9032A06D1066F26B1236A71
S214006470A2696168007AB04795F85030062B17D0AD
S214006480082B15D0032B0BD128460FF0F5FD38B19D
S2140064906B7A85F85080DB0602D52846FFF732FF78
S2140064A0C4F80490204601F05DFCB8E7466EDDE7D0
S2140064B028460FF0CBFD0028F2D0287A10F06BF9B2
S2140064C018B1092385F85030EAE795F85030062BC6
S2140064D0E6D10723F6E700BF342F0020F7B50746BE
S2140064E001A80E4614461D4601F084FCC0B9019A68
S2140064F05368567364F06F04147317611D70019B24
S2140065000121586810F079F8019B58810FF051FB73
S21400651001990446034810F00EF920460FF04FFB91
S21400652003B0F0BD3C2F0020F8B50B7B7F2B044654
S2140065300E464FEA931709D90FF03BFB032F05468B
S21400654018D1A37BB3B90123A3730AE00FF031FB84
S214006550637B05461BB904F19C00314603E0013B12
S21400656063730648314610F0E6F82846BDE8F84062
S2140065700FF025BB04F1A000EFE700BF3C2F002082
S21400658013B50446052101A801F0FEFA88B9019B5F
S2140065901C61227A5A73E27A62F07F021A730FF055
S2140065A008FB01990446044810F0C5F820460FF091
S2140065B006FB02B010BD00BF3C2F00202DE9F041C5
S2140065C004460FF0F6FA04F198080646404610F026
S2140065D098F8054620B93046BDE8F0410FF0EFBA0E
S2140065E0877B27B10146404610F0B1F8F3E704F187
S2140065F0300002F075FA30460FF0E1FA286801F034
S21400660067FB2F600FF0D5FA29460646044810F0BF
S2140066109EF8237C01332374E37B013BE373DAE7C4
S2140066203C2F00202DE9F04104460FF0C2FA3E4B05
S2140066301D680746D5B904F1300002F051FA3B4B0D
S2140066401D688DBBA04658F8986F002E4AD1267458
S214006650264656F89C5F002D58D154F8A05F002DB2
S2140066605BD13846BDE8F0410FF0A9BA15F81C2CEE
S21400667055F8183C7F2AA5F128004FEA92162D6897
S21400668009D99C42D6D128490FF014FD032ED1D14A
S2140066900023A373CEE79C42CCD123490FF00AFD1A
S2140066A0637B01336373C5E715F81C2C55F8183C5B
S2140066B07F2AA5F128004FEA92162D6808D89C423A
S2140066C0BFD11A490FF0F6FC637B01336373B8E75A
S2140066D09C42B6D115490FF0EDFC032E04BF0023F3
S2140066E0A373AEE73546404655F82869294610F0AC
S2140066F01CF8AB7B33B9637B0133637333212846C5
S214006700FFF762FEE37B013BE3739EE728463146D4
S21400671050F828590FF0CEFC9DE72846214650F841
S21400672028590FF0C7FC9AE73C2F0020302F002096
S214006730F8B51B4E0A27336803B9F8BD0FF039FACF
S214006740044630460FF0DDFF054620460FF037FAC8
S2140067502B7F2C6923B100212846FFF735FEEAE798
S214006760294604F198000FF0F2FF237C092B05D987
S21400677084F8507020460FF035FDDCE765696D0043
S214006780656141F2883002F013FA854204D941F27D
S214006790883002F00DFA60612046FFF70FFFCAE767
S2140067A0302F002070B50C460FF003FA2669054618
S2140067B006F198000FF0A5FF06F1300002F090F900
S2140067C0214606480FF0B7FF05490648002200F0AC
S2140067D059FC2846BDE870400FF0F1B9302F002074
S2140067E031670000102F00202DE9FF410F4603A956
S2140067F00646154698460FF077FC044670B9F7B182
S214006800FDB1114B1A8840F6F773002A08BF1A46E6
S214006810954207D930460FF042FC2B24204604B0A0
S214006820BDE8F0810A9B0093039843462A46394602
S2140068300FF074FC044630460FF031FCEEE72224DD
S214006840ECE72124EAE700BF0A55002018B9024AFF
S214006850137801331370704730560020F7B503687D
S2140068601B797F2B04464FEA931706D80FF0A1F941
S2140068702669054666B928462FE00FF09AF926697C
S214006880054636BB022FF6D1204601F06BFAF2E73A
S214006890277F2FB1002121772046FFF795FDEAE7F5
S2140068A096F850000FF098FC70B1204601F05AFAA6
S2140068B00428E0D1CDE90077134A7169234606F132
S2140068C0300010F00BF8D6E7737B01337373332177
S2140068D0E2E7032FD8D1B37B23B903B0BDE8F0407D
S2140068E00FF06DB90021B1732046FFF76DFDD6F8A5
S2140068F0A030002BBFD006F1A0000FF002FF01462B
S2140069003046FFF711FEB6E7A5670000024A137887
S21400691001331370704700BF305600202DE9F04F4A
S214006920774B8FB01B7807930693069B002B41D1BD
S2140069300FF03FF9724A07991378724FDFF8D0814B
S2140069405B1A13700FF03BF901F0C4FC3B6813B9F7
S214006950D8F8003023B301F037F808B33B68FBB132
S2140069600FF027F9054638460FF0CBFE04462846BA
S2140069700FF025F9237B20467F2B4FEA931698BF0E
S214006980002601F04BF9002800F0C0820FF011F944
S214006990214605465B480FF0DAFE28460FF00FF951
S2140069A0594E3368002B40F0F0820FB0BDE8F04F30
S2140069B000F090BB0AA800F0D3FF0590002840F036
S2140069C0FA810A9B1868514B5B7863B9B0F80520CA
S2140069D005210FF01FFE20B10A9B1B681B78142BA5
S2140069E001D00A9891E10A9B1A685688157992F8A0
S2140069F00180B6F5817F324628BF4FF481727F2D25
S214006A004FEA95171A81404617D8FFF769FC0446E7
S214006A10D0B190F85030042B1DD0002794F8503099
S214006A2018460FF0D9FB18B1082B45D1022F16D007
S214006A3005230022414620460AE0FFF751FC0446A3
S214006A400028EBD1022FCCD0002205234146104669
S214006A50FFF744FDC5E700210FF038FBDDE70A9A93
S214006A601461137D53B90FF0A4F8D4F89830089049
S214006A7005F00709002B2FD10FF0A1F80A9B1B7D0C
S214006A804BB12046E27A4146FFF728FD0A980023DC
S214006A90037501F067F9CEB9DDF82880002F40F0C5
S214006AA08E81CDE90B770D97637AE27AD80740F1AD
S214006AB01C810623217A3CE10A9AF907137D1461AA
S214006AC0CFD5002BDDD1002E00F0B481022E00F2CF
S214006AD0F7800623E27AADE753F8283CE27B1B7981
S214006AE0C3F30213591C1A4401F0070102F007020F
S214006AF091420FD8894501D391450FD90898BBE735
S214006B00305600203C2F0020402F00202D5600201D
S214006B10382F0020914501D98945ADD399459BBFB3
S214006B2009F10809A9EB0309A9EB03035FFA89F346
S214006B304FF0000988BFDBB284F81090099302F08A
S214006B401DF8D4E90632C01AB94B61EB02011A7877
S214006B50002A70D0C4E90801400840EAC17049081C
S214006B60C4E90A0183F800900520D4E90AA902F0D6
S214006B701FF8824579F1000905D2052002F018F8C1
S214006B800023A062E362D4E90A324FEA820949EAA6
S214006B9093794FEA830BD4E9082341F288301BEB44
S214006BA0020B49EB030902F003F80023584573EB88
S214006BB0090304F1300A74D241F2883001F0F8FF7C
S214006BC06061504601F08CFF04F198094FF0010A0D
S214006BD048460FF096FD817B00296ED1FFF7F4FB47
S214006BE0637B099A01336373E37B013BE373059B85
S214006BF0013305939DF814309342E9D308980EF0BC
S214006C00DEFF04F19C0AD4F89C30002B3FF436AF2C
S214006C10637B002B3FF432AF0EF0CBFF814650462D
S214006C200FF06FFD834648460EF0C9FF59462046D2
S214006C30FFF77AFCE7E7D4E9083A83427AEB0102E9
S214006C40D4E90A294FEA920242EA8972B4BFA0EB5D
S214006C50030CA3EB000C4FEA990912EB020E49EB6A
S214006C60090B4FEA9C0C1EEB020E49EB0B0BDB08E4
S214006C701EEB0C024BF1000B43EA4A734FF0070C75
S214006C80C008C4E90A2B4FEADA0AA3FB0C2340EA41
S214006C90417012180CFB0A3343EBD103C4E90823F6
S214006CA062E7052001F084FF834579F1000901D2EF
S214006CB0052083E7C4F814B083E780F81CA08FE7AC
S214006CC00A9B5868B31E9EB210FA83F331465A7870
S214006CD0835D43EA02220FF09DFC00287FF4DCAEC1
S214006CE0002F7FF47EAE0123F4E6C5F30210904237
S214006CF00ED0531E984204D00AB9072801D00223AA
S214006D00D8E62046FFF73CFC404601F02BF852E060
S214006D1029070AD4324604F1900140460FF0CEFC13
S214006D2000283ED0E27A0323C4E6217A29B106235E
S214006D3002462046FFF7D2FBE6E7A56D5DB10DAB38
S214006D4002930BAB01930CAB0093D8F804203346A8
S214006D5039463846A847D8F8040000F0A9FF0023B3
S214006D60C8F80430404600F0FDFFE37A013303F034
S214006D700703E3722046FFF703FC0C99C1B10B9A98
S214006D80B2B10D9B009392B2112320460FF0C6F9C4
S214006D9088B1656E7DB10C9933230022207AA8470E
S214006DA009E0A36E002BE0D0E16E207A9847DCE77E
S214006DB0084601F0A3F8069B013BDBB2B4E5022FC0
S214006DC038D1C5F30115012D9ED1D8F804301B78B3
S214006DD0013B042B14D801A252F823F0F16D0000F9
S214006DE0096D0000096D0000276E00001D6E000092
S214006DF0D4F89830002B87D02046FFF7DFFB83E7D8
S214006E00404600F0AFFF0C2504F1300001F068FEAC
S214006E1084F8505020460FF0E5F9CCE7404600F0E5
S214006E20A1FF0A25F0E7404600F09CFF0B25EBE7A4
S214006E30C60C00200023CDE90B33637A0A9F9A071D
S214006E4001D4384661E715F0370516D15B07F8D44C
S214006E503B8973B1324604F1940138460FF02EFC9C
S214006E600028EED1A36F002BA5D0E16F207A9847BB
S214006E70A1E7384600F076FFF4E7042D35D1A56D7E
S214006E80002D30D00DAB207A02930CAB01930BABE8
S214006E90009303217A683346A8470B99F1B10C9A00
S214006EA0E2B10D9B009392B2052320460FF036F90F
S214006EB00546384600F056FF0B9900293FF47BAF95
S214006EC00C9B002B3FF477AF002D3FF474AF256F7B
S214006ED0002D3FF470AF332300225FE7084601F031
S214006EE00DF800230B930125E3E7312DA9D1384691
S214006EF000F038FF227A002A7FF45DAF6281092312
S214006F000092114620460FF009F954E722890AB18B
S214006F10023292B236B92369217BDB7A21F007016F
S214006F200B4323730120237B617B009020680FF0C6
S214006F30ABFB0EF03EFE0546204600F027FD48B1AE
S214006F402A4821460FF003FC206800F0C1FE00230B
S214006F50236022E5206930B9022E7FF41EAD284654
S214006F600EF02DFEF2E4002EF9D1214698300FF0F7
S214006F70E2FB2469E37B0133E373237C002BEED131
S214006F8001F0FCFDC4E90601E9E70EF012FE054635
S214006F9030460EF01DFD044628460EF010FEDFF8C3
S214006FA05080002794F84C30022BA4F1040510D131
S214006FB028460FF061F860B104F12C0001F090FD56
S214006FC0404684F84C7029460EF00AFD284600F02C
S214006FD07BFF0EF0EEFD054630460EF0F9FC04464B
S214006FE028460EF0ECFD002CDCD1DEE43C2F002021
S214006FF0442F002010B518480EF0DCFC17480EF0A1
S214007000D9FC17480EF0D6FC16480EF0D3FC1648EE
S2140070100EF0D0FC00F050FD14480FF026FB00F0F8
S214007020D1FB0446A8B900F051FC044688B90FF01D
S214007030AAFB044668B90FF013FB044648B901F0F2
S21400704013FA044628B90A480FF0ECFA09480FF07C
S214007050E9FA204610BD00BF442F0020402F002034
S2140070603C2F0020382F0020342F00202D560020E3
S214007070202F0020102F0020014B1880704700BFE3
S2140070800A5500202DE9F0410446884617460EF0C2
S21400709090FD257B064625B10EF091FD0420BDE847
S2140070A0F08121460948C4E901870EF08AFC084AA7
S2140070B01378013313700123237330460EF07FFDDF
S2140070C00320FFF7C3FB2846E9E700BF482F002050
S2140070D0315600202DE9F047134EDFF850903778F0
S2140070E04FF000083D460EF064FD824648460EF01E
S2140070F06FFC044650460EF062FD44B1D4E9013000
S21400710084F80C80013D984715F0FF05EBD10EF092
S21400711050FD3378BB4226BFDB1BDBB20023337047
S214007120BDE8F0470EF04BBD31560020482F00203A
S2140071302DE9F04385B00EF03CFD234F234C064668
S2140071403868FDF7EBFB23782BB1304605B0BDE879
S214007150F0430EF034BD03A800F072FD814638B14E
S2140071600123237030460EF02AFD05B0BDE8F083FB
S214007170174B184D1C88DDF80C80013C0146102288
S214007180A4B2284614F00FFBC4F30A042A68124B74
S21400719012492401134044F044741C432C60104BE5
S2140071A0104CC5E901382560CDF800900E4B3868C4
S2140071B02A46FDF78DFB23681A884FF4847161F325
S2140071C00E121A80CEE700BFF82F0020445600208B
S2140071D00C550020B42F00200F80EFFCE42F002079
S2140071E01C000140B02F0020F574000070B50F4D54
S2140071F006460EF0DEFC2B88092B044603D9BDE8B4
S21400720070400EF0DCBC0A4831460FF0A6FA2B8818
S21400721001332B80074B1A7832B100221A70064BC6
S2140072201B780BB9FFF784FF2046E8E710550020CF
S2140072306C2F002043560020445600202DE9F04FC6
S214007240354BDFF8F090561AB6B287B00D461446A6
S2140072501E8068B905A800F0F3FC50B1D9F800000C
S214007260FDF75CFB2D4B01221A7007B0BDE8F08FCE
S2140072700590059B2A4FDFF8C0A0DFF8C080B4F564
S214007280006F03EB050B1BD810220021384614F0C4
S2140072908AFA731EC3F30A031B0143F0447303EA1E
S2140072A00A03C7E90038C7F808B000231D4A009350
S2140072B012681D4B1D49D9F80000FDF709FBD4E7FD
S2140072C0C5F5FF6507350D2200213846ADB203939C
S2140072D02D0114F068FA164AC7F808B045F0407554
S2140072E02A40C7E900281322FA601022B8180021A5
S2140072F014F059FA6FF40063E218C2F30A02039B13
S214007300120142F0447202EA0A0203F50063C7E97A
S2140073100428BB61C9E700BF0C5500204456002076
S214007320B42F0020B02F0020F5740000E42F0020BA
S214007330F07F0003F82F0020F07F10031C000140B0
S2140073402DE9F74F0EF035FC4F4B1B68242B80467B
S214007350A3F1240705D10EF032FC1B2003B0BDE8D4
S214007360F08F53F8249CB9F1000F00F08B803D8914
S214007370464CDFF838A1464E002D7AD00D2200216B
S214007380204614F010FAC4E900A9B5F5006F4FF0D6
S2140073901309A660C4F80C903DD80D22002104F114
S2140073A01000D7F804A0013D14F0FDF9394A3A4B15
S2140073B0ADB242EA05121340C4E9043AC4E90669CC
S2140073C0022504EB05194FEA051A1022002148464B
S2140073D014F0E9F90A37314B44F80A30C9E9017666
S2140073E0002304EB0312013391786FF304119170BC
S2140073F0DAB2AA42F5D92A4B2A48244A2A49002456
S2140074001C70009423460068FDF762FA40460EF0B2
S214007410D6FB2046A2E7B5F5805F25D8D7F804A0AE
S214007420DFF874B00D22002104F1100014F0BBF94F
S2140074300D22002104F12000C4E904BAC4E906695B
S21400744014F0B1F96FF400631D44124BC4F82C908D
S214007450ADB243EA051303EA0B0323620AF50063A1
S214007460C4E909360325ACE740460EF0A8FB212008
S21400747074E710222946204614F095F9C4E900A9BD
S214007480A660ADE7012069E7642F0020702F00207A
S2140074903400014000001030F07F10301000103033
S2140074A0C70C0020F42F0020D42F002060001030DE
S2140074B070B50EF07EFB04460C480D4D0B4E0FF0DB
S2140074C02AF920B92046BDE870400EF078BBFFF7D9
S2140074D0C5F920460EF073FB0EF06BFB2B880446B6
S2140074E0013330462B800FF016F9EAE7602F0020B4
S2140074F00E5500202DE9F04F85B00025DFF8B8A224
S2140075000395ADF80A500EF054FB9F4B1A689AF894
S2140075100030946807462BB19C4B8AF800501A78C6
S2140075201D70A41ADFF8948298F8003093B3984D33
S21400753023682B60A388AB80A379AB710DF10A0298
S2140075400D21A81F0FF073F8EA1F064678B92368C6
S21400755045F8073CA3889380A3799371204600F0F2
S2140075607DFB072231460846FFF768FE2FE0BDF890
S2140075700A3001339BB2D118ADF80A30D3582360D5
S2140075808B88A3808B79A371002388F800300123B1
S2140075908AF80030DFF828927E4E99F80050002DC9
S2140075A000F0EA800EF005FB7B4A13888346ABB9F1
S2140075B07A4B01221A707A4B1868FDF7AFF95846D5
S2140075C00EF0FDFA00232046336000F047FB3846F5
S2140075D00EF0F5FA002005B0BDE8F08F71480FF008
S2140075E09AF86D4A0028EAD011880090013958466A
S2140075F011800EF0E4FA9AF80020009B3360C2B9BE
S214007600072120460FF013F8834690B9664B226890
S2140076101A60A2889A80A2799A71204600F01EFB12
S2140076203068FFF7E3FD012388F80030072259464B
S21400763099E7336862881A811B6822681A60A288F4
S2140076409A80A2799A71204600F008FB3168DFF82C
S21400765064810A89002A51D1012389F80030072263
S2140076609AF80010A8F80020002900F0838003A8EC
S21400767000F0E6FADFF814A10090002874D1BDF8F7
S2140076800A30B8F800B00193C3F10704E4B2D91D7C
S214007690454B03988AF800405C45194458D3A4EB40
S2140076A00B0435685A46E4B28AF8004013F0DAFF55
S2140076B0039A6A60002C45D003A800F0C1FA98BB74
S2140076C0019BB8F800109AF8004003981944364B0E
S2140076D007312246194413F0C5FF07220398A8F87D
S2140076E000202146FFF7AAFD012389F80030316803
S2140076F02E480FF026F8FFF709F968E7B8F80030CB
S214007700B3F5817F0CD906230B7528480FF019F8BE
S2140077100025FFF7FBF8012389F8003035609EE767
S214007720002589F800509BE71D4B1868FDF7F6F812
S214007730009B8AF800300723A8F800301C4B012273
S2140077401A7044E70722A8F8002021460846C9E731
S214007750224613F087FF03985A462146FFF76EFD30
S214007760002D3FF434AFC2E70D4B1868FDF7D6F88E
S2140077700023DEE70846F1E733685C600D4B07221E
S2140077801A802946E2E700BFB02F002041560020AD
S214007790395600204C2F002010550020435600205C
S2140077A0F82F00206C2F002032560020682F002073
S2140077B0445600200C55002042560020405600201B
S2140077C0C80C002030B53748374D89B00121FDF789
S2140077D041FB36480121FDF73DFB35480121FDF709
S2140077E039FB0021084601230422FEF7E1F80123B5
S2140077F0194602220020FEF7DBF800231846022274
S2140078000521FEF7D5F80023042211461846FEF798
S214007810CFF80FCD01AC0FC495E8070084E8070049
S214007820244C00250123204601A98DF81D308DF833
S21400783004500EF099FA052120460EF08EFA4FF409
S2140078404063E3600323A567636741F61E63E3674F
S214007850636E43F004036366636F43F0300363674D
S214007860154CFCF7FFFF29462046FCF7A5FF1348FA
S2140078702946FCF7A1FF10B12068FCF7CDFF104A9F
S21400788010494FF4402313600F4B0020196001216C
S214007890C2E90100C3E90100D060D8605172597294
S2140078A009B030BD40410500FCD1010000250A00AA
S2140078B00022040000000140F82F0020F42F0020D2
S2140078C0E42F002001000C00D42F002013B51B4825
S2140078D00EF070F81A480EF06DF81A480EF06AF8B6
S2140078E019480EF067F819480EF09CFE0A2401A805
S2140078F000F0FCF9F8B90198FFF778FC013CF6D1E6
S214007900134B0A221A80134B4FF480521A60124807
S2140079104FF44063C3604FF0FF338364C36C43F09F
S2140079200103C36405210EF018FA0C4B07221A80D7
S214007930204602B010BD1924FAE700BF6C2F0020C5
S214007940682F0020642F0020602F0020502F00207A
S2140079500E55002000E100E0000001400C5500201C
S21400796038B505460EF025F9044607480EF0D3FE56
S214007970286020B920460EF022F91B2038BD20468C
S2140079800EF01DF90020F9E7682F002038B50446F0
S2140079900EF00FF90A4A1388054623B90EF00FF9C0
S2140079A00324204638BD013B2146064813800EF0CE
S2140079B0C8FEFFF7C5FC044628460EF000F9F0E7BF
S2140079C00E550020642F002010B50EF0F2F8064B7E
S2140079D01C7824B1054B1C88003C18BF01240EF00F
S2140079E0EEF8204610BD00BFC70C00200E55002044
S2140079F010B50EF0DEF8084B1A78044632B1074A86
S214007A0012681AB100221A70FFF792FB2046BDE8F2
S214007A1010400EF0D4B800BF445600206C2F002053
S214007A2013B50EF0C6F8084B1B88092B044606D87B
S214007A3001A800F05BF910B90198FFF7D7FB2046C4
S214007A400EF0BDF802B010BD10550020134A38B530
S214007A50136C03F001039364FBB1114B114D1868CE
S214007A60FEF780F8104B01221A700EF0A2F80446BA
S214007A7028460EF050FE01460C480EF062FE2046E8
S214007A800EF09DF80A490B480022FFF7FBFA2B6818
S214007A901BB1BDE83840FFF753BC38BD00000140BD
S214007AA0F42F0020642F0020C70C0020602F002039
S214007AB0B1740000502F002013B54FF4F263234832
S214007AC000932C221146224B00680EF0A8FEA82434
S214007AD020480094204B0068112207210EF09FFEDC
S214007AE020231E48009300681D4B082201210EF03B
S214007AF096FE40F6B4731B48009300681A4B0F229C
S214007B0040F209110EF08BFE4FF4A873174800934D
S214007B102146174B006802220EF081FE154800949D
S214007B20154B00680E220C210EF079FE4FF44173BF
S214007B30124800930522124B006898210EF06FFE43
S214007B4010480DF037FF002002B010BDC40B002017
S214007B5070440020BC0B0020BC430020B40B002067
S214007B6090430020AC0B0020D0330020A40B002054
S214007B70300D00209C0B002010330020940B0020BA
S214007B8000300020FC2F00202DE9F0410F4606466D
S214007B90002838D0DFF88080D8F800000EF089FD85
S214007BA00446B0B10EF005F87B1E0546042B2CD813
S214007BB0DFE803F0182B03120300154A13880D2B79
S214007BC00ED9D8F8000021460EF071FD28460DF0BB
S214007BD0F6FF1A20BDE8F0810E4A13880E2BEFE759
S214007BE00133138028460DF0EAFF0020C4E90000A8
S214007BF0C4E909002061E773A0612075A060A08138
S214007C00A0733460E6E72220E4E72120E2E700BF25
S214007C101255002014550020C40B002010B5044651
S214007C2048B1064B18680EF044FD002820600CBFD3
S214007C301A20002010BD2220FCE700BFBC0B00204D
S214007C40054B10B5044618680EF033FD002820607A
S214007C500CBF1A20002010BDAC0B002008B5014652
S214007C6028B1044B18680EF022FD002008BD222023
S214007C70FCE700BFAC0B002008B5014680B1094BFD
S214007C8018680EF014FD08480DF0A2FE014618B163
S214007C90064B18680EF00BFDFFF7AAFE002008BD85
S214007CA02220FCE7AC0B0020FC2F00209C0B0020C1
S214007CB008B5014638B1054B18680EF0F8FCFFF71A
S214007CC097FE002008BD2220FCE700BFAC0B00207A
S214007CD008B5014628B1044B18680EF0E8FC0020F1
S214007CE008BD2220FCE700BFBC0B00202DE9F341B5
S214007CF000250195064660B3DFF8648098F80030EA
S214007D002BB9164B18680EF0D4FC054618B301A81C
S214007D10FFF784FF019F044647B101216846FFF73D
S214007D2033FF044658B13846FFF7D2FF98F80030C4
S214007D305BB90A4B294618680EF0B9FC05E0009BB3
S214007D40C3E90075188118753360204602B0BDE897
S214007D50F0812224F9E71A24F7E700BFAC0B0020D5
S214007D602D56002070B50446002837D0837B002BA4
S214007D7036D1006808B1FFF7ABFFE37B022B05D0D6
S214007D80032B1ED0012B21D16068B8B901260DF057
S214007D9010FF144B0546214618680EF088FCE37B5E
S214007DA0042B15D1104A1388013B138028460DF08A
S214007DB006FF0EB1FFF734FE002070BDFFF778FF18
S214007DC0E4E70A4B616818680EF071FC0026DEE7EF
S214007DD0052B01D0032BE9D1054AE4E72220ECE786
S214007DE00420EAE7C40B002014550020B40B002042
S214007DF01255002073B50646032101A8FFF7C4FEFE
S214007E00044650B9084B019D18680EF052FC686095
S214007E1030B92846FFF7A6FF1A24204602B070BDE8
S214007E2001232B813560F8E7B40B002010B504461B
S214007E3048B1064B18680EF03CFC002820600CBFCA
S214007E401A20002010BD2220FCE700BF9C0B00205B
S214007E5010B5044670B1416829B1074B18680EF09A
S214007E6026FCFFF7C5FD054B21461868BDE8104007
S214007E700EF01DBC10BD00BFAC0B00209C0B0020FC
S214007E8008B543680B6003891380014602480DF06D
S214007E9094FD002008BD00BFFC2F002010B504464E
S214007EA058B1084B18680EF004FC206038B1A822C0
S214007EB0002113F078FC002010BD2220FCE71A20D9
S214007EC0FAE700BFA40B0020024B014618680EF02C
S214007ED0EEBB00BFA40B002010B5044648B1064B0D
S214007EE018680EF0E6FB002820600CBF1A20002061
S214007EF010BD2220FCE700BF940B002008B5014609
S214007F0028B1044B18680EF0D2FB002008BD2220D2
S214007F10FCE700BF940B0020014B1878704700BFA9
S214007F2045560020014B01221A7070474856002023
S214007F3010B518480123022200210EF096FA2E28CA
S214007F40044625D010BB144A12480A210EF09FF9A9
S214007F50044618B10F480EF0E1F917E00F4A0D4835
S214007F6009210EF094F904460028F3D10B4A09487B
S214007F7002210EF08CF904460028EBD1084A054889
S214007F8003210EF084F904460028E3D1204610BDF4
S214007F901224FBE7104C0020A5840000DD830000BF
S214007FA0257F0000F0B51F4606230B704568164671
S214007FB0A5F58052FF2A85B00C462FD80523EDB2D2
S214007FC04B8045F480534B60037A9A1E012A08D8EA
S214007FD0083128460EF0EDFA63880433336005B0A6
S214007FE0F0BD052B09D1083128460EF08FFA00287F
S214007FF0F2D1394B2B433B60EEE7092B07D1083112
S21400800028460EF0B2FA0028E6D1344BF2E70423F5
S2140080104B8000220323C1E90123DDE740F2022260
S214008020954226D012D8602D1ED007D8042D08D928
S214008030212D32D0002363600D2305E0B5F5007FC7
S214008040F8D1002363601523A36024E0B5F5C06F64
S2140080502BD00BD840F201339D42F2D0B5F5A06F7D
S214008060E8D11F4B027A1A70656031E0B5F5885F7B
S214008070E6E704234B8083682BB1012B07D000234F
S2140080804B600323E0E7174A4D601360DCE7154AB0
S214008090C1E90153136008231BE002890A814B8063
S2140080A000894D60FEF7E8FF96E70F4DC3688068CD
S2140080B02B6003A900F08EFD38B9CDE900000B4A0D
S2140080C003990B482B460EF028FC4FF4C063636000
S2140080D00423638080E700BF00BAFECA00BAEFBE82
S2140080E0465600200C4C0020404C002067670100DC
S2140080F0204C00200048704718D201002DE9F047B8
S214008100154606220A704368302B86B00C467AD095
S2140081100ED8042B05D9202B6FD0002363600D23C7
S21400812036E0013B032B31D8DFE803F034613A43F5
S21400813040F20222934200F085800CD8502B66D085
S214008140B3F5007F67D0402BE7D14B600EF096FA70
S214008150A060082322E040F20132934275D0B3F5C6
S214008160885F4FF0000674D0A3F58052FF2A00F215
S21400817092808DF81030DBB243F480534B6003A836
S21400818003960EF0B4F92072052307E000234B6037
S214008190A360DEE701234B6005230B72638020E0BB
S2140081A004230322C1E90123CB6007230B611023BC
S2140081B0F4E70F46042347F8043FFFF79BFF80468B
S2140081C013F05EFA461CB6B2802E28BF80263246D2
S2140081D04146381D13F046FA374B043601226680B6
S2140081E01A70638804332B6006B0BDE8F08702235C
S2140081F04B60324B9B78DB00CAE74B604FF48073D2
S2140082000B814A80EDE74B602D4B1B68C0E74B6047
S2140082100EF037FA9CE74B6003A8FCF7D1F9049BF5
S214008220E360002323619DF80C30012B02D1032369
S214008230A360BCE723B9A3604FF0FF33E360B6E763
S2140082400423F5E74B601F4BDFE74B60FFF764FE48
S2140082507EE74B6001F1070901F1870A3746731C78
S2140082606846CDE90077CDE903778DF804608DF890
S2140082701030029705970EF03AF9804603A80EF0E4
S21400828036F948EA001809F8018F0236CA45F6B2F0
S214008290E5D1842382E7A3F5E062FF2A3FF63DAFEF
S2140082A08DF81030DBB243F4E0634B6003A803960E
S2140082B00EF02AF967E700BF475600202D5600202B
S2140082C01C4C00200C4C0020014B1878704700BF57
S2140082D0475600201FB5174C23783BB116480EF0C2
S2140082E006F900BBFFF724FED0B92070134B1B78AD
S2140082F0A3B103230093104800230DF10A0203A93B
S2140083000EF0B5F850B9BDF80A30039823B10C4A00
S214008310037811680B441360FFF7AEFC04B010BD81
S21400832001232370E2E70228E0D003480DF0F6FFB1
S214008330DCE700BF48560020104C002046560020C0
S2140083401C4C00204FF00053002834D0012836D0B3
S2140083504FF000534FF20F025A801A4A01209060E5
S214008360136823F4E06343F400731360164B4AF675
S214008370E8529A6000225A63996B01F00F010229B5
S2140083800CD1124908641B6C03F00303013B8342C3
S2140083909EBF0F4BC3F8702CC3F8802EBFF34F8FD1
S2140083A00C490D4BCA6802F4E0621343CB60BFF37E
S2140083B04F8F00BFFDE740F201221A80C8E740F267
S2140083C00222FAE700500E4000300E4000400840FF
S2140083D00000C64300ED00E00400FA0538B5084684
S2140083E014461D4609B1FFF789FD0D4B9C4203D18B
S2140083F00C4B1868FFF7A6FF0B4A24F0FF039342C6
S21400840005D12946E0B2BDE838400EF094B8074AD8
S214008410934204D1E0B2BDE838400EF099B838BDBA
S214008420EFBEADDE0C4C002000BAFECA00BAEFBEAE
S21400843030B585B0044603A80D46FFF74DFD70B96C
S214008440039906230B8044F4805405234B804C602C
S2140084500D720123009009220248FEF7C5F905B007
S21400846030BD00BF104C002030B585B0FFF760FD72
S214008470044690B903A8FFF72FFD039D06232B8023
S2140084806C600EF08BF90399A86008234B800448B3
S214008490009403230C22FEF7A7F9204605B030BD52
S2140084A0104C00202DE9F347DDE90AA714460329FE
S2140084B04FF00002CAF80020DDF830803A608146AE
S2140084C00E4600D041BBB9F1000F25D16288043BAF
S2140084D09A4221D1C8F8009001A8FFF7FDFCD8B950
S2140084E0019DCAF8005063786B70032E3DD1237847
S2140084F0022B17D0032B28D0012B0DD12B70042371
S2140085006B8008233B60204B18680EF06CF968609F
S21400851028B91E4BC8F8003002B0BDE8F087C8F88E
S2140085200090F9E76368202B09D05A1E032A06D963
S21400853023F01002402A02D0B3F5007FECD13A4671
S21400854029462046FFF7DAFDE6E7636840F2022296
S214008550934203D0212B01D0602BDDD143463A460F
S21400856029462046FFF71EFDD6E7002ED4D12378F5
S214008570022BE4D0032BF1D0002BCDD104232E7098
S2140085806E803B60C8E700BF0C4C0020EFBEADDE3F
S2140085907FB5094B6A4603F11006154618685968F8
S2140085A0144603C40833B3422246F7D12846FDF7E3
S2140085B049F9002004B070BD22D2010070B5184BF6
S2140085C086B001AA03F110061546186859681446C5
S2140085D003C40833B3422246F7D11B882380114BCD
S2140085E0D3F8B420120316D5A3F500434FF6FF7256
S2140085F01B88934208BF4FF4B4730B48ADF80A309B
S214008600FCF7A2F82846FCF737FF3220FCF708FEF6
S214008610002006B070BDD3F8B830C3F30803ECE70B
S21400862032D201000081E00F00F0490210B50C487C
S2140086300C4C6FF00403A02113F0800F03F101022D
S21400864007D12344222A83F800131346F4D10020CE
S21400865010BD03F00F03043B034419761346EBE703
S21400866000ED00E000E100E000F00CB800F00AB811
S21400867000F008B800F006B800F004B800F002B841
S21400868000F000B872B61EF0080F09D01EF0040FF6
S2140086900DD0DFF850E0AEE8FF1F6FF002000CE0F0
S2140086A0DFF840E0AEE8FF1F6FF00E0005E0DFF8F1
S2140086B034E0AEE8FF1F6FF006006946EFF309826C
S2140086C08EE8070086460848084C854501D3A54530
S2140086D001D384F3088803F0BFFA84F3088803F014
S2140086E077FA0000C00A002040000020C00A0020E0
S2140086F0BFF35F8F074B5A6A22F480325A62D3F870
S214008700942022F00102C3F89420BFF34F8FBFF3EA
S2140087106F8F704700ED00E0F0B5374D37493848A9
S214008720002387B0CDE90333FFF7E2FF2C68354B13
S2140087304FF00052C3F89840661CC3F89C20814254
S214008740314AC3F8A0202E6041D005AB019304AB9C
S2140087500A1A009303AB0EF09EF8DDE90372059B40
S214008760DFF8A8E0072BA2EB01024FF001018CBF57
S2140087704FEAD30C4FF0200CB2FBFCF201FA02F2E7
S214008780013AD2B2AEEB070EC01BB3FA83F3BEFBC0
S214008790FCFEB0FBFCF08E44814002FA0EF201397A
S2140087A0C3F11E0311435B0001F0FF0103F03E031B
S2140087B043EA0123134A43F0407343F001130234A3
S2140087C0C2F89860C2F89C70C2F8A0302C60BFF364
S2140087D05F8F0C4B0522C3F894205A6A42F480320D
S2140087E05A62BFF34F8FBFF36F8FBFF34F8FBFF346
S2140087F06F8F07B0F0BD00BF444C0020D40C0020A3
S214008800D40C002000ED00E039000113D30C00204A
S21400881070B5002386B01646CDE90333FFF768FF30
S21400882005AB019304AB3246009303AB0EF033F86E
S2140088300446DDE90303059A013B072A8CBFD608E8
S21400884020260D465B1A01213344241AB3FBF6F3A7
S21400885001FA03F3013B013CDBB22D1A3444B4FBAE
S214008860F6F4A140013D0139B5FBF6F5AB401943DE
S21400887001F0FF01FF292BD0B2FA82F3C3F11E03E9
S214008880144D154A2C68C2F898405B0003F03E036E
S21400889043EA012343F0985343F001130134C2F82E
S2140088A09C00C2F8A0302C60BFF35F8F0523C2F88F
S2140088B09430536A43F480335362BFF34F8FBFF351
S2140088C06F8FBFF34F8FBFF36F8F002006B070BD62
S2140088D02820FBE7444C002000ED00E030B50E4CAD
S2140088E0416123688BB9206083600DE0891A9A681D
S2140088F041611D466AB113465A698A42F6D935B1B6
S214008900A860521A83605A6130BD0025F4E72060E3
S214008910F7E798608260F7E7504C002038B500F023
S214008920AFFA094C094B1A6823680025C31A2AB106
S21400893023B15169994203D3C91A5161206038BDE9
S21400894055615B1A9268F2E74C4C0020504C0020B0
S21400895038B5134D2B685B6993B1124A1468022030
S2140089601C4400F0C1FA204600F090FA0E492A682E
S21400897000230B70D088800709D501230B7038BD03
S214008980022000F0B1FA022000F0D4FAEEE7926876
S214008990002AF4D050690344012BEBD9EFE700BF5F
S2140089A0504C00204C4C00204A56002070B516460D
S2140089B09DF814200271049A0260C0E90336002272
S2140089C0BDF81830826004460D46C380EEB900F04C
S2140089D057FA2844A0619DB12E460DF0DFF80546F3
S2140089E0FFF79CFF31462046FFF778FF104B1B68C9
S2140089F0A34201D1FFF7ACFF28460DF0D3F802E002
S214008A00E36865617BB9002070BD00F039FA304438
S214008A10A061002DE0D1E3686561002BDDD0216800
S214008A2020469847D9E7216820469847EBE700BFDD
S214008A30504C00200C490B6800227BB183420AD1BF
S214008A4083687AB1936083681BB15A6941690A44A6
S214008A505A61002070471A469B68EEE70028EFD060
S214008A60022070470B60EEE7504C002070B5154EA4
S214008A700DF09FF834780546FCB9134B1C60134B79
S214008A801C60134B1C8000F0B7F9012000F02CFA94
S214008A9000F080FA0F4B0246186020B928460DF009
S214008AA08EF8232070BD23460B4840F2E73104F0D1
S214008AB09BFC0A4B18600123337028460DF07FF8A4
S214008AC00020EFE74B560020504C00204C4C002076
S214008AD016550020544C002018FCFFFF484C002080
S214008AE070B5044640B30DF059F8144E0546FFF72E
S214008AF015FF3068A04209D02046FFF79BFF0446CA
S214008B00B0B128460DF04EF8204670BDFFF792FF34
S214008B1004460028F5D133683BB9022000F0F2F98C
S214008B2028460DF03FF80024EEE7FFF711FFF7E7C1
S214008B303368002BF4D1F0E72224E5E7504C002000
S214008B4038B50C460546A8B1A1B100230B700DF050
S214008B5030F8094B1B68012133B90DF030F80020BE
S214008B6038BD9D4204D121702278002AF9D0F4E75E
S214008B709B68F1E72220F3E7504C002070B50DF01B
S214008B8018F8064600F07CF9084B1D8804460120BC
S214008B90ADB200F0D7F918B100F072F9013504460D
S214008BA030460DF00CF82046294670BD16550020BC
S214008BB038B5074B1D680446002140F2E7304FF4F5
S214008BC07A720023E5FB040104F00EFC38BD00BFFA
S214008BD0544C0020F8B50C4B1B68834205460E46E5
S214008BE00FD30A4B00241F6840F2E73021464FF4AB
S214008BF07A720023E5FB070104F0F6FB306020469E
S214008C00F8BD2120FCE700BF484C0020544C002053
S214008C10014B1868704700BF484C00200F4B1A687D
S214008C2010B59AB1531E4FF47A711342A0FB01019E
S214008C300ED1B2FA82F2C2F11F04531CE040D243B6
S214008C4001FA03F3184321FA02F20243104610BD5C
S214008C50002304F0C9FB0246F8E700BF544C00208E
S214008C6038B5154B8342154B8B41144621D3144B14
S214008C701A68F2B14FF47A75A0FB050305FB0131C3
S214008C80531E134211D1B2FA82F2C2F11F05531CD1
S214008C9001FA03F3D243E84021FA02F218431043E4
S214008CA0E940C4E90001002038BD002304F09CFB25
S214008CB0F7E72120F8E700BFEFA7C64B378941004A
S214008CC0544C0020C2072DE9F84304460BD5474A0A
S214008CD0138801339BB21380FFF720FE444B1B68BA
S214008CE00BB1FFF735FEA3077DD50CF062FF0546F6
S214008CF0FFF714FE4FF000083D4F46463C680CB1A7
S214008D0063698BB13B4B0022012E1A7003D118F019
S214008D10020F18BF1E70002C61D0FFF719FE284600
S214008D20BDE8F8430CF04BBF23465A693AB91A79A6
S214008D302179914288BF1C469B68002BF5D12846B6
S214008D400CF03DFF2569DDB100F09AF8A269A0EBB2
S214008D5002084FEAE873A84573F1000311DB2369A4
S214008D601344A361E368B4F80680013613B12168A2
S214008D70204698470CF01DFF0546FFF7CFFDBDE7E0
S214008D80A8460CF016FF81462046FFF753FE4846DD
S214008D900CF015FF2369002BE4D0A38BB5EB080578
S214008DA033B1E28B13449BB2B3F57A7F0FD2E383E1
S214008DB00CF0FFFE294680462046FFF78FFDA3698C
S214008DC022691344A36140460CF0F9FECAE7A3F5F6
S214008DD07A73E383A369013B013DA361E8E70220C0
S214008DE000F090F89BE7BDE8F88300BF165500201A
S214008DF0504C00204956002010B51D4B86B0186810
S214008E00596803AA03C2197AD3F8090011700190B1
S214008E10B3F80D201748DB7BADF8082001218DF84C
S214008E200A300024FCF716F803A88DF80C408DF8DD
S214008E301040FDF715F801A901208DF80440FCF755
S214008E40EFFF0D4A536A23F4FF6323F007035362D0
S214008E5040F2FF73136201209460FCF7FBFF074BA0
S214008E604FF00052C3F880211A6006B010BD00BF54
S214008E7044D20100A00914000020044000E100E0F4
S214008E80014B9868704700BF0020044010B50446A8
S214008E900CF084FE124A9368516D9269520704D40E
S214008EA0CA1A032A01D899420DD1E21A022A98BF9B
S214008EB0DC1C0B4BB4F1FF3F38BF013C5C655A6AC3
S214008EC042F004025A620CF06DFE064A137833B183
S214008ED003490B6D43F002030B650023137010BDAE
S214008EE000200440C90C00208207054A00F0010358
S214008EF0516A48BF43F004030B435362704700BFF8
S214008F0000200440820700F0010309D5074A01212A
S214008F10117007490A6D22F0030243F004030A6544
S214008F2003494A6A22EA03034B627047C90C0020D1
S214008F3000200440830742BF014B0422DA617047D9
S214008F4000200440064B01289B6904D0022805D166
S214008F50C3F38000704703F001007047002070479D
S214008F600020044010B50CF024FE094A936904461C
S214008F70590703F0010003F0070348BF40F0020062
S214008F801362FFF79FFE2046BDE810400CF017BEA8
S214008F90002004400148FCF795B800BFA009140063
S214008FA010B50446FBF7B8FB0B4BA0F57A729A4255
S214008FB010D84FF47A735C43B0FBF3F0074BB3FB67
S214008FC0F0F3B4FBF3F0032804D9BDE810408008A2
S214008FD0FBF77EB810BD00BFFFC99A3B40420F00AA
S214008FE007B500B9FEE7037F03B1FEE70090054B27
S214008FF04068012213F079F900B1FEE703B05DF88E
S21400900004FB00BF636A010030B5044685B008461D
S21400901004B9FEE7237F03B1FEE703A96568FFF7FF
S214009020D9FD48B90123CDE90003054A0399234633
S21400903028460DF072FC00B1FEE705B030BD00BF5B
S214009040696A0100184910B5A1F148000DF0B0FC9E
S214009050A0B11549A1F148000DF0AAFC0446A8B934
S2140090601249A1F148000DF0A3FC044668B110496E
S21400907020460DF001FD0D492046F4E70B49A1F10D
S21400908048000DF095FC0028E3D110BD00F030F943
S214009090084A0949002808BF114620460DF0ECFC96
S2140090A001492046D8E700BFF04C0020A84C00201D
S2140090B089C0000045C00000537F0100014B1B69BA
S2140090C0184700BFA84C0020F8B507460C460146D6
S2140090D0124816460DF088FC0368054603B907607B
S2140090E0384610F0ACFE022800D9FEE70C49431EB5
S2140090F0A71901EBC3004FF00002524141F833704C
S21400910042600CF056FD32460746214628460DF0D2
S214009110C5FC3846BDE8F8400CF051BDA84C002010
S214009120800E002038B505460CF043FD294604465F
S21400913004480DF059FC0DF066FC2046BDE83840AA
S2140091400CF03DBDA84C0020014B1B69184700BF22
S214009150604C002070B50CF021FD054613F004FBB2
S21400916008490B6808608342074B82BF1A680132C1
S2140091701A601E68044628460CF014FD2046314648
S21400918070BD00BF5C4C0020584C0020F8B504466B
S2140091900E4601460A4817460DF026FC03680546AB
S2140091A063B10CF006FD3A460446314628460DF0FB
S2140091B075FC2046BDE8F8400CF001BD0460F0E701
S2140091C0604C002038B505460CF0F3FC29460446F2
S2140091D004480DF009FC0DF016FC2046BDE83840AA
S2140091E00CF0EDBC604C002037B5084D04460DF180
S2140091F00601286813F00FF928B9BDF8061028688C
S214009200224613F089F803B030BD00BF3C4E002064
S2140092101FB50D4C0023CDE9013303932068FF23CF
S2140092208DF8043013F07BF860B90DF10201206868
S21400923013F0F1F8BDF80210206801AA05F0C0FE90
S21400924000B1FEE704B010BD3C4E00200FB407B5D9
S214009250064B1B6805A901911BB1054A0548126813
S214009260984703B05DF804EB04B07047644D0020E7
S214009270604D002054D201002DE9F04117680646E3
S2140092800D4638460F49144612F0AFF9034628B18A
S2140092900D49384612F0A9F980B901230B4A02EBB2
S2140092A0C303012D05F1FF3188BF221D30465B68E0
S2140092B0BDE8F041C9B298BF002218472320BDE898
S2140092C0F08100BF69D2010074D2010014D30100FE
S2140092D0024B1960024B1A60704700BF644D0020B5
S2140092E0604D0020014B1870704700BF4C560020A0
S2140092F0014B1878704700BF4C56002008B549B19E
S21400930007480EF0D8F90020FFF76EFF003818BFA8
S214009310012008BD03480EF0CEF9FFF779FFF5E708
S2140093207DD201009AD2010008B549B107480EF077
S214009330C2F90120FFF758FF003818BF012008BD0A
S21400934003480EF0B8F9FFF763FFF5E7B6D2010061
S214009350CCD20100094B0A4910B5041E08BF1946B5
S21400936008480EF0A8F9084B84F00101186813F0BD
S2140093709BFA003818BF012010BD00BFE4D20100E0
S214009380DDD20100ECD201003C4E00200F4B1B78D2
S21400939010B5CBB1B1B114680D49204612F025F9CD
S2140093A050B90120FFF7D6FF044618B109482146F8
S2140093B0FFF74CFF204610BD0749204612F015F96E
S2140093C00028EFD00724F1E70D24EFE74C560020E5
S2140093D0DDD2010054D20100E4D20100084B094955
S2140093E010B5041E08BF194607480EF064F9074B6F
S2140093F084F00101186813F088F9002010BD00BF42
S214009400E4D20100DDD2010002D301003C4E002070
S2140094100F4B1B7810B5CBB1B1B114680D4920467F
S21400942012F0E3F850B90120FFF7D8FF044618B150
S21400943009482146FFF70AFF204610BD0749204687
S21400944012F0D3F80028EFD00724F1E70D24EFE759
S2140094504C560020DDD2010054D20100E4D20100B7
S2140094601FB50023CDE901330393FF238DF80430A5
S214009470084B93F90010044601F09AF800B1FEE795
S214009480054B01AA1868214605F09AFD00B1FEE7D3
S21400949004B010BD4D5600203C4E0020064B00EB9D
S2140094A0800110B549000446186813F09DF800B115
S2140094B0FEE7024B1C7010BD3C4E00204D560020AF
S2140094C0B0F5C02F4FEA104382B211D20F2A0FD840
S2140094D010460122824030205843064B034421B1F7
S2140094E003F1C0631A600020704703F18063F9E758
S2140094F0072070470CA00040B0F5C02F4FEA10427E
S21400950083B210D20F2B0ED830235A43074B80B2AB
S214009510134400EBC30080000368003B18BF012320
S2140095200B70002070470720704700BF1CA0100279
S21400953008B5FCF739FC034B1860BDE80840FCF79B
S2140095402DBC00BF684D0020BFF34F8F0549064B6A
S214009550CA6802F4E0621343CB60BFF34F8F00BFCC
S214009560FDE700BF00ED00E00400FA050E4B1B68A7
S214009570DA070ED459050ED41A050ED4D9050ED422
S2140095809A050ED4094A1A40002A14BF062007205E
S214009590704700207047022070470820704701205F
S2140095A070470320704700BF684D00201C00010074
S2140095B010B502F0EBFA044602F0EEFA2146024637
S2140095C010480EF072F802F0DBFA044602F0F2FAE7
S2140095D0214602460C480EF068F802F0D7FA01233E
S2140095E0834040F2A17213420AD0002002F0D6F95E
S2140095F0002002F0E9F8BDE81040002002F098B81C
S21400960010BD00BF24D301003AD30100074B1B78DE
S21400961018400AD0431E034006D140081A4603F1FC
S2140096200103FAD1D0B2704700207047CB0C00205F
S2140096302DE9F8434D1EEDB2022D28BFFF25044646
S2140096400F460DF063FF00285DD020460DF065FF45
S214009650002858D094F81C8018F0100853D1FF2D1D
S21400966000D1FEE720460DF01AFFA8B120460DF007
S21400967065FF064600284BD0264B3C2202FB0733EC
S2140096805B785A1E90420ED083420AD0013398422D
S2140096903BD00820BDE8F8831E4B3C2202FB073374
S2140096A05E784FF001084FF03C090C2319FB073396
S2140096B003EB0813DFF85C804344A360237FDB07DB
S2140096C01AD420460DF0EBFE38B109FB07F308EB81
S2140096D0030208F8036053689360314620460DF095
S2140096E03AFF3C2303FB07882046D8F804104B1C9F
S2140096F0C8F804300DF031FF07492DB201EBC50163
S21400970020460DF0F6FE0020C4E74FF00208CAE738
S2140097100120BFE76C4D00209956002008B5054B88
S214009720186812F0DCFD00F00300C31E58425841D2
S21400973008BD00BF3C4E002038B51D46124B1446EF
S2140097400A460146186812F0F1FF08B1002038BD3D
S214009750227C02EA121101F00E0102F011031943F5
S21400976003D1130701D00F2AF0D86088A368421CE3
S21400977092B22A801B789342E8D103387B288CBFAC
S21400978000200120E3E700BF3C4E0020F8B5064667
S21400979014461D460F46FFF7DDFC0B46316896F96A
S2140097A00EE096F80FC081424FF0000228BF03F18A
S2140097B0FF335218717B49B11549C1E9022381F87C
S2140097C015E081F816C081F82850F8BD11481249F6
S2140097D080F82850C0E90223C37D81F800E044EAFF
S2140097E0470423F0030304F003041C433C220B4B02
S2140097F00B4980F815E055435A195B5D037593686D
S21400980080F816C081F800C0C4750361DDE700BFAC
S214009810180F0020480F0020A95600206C4D00208D
S214009820AA56002038B504460CF0C3F9044B1D6850
S2140098300CF0C5F9254214BF0120002038BD00BF3A
S214009840384E002008B50220FFF7ECFF28B1034B86
S2140098501B681B681878C0F3401008BDEC4E00204B
S214009860074B10B51B681B6802201C88FFF7DAFF41
S21400987020B104F00704E31E5842584110BD00BF53
S214009880EC4E002008B5084B1B781BB1012000F0F9
S214009890010008BD0220FFF7C5FF0028F6D14FF4EF
S2140098A0F850FFF7BFFFF2E72C58002038B5044603
S2140098B00D460CF07EF9064B1A682DB114431C6059
