S02200006275696C642F64656275672F7263702D756172742D3830323135342E733337CE
S21400400000080020C14600002746010027460100A0
S214004010A14E010027460100274601002746010061
S21400402027460100274601002746010027460100D3
S214004030274601008095010027460100274601001B
S214004040274601001592010027460100191F0100AE
S2140040502592010021920100D1250100199201004C
S214004060B54900008D4A0000754B00002746010048
S21400407079860000274601002746010027460100F2
S21400408027460100A94A00002746010027460100EE
S2140040902746010027460100274601002746010063
S2140040A02746010027460100274601000526010095
S2140040B01D920100E19F00004126010027460100F5
S2140040C0610D01002746010000000000000000000E
S2140040D0013800D0FCE77047000000000000000038
S2140040E001F0FF01102A2BDB10F0070F08D010F8A4
S2140040F0013B013A8B422DD010F0070F42B3F6D1A8
S214004100F0B441EA012141EA014122F007047FF0C0
S21400411000070023F0E80256083C85EA010586EA17
S214004120010685FA47F5A3FA87F586FA47F6A5FA53
S21400413087F68EB9EED1F0BC01F0FF0102F007025F
S21400414032B110F8013B013A83EA010313B1F8D10A
S2140041500020704701387047002D06BF35460338EB
S214004160073815F0010F07D1013015F4807F02BF24
S214004170013015F4C03F0130F0BC0138704700BF75
S2140041802DE9F84F4022002129482A4EDFF8A0B03A
S214004190DFF8C4A0DFF8C490DFF8C480264F13F021
S2140041A0FBFE30222448002113F0F6FE234B244A5F
S2140041B0DFF8B0E09FED1C7B0020A3F1180C24254F
S2140041C00BEB4014454343E9054A0CEB050400217C
S2140041D043E9039843F8181C43F804EC217721625E
S2140041E0182404FB007442F8144C164C42F8104C89
S2140041F0154C42F80C4C154C42F8084C144C42F83E
S214004200044C144C42F8181C2C44A6EC027B217774
S21400421043F8241B216242F8241B08B1BDE8F88F3E
S2140042200120CCE7AFF30080000000000000000093
S214004230CC490020180B00209C4900206C49002027
S214004240244900207DA000007B4F01009D4F010007
S214004250D34F01000C490020A5A00000B94F010073
S214004260A14F010025500100F8B5012006F02AF8FC
S2140042700446002840F0B0805B4E5C4B5C4DB0605E
S214004280C6E90030286041F60B2310227F215948EA
S214004290AB8013F081FE584B7F22214630461A70C1
S2140042A009F05EFF044600B9FEE754490AF01CFA1E
S2140042B000B1FEE70221204614F0CCFB00B1FEE779
S2140042C04F4920460AF028FC074600B1FEE70246A2
S2140042D0802306F11001204614F026FD802800D029
S2140042E0FEE7484E012009F087FF3DA3D3E90023EF
S2140042F04FF0FF304FF0FF31346006F027F83946B4
S214004300284606F047F80121084606F00BF8306804
S214004310012114F03BFB044600B1FEE78C22014667
S214004320394813F039FE394B394A9C801C60394BAA
S2140043301A609C80384BFF2283F82820374A9C80DE
S2140043401A602B790B2B10D86B790A2B0DD9344BAE
S2140043501D6002F0CBFA204606F060F808223068AE
S214004360114614F012FC08B1FEE7FEE710F0FDF966
S214004370044610F015FA08B144F40034204610F054
S214004380F6F906F059F810F003FA80F00102D2B2FE
S2140043903068D200082114F0F8FB00B1FEE7214B8C
S2140043A01B788BB9002200231F4841F20D0105F04F
S2140043B0CDFF002007F04AF81C4B1D4800221A705B
S2140043C0BDE8F84011F01FBA10F0E2F90028E9D075
S2140043D0154A41F20D03E7E7F8BD00BFAFF30080D2
S2140043E00B0020FF220200003C4A002095A6000099
S2140043F0344A0020965000209550002007001100F7
S21400440010A101002C4A0020D04A0020900B00206A
S21400441026510020600B0020300B0020A650002004
S214004420304A002062090020C00D0300A851002079
S21400443004A101000348044B834202D0034B03B19E
S2140044401847704774090020740900200000000017
S2140044500548064B1B1AD90F01EBA301491002D0E1
S214004460034B03B1184770477409002074090020F5
S2140044700000000010B5064C237843B9FFF7DAFFBA
S214004480044B13B10448AFF300800123237010BD22
S2140044906E5000200000000048BE010008B5054B25
S2140044A01BB105490548AFF30080BDE80840FFF79B
S2140044B0CFBF00BF00000000901F002048BE0100D4
S2140044C0A3F5803A704700BF174B002B08BF134B6D
S2140044D09D46FFF7F5FF00218B460F461348144A0A
S2140044E0121A13F059FD0E4B002B00D098470D4BB7
S2140044F0002B00D098470020002104000D000D4836
S214004500002802D00C48AFF3008008F0B1FB200072
S214004510290008F013FA08F099FB00BF0000080015
S21400452000000000000000000008002074090020C1
S214004530CC510020000000000000000000239A6A12
S214004540B2F5006F0AD2D3F82838A3F50061B1F5AA
S214004550605F03D21168084A914203D000230370BB
S214004560836070471968054A9142F7D101220270AC
S2140045709A6842609B69F3E7AD1007B007B0CD5E5E
S214004580002310B5D3F82838A3F50062B2F5605FB3
S21400459011D21968094A91420DD1094C227812F0BD
S2140045A0FD0F01D0002010BDDB6998470028FAD126
S2140045B001232370F6E74FF48170F4E707B0CD5E71
S2140045C06F50002038B504460D4601B118B90448AE
S2140045D0372110F011F823682B60256038BD00BF26
S2140045E0D095010038B504460D4601B118B9054806
S2140045F0452110F001F8236813B92B60256038BDFB
S2140046001C46F8E7D095010010B5044618B90548D1
S21400461056210FF0F1FF206818B1036823600023CD
S214004620036010BDD095010038B504460D4601B1B3
S21400463018B9064878210FF0DFFF23681BB1AB429C
S21400464002D12B68236038BD1C46F6E7D0950100E2
S2140046502DE9F0410F46064600B119B90F488E21E4
S2140046600FF0CAFF35464FF00008286830B9B8F199
S214004670000FF7D1BDE8F0811D46F6E70468002C70
S214004680F5D02146B8472B680028F5D1226823606C
S2140046904FF001081A602C602546E6E7D095010029
S2140046A0054A06490346106803448B4294BF1360CC
S2140046B04FF0FF30704700BF00080020007C00204D
S2140046C008B500F07DF8124B12498B4212D3124BFC
S2140046D0124900208B4218D3FFF7F6FE186850F8F0
S2140046E02240586840F82240013298688242F5D34A
S2140046F00C33EAE70022F8E71C6844F8220001328F
S2140047005C68A242F8D30833E4E70022F8E700BF6B
S21400471050BE01005CBE01005CBE01005CBE010034
S2140047200048704700F049020D4AD2F8943003F072
S2140047300703032B11D0042B03D0022B0BD1094BFC
S21400474000E0094B1868D2F80031C3F304230133A4
S214004750B0FBF3F07047054BF4E74FF40040F2E788
S21400476000400E40100800200C080020040800201E
S21400477008B5FFF7D9FF054BD3F80831C3F3082374
S2140047800133B0FBF3F0024B186008BD00400E404A
S21400479008080020014B1868704700BF100800206A
S2140047A0054B1860054BD3F8943003F00703022B33
S2140047B001D1FFF7DDBF70471008002000400E4013
S2140047C00D4B0E4A9A60D3F8882042F47002C3F864
S2140047D088200B4B5A6D42F400525A651A6C22F030
S2140047E003021A645A6F22F001025A671A6E22F008
S2140047F080521A66704700BF00ED00E000400000DF
S21400480000300E40014B1868704700BF0C080020AF
S21400481038B5124B1B780546DBB1E0B10FF04BFF05
S2140048200F4A00231146147B54B92B601A0101EB82
S214004830031301258C501D730FF043FF204638BD2F
S2140048400133082B02F11002EDD10FF03AFF0548B4
S214004850F5E70548F3E70548F1E700BF705000208C
S214004860A8200020048000F0028000F0018000F004
S2140048700D4B1B7810B5044693B1072812D80FF0DD
S2140048801AFF0A4B03EB04131A7B2AB100241C738D
S2140048900FF017FF204610BD0FF013FF0448FAE78D
S2140048A00448F8E70448F6E770500020A8200020E7
S2140048B0068000F0028000F0018000F013B5164B71
S2140048C01868019000238DF804300FF0F4FE134BA7
S2140048D01C7824B10FF0F5FE114802B010BD01227D
S2140048E01A700FF0EEFE0F4B1C731C7783F82C40EB
S2140048F083F83C4083F84C4083F85C4083F86C4077
S21400490083F87C4004230DEB03008DF8073001F09C
S214004910E1FA2046E1E700BF339601007050002020
S214004920038000F0A8200020F8B50D4D2D7885B145
S214004930072810DC0B4D05EB00140601277B67B13A
S214004940AB51069B63600025A56001F005FB284679
S214004950F8BD0548FCE70548FAE70548F8E700BF54
S21400496070500020A8200020028000F0018000F097
S214004970078000F00A4A127808B552B107280AD80C
S214004980084A02EB00131B7B3BB101F067FB0020DB
S21400499008BD0548FCE70548FAE70548F8E700BF04
S2140049A070500020A8200020028000F0018000F057
S2140049B0078000F02DE9F041DFF86480D8F86070D9
S2140049C0D8F86C301F4000D5FEE7134C01260025B2
S2140049D0374218D02368C8F86860A3B1A168626837
S2140049E00131A16028469847637B012B0BD150B953
S2140049F00A4B03EB45131A7B60F341021A731A7FC6
S214004A0060F341021A770135082D4FEA460604F195
S214004A101004DDD1BDE8F081A8200020A81F0020EA
S214004A2000200E4070B50C4E0446012504B970BD3A
S214004A3094FAA4F0B0FA80F006EB001205FA00F340
S214004A4024EA03045368002BF0D0117B11B191685F
S214004A509847EBE79847E9E72821002008B511209A
S214004A6000F0E2FE28B1084B4FF40032C3F8802174
S214004A701A60092000F0D8FE28B1034B4FF40072EC
S214004A80C3F880211A6008BD00E100E0054BD3F8AA
S214004A902804D3F81C24104000F05530C3F8240432
S214004AA0FFF7C0BF00A00040054BD3F82804D3F89A
S214004AB01C24104000F0AA30C3F82404FFF7B2BF4D
S214004AC000A00040024B1968024B186809F02CB988
S214004AD0140800203408002070B5940022460546CD
S214004AE00E460FF000FE431C0AD058B92246314647
S214004AF0284613F041FA0028034808BF002070BD7E
S214004B000248FCE70248FAE710E000F021E000F077
S214004B1024E000F010B5044601F0ACFB431C10D0B6
S214004B2088B901F0C7FC20F00300234620449842D1
S214004B3001D1002010BD53F8042B0132F7D00348F2
S214004B40F8E70348F6E70348F4E700BF0EE000F096
S214004B5021E000F024E000F008B50FF0A5FD014BC1
S214004B60186008BDEC290020014B18680FF0A0BDA6
S214004B70EC290020044BDA68D20604D510225A61CC
S214004B80024B01221A7070470080014071500020CD
S214004B902F4B002A30B52F4C426B18BF1C462E4BAD
S214004BA00CBF00251025984232D1062907D80629C1
S214004BB007D8DFE801F00817402E060636008129E0
S214004BC039D000231FE0254BD3F81012D3F810027B
S214004BD0D3F8103201F4FE4100F00F00014303F059
S214004BE0F0030FE01D49D1F81032D1F81002D1F8C9
S214004BF010121B0C090C01F0F00103F4FE430B43EA
S214004C00C0F303410B432240AB401343124A5363A5
S214004C1030BD1249D1F81432D1F81402D1F814126A
S214004C20E7E70E49D1F81832D1F8181203F00F034F
S214004C3001F0F001E6E7094BD3F81412D3F814029A
S214004C40D3F8143201F4FE4100F00F000143C6E72A
S214004C50FFFF00800080FFFF002000400080E00F84
S214004C603C4B984270B504460D4604D03A484FF483
S214004C7057710FF0C1FC0223A360AE7800223146C4
S214004C802046FFF785FF2A7969786879130243EA98
S214004C90016343EA0043E87843EAC003E87908B1D1
S214004CA043F00053287A08B143F00403A87908B10A
S214004CB043F00203687A08B143F00103F32A0FD1E8
S214004CC076B9032903D823F0706343F0806343EA80
S214004CD046132361666926F4F21626F007060CE0F2
S214004CE03106F4D543F0E0032361636923F4F2133D
S214004CF023F0070326F080061E432B7846EA434639
S214004D00EB7A0BB146F48046630103F18443A97A3B
S214004D1066619960630103F18443F32A03F5C8636F
S214004D200CBF012200221A60E36FD4F880201A42DA
S214004D3004D009484FF471710FF05EFCE36813F479
S214004D40406F06D0BDE87040034840F2C5310FF012
S214004D5053BC70BD0020004059960100104BB0F5C2
S214004D60FA4F38BF4FF4FA40984210B5044628BFB1
S214004D701C4619B90B4800F0BDFA0146631E0B44E9
S214004D80A342B3FBF4F028BF00F1FF307F2805D91B
S214004D90054840F213410FF02FFC7F20C0B210BD33
S214004DA00024F400404105005996010070B5384BC8
S214004DB0CD78984204460E4604D036484FF4BD716E
S214004DC00FF01AFC002D44D129463348FFF7C6FFE2
S214004DD005460A23A3603278737843EA0263B27802
S214004DE0120402F4FE022D02134305F4FE4543EAC4
S214004DF0050033790BB140F01000236875795A0727
S214004E0048BF40F0040020600FF04EFC23685D4071
S214004E1005F0C0055D4025600FF04AFC23681B06C0
S214004E2013D51E4800F066FA194B9C42054628D159
S214004E301B4800F05FFA05EB4505B0EB550F04D2B2
S214004E4014484FF4E2710FF0D7FB4FF4006323646D
S214004E5070BD23681906BCD4124800F04BFA6B1CD0
S214004E60B0FBF3F0B0F5FA4F05D240F28B110948CB
S214004E700FF0C2FBADE7084B9842AAD94FF4C671B3
S214004E80F5E704484FF4E1710FF0B6FB0020D2E7D7
S214004E9000200040599601000024F400B8003200BB
S214004EA0008204004041050038B50A238360154B94
S214004EB0036100254FF4F81345618561C561036001
S214004EC0114B4564036443F6E413056305624562CB
S214004ED08362D0F88C3043F00103C0F88C30D0F8F1
S214004EE0903043F001030446C0F890302A46294625
S214004EF0FFF74EFE294620460122BDE83840FFF760
S214004F0047BE00BF00FFFF00000F030308B528B927
S214004F10074800F0EFF9012838BF012000F574209B
S214004F20044B00F23F20B0FBF3F00138C0B208BDDE
S214004F304041050040420F000C4B984205D90C4BEF
S214004F40984210D80122012301E0002213460949A5
S214004F500B640949D1F8003123F0807343EA0263F9
S214004F60C1F8003170470222EDE700BF0048E801B3
S214004F700090D0030000C84300400E40044BD3F816
S214004F804421D20703D4D3F840211042FBD1704706
S214004F9000400E400A4B0B4998424A680BD90A4B10
S214004FA098420AD902F040724B6823F0407343EAF5
S214004FB002634B6070470022F6E70122F4E700BF69
S214004FC040787D0100000E40005A620238B5074C5A
S214004FD041F67133256C2364FFF7A2FBADB2FFF7F1
S214004FE0D9FF0DB10023236438BD00BF00000E407A
S214004FF038B5064C256C41F671332364ADB2FFF725
S214005000C9FF0DB10023236438BD00BF00000E4069
S21400501038B5C0F30323013B092B06D8DFE803F0BD
S2140050200C2E0505322924051C18BDE83840174803
S21400503041F6B0510FF0E0BA154DC0F3043405F157
S214005040424505F5801504EBC5008000016038BDBB
S214005050104DC0F30434F2E70F4DC0F304344FF4A0
S2140050608030FFF78BFFEAE7C0F304340B4D1020C7
S214005070F7E7C0F304340A4D0120F2E7094DC0F308
S2140050800434DCE7084DC0F30434D8E7B9960100D1
S21400509000400E4050410E40F0400E40E8400E40AA
S2140050A0E0400E40C0400E40B0400E4008B5C0F391
S2140050B00313013B092B4CD8DFE803F0050B0F194F
S2140050C04B4B1F23333F244BD3F80001C0F304207F
S2140050D008BD214BD3F81401F8E71F4BD3F8003175
S2140050E0C3F300630133012098400138F0E71A4B00
S2140050F0D3F80C01C0F30820EAE7174BD3F80801F1
S214005100F8E7164B984205D1134BD3F8203103F03D
S2140051100F03E8E741F6547111480FF06DFA0020CE
S214005120D6E7104B984205D10B4BD3F8283103F045
S2140051300303D8E741F67871EEE70B4B984205D1AA
S214005140054BD3F8300100F00F00C1E741F6877138
S214005150E2E741F6AC71DFE700400E40800616003D
S214005160B996010090071A00A009140000F00F007D
S214005170013808B507284BD8DFE800F00412214AAA
S21400518031354A3D2B4BD3F8940000F00700032836
S21400519005D0042843D002280CBF0420052008BDF3
S2140051A0244BD3F8800000F007000228F7D004282C
S2140051B039D0012808BF032018BF0120EFE71D4B98
S2140051C0D3F8843003F00703013B032B03D8DFE852
S2140051D003F00426282A0120E1E70320DFE7154B29
S2140051E0D3F88800DFE7134B1B6F13F0010F0CBFDB
S2140051F007200920D3E70F4BD3F85C3103F03003C8
S214005200202B12D0302B12D0102B08BF0720D3E74C
S214005210094842F201310FF0EFF90020BFE7022003
S214005220BDE70620BBE70A20B9E70420B7E7082059
S214005230B5E700BF00400E40B9960100284B9842E3
S21400524010B504460DD1FFF791FF264BD3F88440E6
S21400525004F00704042C3BD8DFE804F03F24283091
S2140052602C00214B984205D1FFF780FF1D4BD3F849
S2140052708840EDE71D4B984205D1FFF777FF194BA5
S214005280D3F88040E4E741F6131119480FF0B4F95B
S2140052902046FFF76BFF41F64211044614480FF014
S2140052A0ABF9D7E7BDE810400FF0BEB9BDE8104037
S2140052B0FFF7A8BABDE810400FF0B9B9FFF734FA07
S2140052C0084BD3F80031C3F300630133D84010BD58
S2140052D0074841F694110FF08FF90020F7E700BF5A
S2140052E00300200000400E400500240002001E00BF
S2140052F0B996010038B500F47813B3F5A01F05463B
S21400530056D020D8B3F5202F6ED00AD8B3F5003F7C
S21400531043D0B3F5802F35D0002B65D04FF4F7512E
S21400532068E0B3F5602F58D0B3F5801F00F080809A
S214005330B3F5402FF2D1FFF7F7F94C4BD3F8143101
S214005340C3F3042325E0B3F5001F3BD00FD8B3F515
S214005350D01F39D0B3F5F01F25D0B3F5B01FDDD17F
S2140053604348FFF76BFF414BD3F8203126E0B3F5F7
S214005370481F44D0B3F5781F6ED0B3F5101FCDD1BB
S2140053803C4811E0FFF7D0F9384BD3F80C31C3F3A3
S21400539008230133B0FBF3F038BDFFF7C5F9334BF4
S2140053A0D3F80831F3E73248BDE83840FFF746BF88
S2140053B03048FFF743FF2D4BD3F8303103F00F038F
S2140053C0D840E9E72C48EFE72B48FFF737FF274B95
S2140053D0D3F8283103F00303F2E72848FFF7C6FEA8
S2140053E0072825D0092803D1BDE83840FFF79CB927
S2140053F041F2D66122480FF0FFF80020CCE72148A2
S214005400FFF7B4FE0138072823D801A353F820F08D
S214005410FB53000053540000535400003754000060
S2140054205354000053540000315400003F54000011
S214005430154B1868B0E7BDE83840FFF7ABB9FFF783
S21400544073F90A4BD3F80031C3F3042303FB0000BF
S214005450A2E741F20D71CDE7FFF766F9044628464C
S2140054600FF01DF9B4FBF0F096E700BF00400E40C9
S21400547002001E00050024000300200006000E00A7
S214005480B9960100B800320038080020014B188099
S214005490704700BF4C09002038B50C4604287BD85E
S2140054A0DFE800F06403451B3000B1F5007F04D34D
S2140054B03D4842F6B4410FF09FF83C4AC4F3080456
S2140054C0D2F86838002BFBD1394A136A23F4FF73ED
S2140054D023F001032343136238BD7F2904D93248E1
S2140054E042F6C1410FF088F8304A04F07F04D2F843
S2140054F06038002BFBD12E4A136923F07F031C4330
S2140055001461E9E77F2904D9274842F6DC410FF009
S21400551073F8264A04F07F04D2F86438002BFBD1D7
S214005520234A936923F07F031C439461D4E7204DFC
S214005530D5F890305B0704D51B4842F6EC410FF0D7
S2140055405BF86B6A23F0300343F010036B62296B41
S214005550184BC4F3C31203320F2A03EA010328BF11
S2140055600F22234343EA02732B63B5E77F2904D94E
S2140055700D4842F607510FF03FF84F2C0B4A28BF54
S2140055804F24D2F87438002BFBD1094A936B23F0D2
S2140055907F03234393639FE7BDE83840024842F603
S2140055A015510FF029B800BFB99601000020C84376
S2140055B000400E4000F8FF0F022838B50C4604D015
S2140055C0134842F62D510FF017F8124D6B6A13F080
S2140055D0300F1AD0202C15D0302C16D0ACB10C4879
S2140055E042F648510FF008F80B4BD5F8902033EAF6
S2140055F00202FAD15B024ABFD5F8A0000120C0F330
S214005600802038BD4FF40003EFE74FF44003ECE78B
S214005610B996010000400E40FF03E107022808B5D6
S2140056200CD129B1094B4FF48060C3F8A800596625
S2140056304AB1BDE808400220FFF7BEBF044842F664
S2140056407E510EF0D9FF012008BD00BF00400E407D
S214005650B99601000428F8B51ED8324B13F800C0DE
S214005660314B1D5C314B33F81070314B33F8104022
S214005670304BC1B901211C66A940D3F890000842FE
S214005680FBD1002A48D001232A4903FA0CF3D1F8AB
S21400569090201A42FBD13FE0BDE8F840264842F68B
S2140056A0F9310EF0A9BF022837D15C6A14F0300F2A
S2140056B033D15C6AE40705D55E6A26F0300646F00C
S2140056C010065E621D4C1B4B25441F66AD002B6802
S2140056D0002BFCD002B36444A4002368002BFCD04B
S2140056E0022819D1C1B1134D696A11F0010116D013
S2140056F001222021FFF792FFD5F89C6001220021AD
S2140057000220FFF7A7FFC6F30A010220FFF7C4FE38
S2140057102F662368002BFCD0F8BD0021D2E7FFF7E8
S2140057204BFFE9E7339701002E970100249701000D
S2140057301A97010000400E40B99601008004F2104E
S21400574008B50C48FFF7F8FB012211460220FFF7C8
S21400575081FFFFF73BFC084B02225A67FEF7E4FF87
S214005760FFF7EAFBFFF704F8BDE808400021FFF763
S2140057703FBC00BF0148E80100400E4010B504469B
S2140057801120FFF7F3FC042804D1244842F67321C5
S2140057900EF032FF012200210220FFF75BFF237C80
S2140057A0012B04D11D4842F6B0210EF025FF1C4AFD
S2140057B0217C536A23F00103022908BF43F001034A
S2140057C05362184B2178C3F8A014936AE17A23F049
S2140057D007030B439362A188637A43EAC123D3622B
S2140057E0136BA07A217A03F07F630343E08843EAD1
S2140057F0C02343EAC11303310F2928BF0F2143EA10
S21400580001731363A37B617B1B0143EA0133E17BD6
S2140058100B43217B43EA0143536310BDB996010055
S21400582000400E400000C843C3B2212B10B504460A
S21400583004D908484FF44D710EF0DEFE6209064B9F
S21400584053F8220004F01F04E040C04300F00100BB
S21400585010BD00BF3897010000E100E01848194B62
S214005860C26C1B88C2F303222833013202EB82018A
S21400587003EB5303B3FBF1F3C16C013B072B28BFCB
S214005880072321F0EE6141EA036343F48013C36407
S2140058900D4BB3F90030002B10DB2833510801EB19
S2140058A0420203EB5303B3FBF2F3026D072B28BF50
S2140058B0072322F0700242EA03130365704700BF15
S2140058C000300E40F44F0020F04F00200A490379C4
S2140058D08A6922F03F021343027843EA8203427841
S2140058E043EA4203827843EAC203C278012A08BF29
S2140058F043F001038B61704700300E401A4B4AF6A6
S214005900E85210B5596B5A639A6FD407FCD41B6CD7
S21400591013F0030306D0154A01249842C2F8B44A8D
S2140059200AD110BD18B9114BC3F8B40AF9E701281B
S21400593002BF0F4B02221A700B4B9A6FD207FCD491
S2140059401A6C22F0030202431A649A6F12F00102E4
S214005950FBD10038054C18BF01200129C4F8B40A51
S21400596008BF5A63DDE700BF00300E400000C643A4
S21400597072500020A0F5E163B3F5966F2DE9F04173
S21400598007D940F6484160480EF036FE0020BDE8D4
S214005990F0815E4C5E4BD4F81872B0F5E16F1CD007
S2140059A0DD6CC5F301753C0E2E02C7F307474FF4B6
S2140059B0966C4FF4E16E01233343B3F5007F534EEC
S2140059C049D017D8B3F5807F42D040F2011843453E
S2140059D035D0CBB9D6F81C3218E0DD6CC5F30175AE
S2140059E0C7F307242E02FFB24FF4167C4FF4966ED0
S2140059F00023E1E7B3F5407F30D040F2013843455D
S214005A0023D0D6F8283201E0D6F82432C3F307268E
S214005A10DBB2A4EB0708A0EB0E0E0EFB08F8B8FBF3
S214005A20FCF84744A74207D8F41A0EFB04F4B4FB6C
S214005A30FCF41C44B44214D940F69641A3E7D6F8C9
S214005A4024321E0EC3F30743E3E7D6F82832F8E7FE
S214005A50D6F81C32F5E7D6F82032D7E7D6F820324B
S214005A60EFE772B12A4AD36DB0F5E16623F4FE4340
S214005A7018BF012623F0020343EA460343EA07233E
S214005A80D36509B9012082E7204BD3F80021D2B2B2
S214005A90032A07D8B0F5E16FD3F82C320AD0C3F347
S214005AA0072308E0022DD3F8303210D0032D11D092
S214005AB0012DF4D0DBB21B0313F4702F0CD040F68C
S214005AC0422111480EF098FD40F6A5415BE7C3F36E
S214005AD00743F0E71B0EEEE70D49CA6E22F470424C
S214005AE01343CB664B6E23F4FF7323F00103B0F52C
S214005AF0E16F18BF43F00103E72C28BFE72443EA11
S214005B0044034B66BEE700BF999701000081E00F93
S214005B1000300E401B4A08B5136FD16C11F0010F10
S214005B2003F0060315D0A3B1132829D91438132877
S214005B308CBF102308231348013BC26C190322F4C0
S214005B407F4241EA03231343C364BDE80840FFF7DE
S214005B5085BED16C01F00101194304D109280FD983
S214005B600A380928E4E7D26CD20702D50BB92728F1
S214005B70DEE7054840F6EB410EF03EFD0023DAE78F
S214005B800423D8E700300E40999701000C4BD3F859
S214005B90803910B5044633B9012804D9094840F6BF
S214005BA009510EF029FD084A136F23F0070323431B
S214005BB01367064BBDE810401888FFF7ABBF00BF61
S214005BC00000C6439997010000300E40F24F0020B7
S214005BD06F4B37B502229A639B6B03F00F03934219
S214005BE0044608D040F6D7216A480EF005FD002589
S214005BF0284603B030BD684BD3F81C32013300F0A2
S214005C00A180664BD96B9A6B1160596C1A6C116047
S214005C10D96C9A6C1160596D1A6D1160D96D9A6DB8
S214005C2011605A6E1B6E1A602389C82B04D9594816
S214005C3040F6E1210EF0E0FCA28823899A4204D9BE
S214005C40544840F6E2210EF0D7FCB4F90C30C82BCD
S214005C5004DD504840F6E3210EF0CEFC6378012BBD
S214005C6007D1A388C82B04D94A4840F6E7210EF08E
S214005C70C3FCE28842F210739A4204D9454840F6C3
S214005C80F4210EF0B9FCE2884A2A61D9B2F5FA7F0F
S214005C9060D340F6C3139A428CBF4FF040524FF089
S214005CA000523B4DB4F90C10EB6C23F0405323F03C
S214005CB001030029A8BF43F001031343EB64384BEC
S214005CC0A2881A80EB6E43F08073EB66354BD3F8F0
S214005CD0800900B10420FFF759FF2B6E23F0C04364
S214005CE02B66EB6C43F0060301A8EB6400F0AAFBFE
S214005CF09DF80500012811D19DF80430022B0DD81F
S214005D0029490B7853B96B6C284A43F001036B643E
S214005D102B6E1A40264B13432B660870254B2189A1
S214005D201980254BB4F90C20A0881A80FFF7F2FEE4
S214005D30A37B93B1012B1DD0164840F6F3110EF04D
S214005D405BFC0DE013484FF414610EF055FC6BE756
S214005D500022A6E74FF08052A3E70D4B174A9A653C
S214005D60012260881146FFF705FE054628B940F671
S214005D702B3139E7064B124AF1E7A37A094A003B72
S214005D8018BF0123C2F894376078FFF7B7FD2FE7F6
S214005D9000300E40999701000081E00F0080E00F70
S214005DA0F24F00200000C64372500020000F0EF095
S214005DB0B4C0400BF44F0020F04F0020774020572F
S214005DC0372110B7052838B504460D4605D80B4BC5
S214005DD033F81030CB40DB0704D409484FF4866113
S214005DE00EF00AFC30230C2113FB041303F18C4342
S214005DF0012203F52043AA401A6038BDBC98010072
S214005E00F9970100052838B504460D4605D80B4B12
S214005E1033F81030CB40DB0704D4094840F2014188
S214005E200EF0EAFB30230C2113FB041303F1884326
S214005E30012203F52043AA401A6038BDBC98010031
S214005E40F99701000528F8B504460D4616461F4684
S214005E5005D81C4B33F81030CB40DB0704D41A4867
S214005E604FF4B0710EF0C8FB26B129462046CFB1DC
S214005E70FFF7A8FF04EB4403072D4FEA03134FF088
S214005E800F0112D8A80006FA00F281400F48184405
S214005E900EF01AFCAEB92946204677B1BDE8F840A8
S214005EA0FFF790BFFFF7AEFFE4E7A5F1080080001C
S214005EB006FA00F281400648E9E7BDE8F840FFF739
S214005EC0A1BFF8BDBC9801005A98010004A000408C
S214005ED008A0004010B5044618B91C4891210EF0E1
S214005EE08BFB23781B0613F0784F03D017489221BC
S214005EF00EF082FBE378072B03D9144895210EF0A9
S214005F007BFB01214FF48A40FFF782F8B4F801309A
S214005F1022785BBA9BB243EA02630D4A1360002301
S214005F201362D36253634FF00043D3664FF0FF33E0
S214005F309366084A4FF48071C2F88011E3785B01DB
S214005F40DBB282F80833116010BD00BFC8980100AC
S214005F5000200E4000E100E02DE9F041C3B201262A
S214005F60072805460C46904606FA03F603DD384831
S214005F70DE210EF041FB1CB93548DF210EF03CFB5C
S214005F80236823F47C1323F00F031BB13048E4216D
S214005F900EF032FBA37A1B0413F47C0F03D02C48BC
S214005FA0E7210EF029FBE37A1B0513F07E6F03D082
S214005FB02748E9210EF020FB237B5B0513F0FE5FEC
S214005FC003D02348EB210EF017FB224F3022BE668B
S214005FD002FB05702368C0F88030637BC0F8883009
S214005FE0E37AA27A1B0543EA0243227B43EA425342
S214005FF0C0F8843028F00303C0F898300EF05BFB3E
S214006000FB6E3343FB66237A13B17B6B33437B63B0
S214006010637A13B1FB6A3343FB6223793A6823B190
S214006020DB431B0263F47F431A4063790BB142EAF9
S2140060300322A3790BB122EA0302E3791343054A4C
S2140060401360054B9E62D663BDE8F0410EF039BB87
S214006050C898010000200E4000200E4410B5C3B2C0
S2140060600124072804FA03F404DD094840F27B11F2
S2140060700EF0C2FA0EF01FFB064AD36E23EA0403A4
S214006080D366054B1C62BDE810400EF01ABB00BF7D
S214006090C898010000200E4000200E4410B5C3B280
S2140060A00124072804FA03F404DD0B4840F2991192
S2140060B00EF0A2FA0EF0FFFA084B1A6A224208D136
S2140060C09B6A9C430CBF012400240EF0FAFA20467B
S2140060D010BD0024F9E700BFC898010000200E405C
S2140060E0044B41F671321A649A6822F001029A60F3
S2140060F0704700BF00000E40034B9A6822F0010272
S2140061009A6000221A64704700000E40094A0A4B43
S214006110D969C90705D512B96FF002007047013A70
S214006120F6E7002AF8D001221861DA60D86940F351
S214006130800070478096980000000E4070B50546B7
S2140061400C4609B9002070BD134B1A68134B9A42CF
S21400615004D8134840F214410EF04EFA114A0023B8
S214006160082055F8231091610F49D0600133D66995
S214006170F60705D511B96FF00200E4E70139F6E736
S2140061800029F8D0D169890702D56FF00100DAE757
S2140061909C42E6D1D6E700BF080800203F420F0029
S2140061A08999010000000E40809698002DE9F0477E
S2140061B02E4C236C15461FFA83F8820741F671337E
S2140061C006460F46236404D0294840F261410EF08B
S2140061D013FAAB0704D0264840F264410EF00CFADE
S2140061E0A368AD0843F00103A3603AD1204840F20B
S2140061F071410EF001FA002032683B689A4224D0C2
S2140062003046FFF783FF00BB01213846FFF796FFB5
S2140062101BE0C4F30A04C4F50064A408A5EB0A0353
S2140062209C4228BF1C4621464846FFF787FF0028A9
S214006230E2D1A24409EB8409AA45DCD206EB8A0423
S2140062402046FFF763FF0028E3D0084B9A6822F049
S21400625001029A60B8F1000F01D000221A64BDE86E
S214006260F087B9464FF0000AE6E700BF00000E4090
S2140062708999010070B5274C41F67133256C23646B
S214006280C0F30A030646ADB223B1234840F2D74115
S2140062900EF0B2F9A36843F00103A3600123266160
S2140062A0E360E369580709D5A36823F00103A360F8
S2140062B00DB1002323644FF0FF3070BD0223E3606E
S2140062C0164A144BD969C90700D56AB9D96911F0BD
S2140062D002010BD09A6822F001029A600DB10022EA
S2140062E01A646FF00100E8E7013AEBE742B99968F3
S2140062F021F00101996005B11A646FF00200DCE735
S2140063009A6822F001029A600DB90020D5E7196458
S214006310FBE700BF00000E408999010080969800B8
S214006320014B01229A60704700500E40194BF0B5A1
S21400633000215D68184C194E194F0846D6F8E8C17A
S214006340626823681CF0040F0BD1B3F5006F06D00B
S2140063501DD8B3F5007F02D0B3F5806F01D142F4AB
S2140063608072D7F888C01CF4807F18BF22F01C0209
S2140063702B4202D02A4208BF18430131092904F1F2
S2140063800804DBD1C30348BF20F01C00F0BDB3F502
S214006390803FE3E700500E40EC9901000040E00F1C
S2140063A000300E40022838B504460D4603D9114881
S2140063B04C210EF021F96B791F2B03D90D484F2184
S2140063C00EF01AF9AB786A789B0143EA82032A78C2
S2140063D01343EA7843EA02132A7943EAC2236A7926
S2140063E043EA0233AA79043443EA42432401024AC8
S2140063F0135138BD349A010000200440014B186048
S214006400704700BF00008442437882789B0043EACE
S214006410021302781343C27843EA4213027943EA2E
S2140064200223427943EA0233827943EAC233C279CD
S21400643043EA0243027A43EA4243014A1360704742
S2140064400020044010B5044618B9104857210EF035
S214006450D3F80F4AD2F8E430D2F8E0109B0003F0ED
S2140064603C03C1F381110B43A370D2F8E03003F074
S2140064703F036370D2F8E830D2F8EC2003F0F00364
S214006480C2F303121343237010BD00BF959A010098
S21400649000FF0FE0024BD3F8F000D3F8F41070477B
S2140064A00081E00F024BD3F8FC00000E704700BFDF
S2140064B00081E00F044BD3F8E4301B0E0A3303F0E0
S2140064C01F030120984070470081E00FF8B507468B
S2140064D00C461D4616464AB9324840F255110EF093
S2140064E08BF824B1402D08D1062327E019B92E4891
S2140064F0FEF700FF0446402D42D0402D09D87DB15E
S214006500202D17D0BDE8F84026484FF4CE710EF087
S21400651073B8602DF6D1B6EB940F3CD804230DE08B
S214006520B6EB141F04D91F4840F287110EF064F82A
S214006530102303E0B6EBD40F1CD808235E43730881
S21400654003EB4413B3FBF6F3184E203BB6EBC30F36
S2140065504FEAC30404D2134840F2B3110EF04CF8CD
S2140065603B6823F060033B603B6834401D433D605E
S2140065707C61F8BD0B484FF4C6710EF03DF8DCE7C1
S2140065800623B4FBF3F3B342AED2064840F29111B1
S2140065900EF032F8A8E703484FF4CB710EF02CF853
S2140065A0BCE700BFF89A010040410500F8FF7F00F5
S2140065B038B50A4B984204460D4608D003F580636A
S2140065C0984204D006484FF439710EF015F8EB43A4
S2140065D05B0003F00A03E360E56038BD000001409D
S2140065E0F89A0100164B984210B5044608D003F5F9
S2140065F08063984204D0134840F25E410DF0FCFFE1
S21400660040F6AA63E36041F205020023236062605D
S2140066100D4AA3606361E364A264094A2366944258
S2140066206367A367E36705D002F58062944203D0F0
S214006630A36510BD2365FBE72365A365E365F8E75F
S21400664000000140F89A0100F9FF010038B5254B1B
S214006650984204460D4608D003F58063984204D05D
S214006660214840F215310DF0C7FF2046FFF7BAFF6C
S214006670AB7C1BB1236843F080432360EB7C1BB1EB
S2140066802B7D43F08003A3652A8A6B7B1343EA893C
S214006690134363602B7BD5E901122046FFF716FFF4
S2140066A06B7D1BB1236843F480332360AB7D1BB145
S2140066B0236843F400432360EB7D2A7E1B07120504
S2140066C002F4E00203F0E04313432366636F23F013
S2140066D030036367626F6B7E134363672B78E360F8
S2140066E038BD00BF00000140F89A010038B50446E6
S2140066F012F07FFA0FCC044D0FC594E80F0085E822
S2140067000F00002038BD00BFF029002047F6FF73B9
S2140067109A42F0B572D0062972D83A4B5B5C022BCF
S2140067206ED8394D05EBC304DF00A17815F8333079
S214006730012938BF0121012B13D1E0780025401A2A
S214006740A84202D80844C0B2F0BD431BA0EB5303D6
S214006750666836F913609642CCBF03F1FF301D46DB
S214006760EEE760680028EFD0B0F90040944204DB02
S214006770B0F902409442B8BF14468388FF2B04BF8A
S214006780B0F90620B0F908C03D440FBF0126002628
S214006790C8224FF0280C131B93FBFCF333446E788F
S2140067A01BB29E4201DD002B01DA731E1BB20133C1
S2140067B09BB24FF47A7C071D5D1E2DB24FEAC50EC4
S2140067C000EBC5059E42EA88AD6814FB025222EA39
S2140067D0E27202F15C02B2FBFCF205DD37F83350E0
S2140067E0954203F10103E7D200EB0E03988890422E
S2140067F028BF1046884238BF0846A4E7FF20A3E714
S2140068000020A1E75A9B0100F02900200629F0B5D8
S21400681061D8324B595C02295DD8314B13F83100F0
S214006820012816D103EBC1039C78D8785B68012C4D
S214006830214638BF0121904294BFC1EB0001C1EB55
S2140068400201CAB2001B8242C8BF002233F91200FE
S214006850F0BD002A3DD003EBC103596800293AD0A9
S2140068609878904202D3B1F90200F1E7DC78B1F9EA
S21400687000009442ECD95C788B88A3F1FF06013CBB
S214006880734201F10405E4B2734101F10C07DEB274
S214006890B44216D805EBC3034FF47A75B3F9024039
S2140068A05B686A43D21A04EBD47302EB630292FB72
S2140068B0F4F29042CCDBB1F902009042C8DC10B290
S2140068C0C6E737F833C0944503F10106E2D33346F2
S2140068D0DDE70448BCE70448BAE700BF5A9B01005E
S2140068E0F02900200CFEFFFF0080FFFF08B50448DB
S2140068F0FFF7FCFEBDE80840012012F09DB900BF7E
S214006900649B0100004870474E09002030B587B0F0
S2140069104FF4F8130193FF220023CDE90333054615
S214006920ADF8083005938DF811200C46002938D1B3
S2140069301E4A1F4B0121C0E900231E48FEF768FBD4
S21400694001216868FEF764FB2046FEF7DFFA214661
S2140069508DF806001848FEF701FA01A98DF8070021
S21400696028688DF80540FEF721FA8423ADF80E302E
S2140069704FF6FF732868ADF8103003A901238DF891
S21400698012308DF80D40FEF76BF92B685A6922F429
S21400699070625A615A6942F480725A61204607B0A2
S2140069A030BD03606FF03B00F9E700BF00200040F9
S2140069B00082040040410500404B4C00094A08B5DF
S2140069C00346106850B1027A9A4209D190F85030C6
S2140069D02BB9054840F626410DF00EFE002008BDF6
S2140069E00068EFE7442A00201C9C010038B50546E5
S2140069F00DF061FE291D04460348FDF7E3FD204621
S214006A00BDE838400DF05DBE402A00202DE9F34178
S214006A10064608460F469046FFF7D0FF019000282E
S214006A203FD101A802F040F90446002835D1019D67
S214006A3040F20113AB81022385F850306881E87379
S214006A40286085F809802F72642003F0DDF86861FD
S214006A50019890300DF0D1FD019894300DF0CDFDE9
S214006A60019898300DF0C9FD01989C300DF0C5FDD9
S214006A700198A0300DF0C1FD01990B48FDF7A2FD6D
S214006A800A490948FDF7E4FD0DF015FE0123B36041
S214006A90019B377133600DF014FE204602B0BDE84E
S214006AA0F0811224F9E700BF442A0020D7480100ED
S214006AB038B5837B04460D4623B1134840F2F37184
S214006AC00DF09AFD25620DF0F6FD214605460F48AD
S214006AD002F008F928460DF0F4FD0D490D48002295
S214006AE001F01CF82269B2F874304FF6FF718B4241
S214006AF006D1BDE83840044840F2FD710DF07CBD7B
S214006B000133A2F8743038BD1C9C0100342A0020E2
S214006B10196B0000202A00202DE9F843324F4FF071
S214006B2002084FF000093B680BB9BDE8F8830DF08A
S214006B30C2FD0646384602F063F8056995F85030FF
S214006B4004464BB930460DF0BCFDBDE8F843274877
S214006B5040F296710DF050BDB5F87430002BF1D0B0
S214006B60013BA5F8743030460DF0ABFD237B206961
S214006B707F2B4FEA931222D9032A06D1066F26B13D
S214006B80236AA2696168007AB04795F85030062BF0
S214006B9017D0082B15D0032B0BD128460DF0B8FEC6
S214006BA038B16B7A85F85080DB0602D52846FFF7A9
S214006BB01DFFC4F80490204601F02AFFB3E7466E96
S214006BC0DDE728460DF08EFE0028F2D0287A0EF07B
S214006BD015F918B1092385F85030EAE795F85030D2
S214006BE0062BE6D10723F6E7342A00201C9C01007A
S214006BF0F7B5074601A80E4614461D4601F072FF7B
S214006C00C0B9019A5368567364F06F041473176121
S214006C101D70019B012158680EF095F8019B588164
S214006C200DF049FD01990446034802F05BF8204642
S214006C300DF047FD03B0F0BD3C2A0020F8B50B7BF5
S214006C407F2B04460E464FEA931709D90DF033FD05
S214006C50032F054618D1A37BB3B90123A3730AE01B
S214006C600DF029FD637B05461BB904F19C003146F7
S214006C7003E0013B63730648314602F033F82846CA
S214006C80BDE8F8400DF01DBD04F1A000EFE700BF21
S214006C903C2A00202DE9F7439046002206460F4680
S214006CA001A8114699460EF08EF8054678B919F0F7
S214006CB00E0F747A019826D0A3070CD401F0A8FE14
S214006CC020B140F6B6412C480DF096FC212528460A
S214006CD003B0BDE8F08319F0020F1ED119F0040FBF
S214006CE01ED119F008041DD1224696F85030052B07
S214006CF01CD001F08DFE20B11F4840F6CC410DF0AF
S214006D007BFC0225E3E714F001040DD001F080FEC1
S214006D100028DBD040F6C541D5E72C462A46E4E7F6
S214006D200424FBE70E24F9E70122DEE74760A0F81B
S214006D3008800661337A43730A9B8361BAB1B27ADC
S214006D40F17A1301DBB20B43C9F30019013243EAAF
S214006D50C90302F007020373B272414638460DF0CB
S214006D60F2FF019948813046FFF768FFAFE764F00D
S214006D703F040473F1E700BF1C9C010013B50446F2
S214006D80052101A801F026FD88B9019B1C61227A25
S214006D905A73E27A62F07F021A730DF08CFC019946
S214006DA00446044801F09EFF20460DF08AFC02B01F
S214006DB010BD00BF3C2A00202DE9F041044620B952
S214006DC0194840F6DF710DF017FC0DF074FC04F165
S214006DD098080646404601F013FF054620B930469F
S214006DE0BDE8F0410DF06DBC877B27B101464046FB
S214006DF001F0B4FFF3E704F1300002F09DFE3046E8
S214006E000DF05FFC286801F0B9FD2F600DF053FC13
S214006E1029460646054801F0A1FF237C013323746A
S214006E20E37B013BE373DAE71C9C01003C2A00206D
S214006E302DE9F04104460DF03EFC434B1D68074625
S214006E40D5B904F1300002F077FE404B1D688DBBCB
S214006E50A04658F8986F002E54D12674264656F849
S214006E609C5F002D62D154F8A05F002D65D1384696
S214006E70BDE8F0410DF025BC15F81C2C55F8183C63
S214006E807F2AA5F128004FEA92162D6809D99C4260
S214006E90D6D12D490DF05AFD032ED1D10023A37370
S214006EA0CEE79C42CCD128490DF050FD637B0133E0
S214006EB06373C5E715F81C3C55F8186C7F2BA5F1D5
S214006EC028004FEA93182D6811D8B442BFD11F4945
S214006ED00DF03CFD627B237B9A4204D31C4841F2B2
S214006EE0E7110DF089FB737B01337373AFE7B44290
S214006EF0ADD116490DF02AFDB8F1030FA7D1002336
S214006F00A373A4E73546404655F82869294601F09C
S214006F10AFFEAB7B33B9637B013363733321284603
S214006F20FFF7C6FDE37B013BE37394E72846314653
S214006F3050F828590DF00AFD93E72846214650F8E8
S214006F4028590DF003FD90E73C2A0020302A002047
S214006F501C9C0100F8B51B4E0A27336803B9F8BD20
S214006F600DF0A9FB0446304601F04AFE05462046D1
S214006F700DF0A7FB2B7F2C6923B100212846FFF7D5
S214006F8097FDEAE7294604F1980001F0E7FE237C26
S214006F90092B05D984F8507020460DF011FDDCE76A
S214006FA065696D00656141F2883002F02DFE85420C
S214006FB004D941F2883002F027FE60612046FFF7D0
S214006FC0FBFECAE7302A002070B50C460DF073FBB6
S214006FD02669054626B9114841F2AB210DF00CFB97
S214006FE006F1980001F00CFE844204D00B4841F2F2
S214006FF0AF210DF001FB06F1300002F09DFD2146A9
S214007000074801F06FFE07490748002200F086FD9A
S2140070102846BDE870400DF054BB00BF1C9C010024
S214007020302A0020556F0000102A002070B5044654
S2140070300DF041FB2568034635B16A7AD20616D4B0
S2140070400DF03FFB0F2070BDA268012A22D8A56074
S2140070500DF037FB2079FFF7B1FC0028F3D090F84D
S2140070605030023B012B8CBF1F200020EBE7A268AC
S214007070012A0FD80026A6600DF023FB95F85030A5
S214007080023B012B0BD80B4840F202410DF0B4FA3C
S2140070900120D8E718460DF014FB0420D3E70121A1
S2140070A028460DF09BFC10B1052808BF002026607E
S2140070B0C9E700BF1C9C01000C292DE9F0410546DC
S2140070C00C4616461F4604D9064840F22E410DF0DF
S2140070D093FA3B46324621462846BDE8F0410DF07D
S2140070E044BD00BF1C9C010013F0040F2DE9FF41B6
S2140070F005460F461646984604D0174840F2D25129
S2140071000DF07AFA03A928460DF03AFC044670B949
S214007110F7B1FEB1114B1B8840F6F772002B08BF83
S21400712013469E4207D928460DF005FC2B24204620
S21400713004B0BDE8F0810A9B0093039843463246AC
S2140071403946FFF7A7FD044628460DF0F4FBEEE7A8
S2140071502224ECE72124EAE71C9C0100F64F0020DD
S21400716010B5FFF72BFC044678B190F85030073B7B
S214007170012B0AD80DF0B6FB20B9044840F2BB61DB
S2140071800DF03AFA092384F8503010BD1C9C01001B
S21400719018B9024A137801331370704776500020EE
S2140071A0F7B503681B797F2B04464FEA93170FD871
S2140071B00DF081FA26690546AEB928460DF081FA2B
S2140071C040F61F012E4803B0BDE8F0400DF014BA9B
S2140071D00DF071FA26690546B6BB022FEDD12046A2
S2140071E001F016FC20E0277F2FB1002121772046F2
S2140071F0FFF75EFC18E096F850000DF0DBFBF0B1F0
S214007200204601F005FC042814D1CDE900771D4A7C
S2140072107169234606F130000DF046FE20B140F6B7
S214007220310117480DF0E8F9284603B0BDE8F040F4
S2140072300DF047BA0028F7D040F63701F1E7737B28
S214007240013373733321D2E7032FC8D1B37B23B93D
S2140072500DF037FA40F64201B4E70021B17320463C
S214007260FFF726FCD6F8A030002BDDD006F1A000F4
S21400727001F0C6FC01463046FFF7E0FCD4E700BF4D
S2140072801C9C0100C96F0000024A1378013313707A
S214007290704700BF765000202DE9F04F854B8FB029
S2140072A01B7807930693069B002B47D10DF003FA35
S2140072B0804A07991378804FDFF80C825B1A1370A8
S2140072C00DF0FFF901F08EFF3B6813B9D8F80030D7
S2140072D053B301F087F938B33B682BB30DF0EBF9E5
S2140072E00546384601F08CFC044628460DF0E9F9C0
S2140072F024B9724841F29C010DF07EF9237B2046AA
S2140073007F2B4FEA931698BF002601F0BDFA00289F
S21400731000F002830DF0CFF921460546664801F0DD
S2140073201DFD28460DF0CDF9654D2B68002B40F06D
S21400733037830FB0BDE8F04F00F01EBC0AA801F07E
S2140073400BF90590002840F041820A9B18685D4BB7
S2140073505B7863B9B0F8052005210DF001FD20B17A
S2140073600A9B1B681B78142B01D00A98D9E10A9B4C
S2140073701A685588167992F80180B5F5817F2A46F5
S21400738028BF4FF481727F2E4FEA96171A81404627
S21400739017D8FFF713FB0446D0B190F85030042BF3
S2140073A01DD0002794F8503018460DF003FB18B196
S2140073B0082B3DD1022F16D0052300224146204639
S2140073C00AE0FFF7FBFA04460028EBD1022FCCD0E8
S2140073D00022052341461046FFF70AFCC5E70021B8
S2140073E00DF0C0FADDE70A9B1C611B7D53B90DF05A
S2140073F062F9D4F89830089006F00709002B44D1BB
S2140074000DF05FF90A9B1B7D4BB12046E27A4146A0
S214007410FFF7EEFB0A980023037501F0F9FA002D3A
S21400742000F04F81022D00F231810623E27AC5E793
S2140074300A9BFA071C61D8D51B7D002BE5D1002DD1
S214007440F0D10025022FDDF8288040F0ED8116F0FF
S214007450300FC6F3011300F06381012B40F0C681A4
S214007460012D04D0154840F609710DF0C5F8D8F87E
S21400747004301B78013B042B00F2BE81DFE813F0DA
S214007480AA0150015001CF01CA0153F8283CE27B03
S2140074901B79C3F30213591C1A4401F0070102F0CA
S2140074A00702914212D8894501D3914512D908980E
S2140074B0A6E700BF765000203C2A00201C9C010056
S2140074C0402A002073500020382A0020914501D918
S2140074D0894595D399459BBF09F10809A9EB03098E
S2140074E0A9EB03035FFA89F34FF0000988BFDBB20C
S2140074F084F81090099302F06DFBD4E90632C01AA6
S214007500B84B61EB02011A78002A79D0C4E9080169
S214007510400840EAC1704908C4E90A0183F80090AF
S2140075200520D4E90AA902F06FFB824579F100092B
S21400753005D2052002F068FB0023A062E362D4E9CE
S2140075400A324FEA820949EA93794FEA830BD4E973
S214007550082341F288301BEB020B49EB030902F0CB
S21400756053FB0023584573EB090304F1300A7DD220
S21400757041F2883002F048FB6061504602F0DCFAC7
S214007580DFF864A204F19809484601F039FB834607
S21400759020B940F6D45150460DF02EF89BF80E1048
S2140075A000296FD15846FFF783FA637B099A0133A7
S2140075B06373E37B013BE373059B013305939DF8FF
S2140075C014309342E0D308980DF07BF804F19C0A3F
S2140075D0D4F89C30002B3FF415AF637B002B3FF4B0
S2140075E011AF0DF068F88146504601F009FB83465E
S2140075F048460DF066F859462046FFF71FFBE7E7BA
S214007600D4E9083A83427AEB0102D4E90A294FEA20
S214007610920242EA8972B4BFA0EB030CA3EB000C03
S2140076204FEA990912EB020E49EB090B4FEA9C0C44
S2140076301EEB020E49EB0B0BDB081EEB0C024BF1AC
S214007640000B43EA4A734FF0070CC008C4E90A2B44
S2140076504FEADA0AA3FB0C2340EA417012180CFB2F
S2140076600A3343EBD103C4E9082359E7052002F0A7
S214007670CBFA834579F1000901D205207AE7C4F8F0
S21400768014B07AE701238BF81C308EE70A9B5B6800
S21400769023B9554840F65F510CF0AEFF0A9A506881
S2140076A0AB1E9DB210FA83F329465A78435D43EA2F
S2140076B002220DF055FB98B9002F7FF456AE012339
S2140076C0B4E6DDF82880002F7FF4BBAECDE90B557D
S2140076D00D95637AE27AD80713D50623217A34E02B
S2140076E0DDF82880002F7FF4ADAEB5F5807FCDE9BC
S2140076F00B770D97EDD93C4840F662610CF07CFFA5
S214007700E7E7C6F3021090420ED0531E984204D00C
S2140077100AB9072801D00223E0E72046FFF72EFB30
S214007720404601F075F951E031070AD42A4604F1C3
S2140077309001404601F004FA00283DD0E27A032387
S214007740CCE7217A29B1062302462046FFF750FAF5
S214007750E6E7A66D56B10DAB02930BAB01930CABEF
S2140077600093D8F804202B460846B047D8F8040003
S21400777001F0F4F80023C8F80430404601F048F958
S214007780E37A013303F00703E3722046FFF7F6FAC5
S2140077900C99C1B10B9AB2B10D9B009392B2112312
S2140077A02046FFF777FA88B1656E7DB10C993323D2
S2140077B00022207AA84709E0A36E002BE0D0E16EF5
S2140077C0207A9847DCE7084601F016FB069B013B4B
S2140077D0DBB267E5D4F89830002BA1D02046FFF73F
S2140077E0EBFA9DE75E0900201C9C0100904840F6DD
S2140077F031710CF001FF93E7404601F009F90C25C2
S21400780004F1300002F098F984F8505020460DF04C
S214007810D7F8DBE7404601F0FBF80A25F0E74046DC
S21400782001F0F6F80B25EBE70023CDE90B33637A7E
S2140078309A077FF575AF16F0370619D15B073FF547
S2140078406FAFB8F808307BB12A4604F19401404681
S21400785001F076F900287FF463AFA36F002BB5D054
S214007860E16F207A9847B1E7404601F0D1F8F4E797
S214007870042E37D1A66D002E32D00DAB207A02939F
S2140078800CAB01930BAB00930321D8F804202B46D6
S214007890B0470B99D1B10C9AC2B10D9B009392B22E
S2140078A005232046FFF7F6F90546404601F0B0F8F6
S2140078B00B9900298AD00C9B002B87D0002D85D0F1
S2140078C0256F002D82D03323002272E7584840F6F9
S2140078D07B710CF091FE0B9801F08EFA00230B934F
S2140078E00125E2E7312E7FF41BAF404601F090F809
S2140078F0227A002A7FF46AAF628109230092114639
S2140079002046FFF7C7F900283FF460AF484840F626
S2140079109A710CF071FE59E722890AB1023292B2CE
S21400792036B92369217BDB7A21F007010B432373E9
S2140079300120237B617B009020680DF02DFA0CF06F
S214007940BAFE0546204600F025FE48B139482146D5
S21400795001F004FA206801F011F800232360E0E447
S214007960206950B9022E17D028460CF0AAFE3048DF
S21400797041F22A110CF040FED6E46EB9214698304A
S21400798001F0B0F92469E37B0133E373237C1BB970
S21400799002F020F9C4E9060128460CF092FE93E4B2
S2140079A00CF089FE06462846FCF72EFE04463046B6
S2140079B00CF087FE1E4FDFF8808094F84C30022BC8
S2140079C0A4F1040614D041F28D1138460CF014FED2
S2140079D00CF071FE06462846FCF716FE04463046B6
S2140079E00CF06FFE41F2541138460CF005FE1CE018
S2140079F030460CF08DFF0028EAD004F12C0002F08F
S214007A009BF8002386F8503031464046FCF70CFEC3
S214007A10304601F05FF90CF04EFE06462846FCF7AD
S214007A20F3FD044630460CF04CFE002CC5D180E435
S214007A301C9C01003C2A0020442A002010B5244843
S214007A400CF0DBFD23480CF0D8FD23480CF0D5FDE8
S214007A5022480CF0D2FD22480CF0CFFD00F052FE7A
S214007A6020480DF08AF920B11F4840F6C2010CF0FC
S214007A70C3FD00F081FC044630B140F6C6011A484A
S214007A800CF0BAFD204610BD00F016FD044610B1FD
S214007A9040F6D901F3E70DF0A9F9044610B140F617
S214007AA0DF01ECE70DF064F9044610B140F6E6019C
S214007AB0E5E701F06FFC044610B140F6EC01DEE7A6
S214007AC00A4800F01DF80A4800F01AF8DAE700BF86
S214007AD0442A0020402A00203C2A0020382A002081
S214007AE0342A0020735000201C9C0100202A00200D
S214007AF0102A0020014B1880704700BFF64F002068
S214007B0010B5044618B904482A210CF075FD002368
S214007B10C4E90133237310BD829C0100F8B5044606
S214007B200F4616460CF0C7FD237B05461BB10CF02E
S214007B30C8FD0420F8BDC4E901760C4E0C48214669
S214007B40FCF750FD3378FF2B03D10A4845210CF093
S214007B5053FD3378013333700123237328460CF02A
S214007B60B0FD0320FFF714FB0020E3E7775000206A
S214007B70482A0020829C01002DE9F047134EDFF8CA
S214007B80509037784FF000083D460CF094FD824642
S214007B904846FCF739FD044650460CF092FD44B1C9
S214007BA0D4E9013084F80C80013D984715F0FF05B4
S214007BB0EBD10CF080FD3378BB4226BFDB1BDBB27B
S214007BC000233370BDE8F0470CF07BBD77500020F3
S214007BD0482A00202DE9F04385B00CF06CFD264FB6
S214007BE0264C06463868FCF7C5FE23782BB130468F
S214007BF005B0BDE8F0430CF064BD03A800F056FEE7
S214007C00814638B10123237030460CF05AFD05B08A
S214007C10BDE8F0831A4B1B4D1C88DDF80C80013C38
S214007C2001461022A4B2284610F0B6F9C4F30A049E
S214007C302A68154B15492401134044F044741C432C
S214007C402C60134B134CC5E901382560CDF8009025
S214007C50114B38682A46FCF767FE20B10F4840F6FD
S214007C6093010CF0C9FC23681A884FF4847161F301
S214007C700E121A80C8E700BFF82A00208A5000209B
S214007C80F84F0020B42A00200F80EFFCE42A0020E2
S214007C901C000140B02A0020FD7F0000F39C01007C
S214007CA070B5134D06460CF006FD2B88072B0446D0
S214007CB009D910484FF431710CF09EFC2046BDE8FF
S214007CC070400CF0FEBC0C48314601F065F82B887D
S214007CD001332B80094B1A78002AEFD000221A7045
S214007CE0074B1B78002BE9D1FFF774FFE6E700BFD0
S214007CF0FC4F0020F39C01006C2A002089500020D5
S214007D008A5000202DE9F0438A42A2EB0105DFF8F5
S214007D101C813D4E85B0074689461446ADB239D81B
S214007D203A4840F61A010CF067FCA8F8005067B90C
S214007D3003A800F0BBFD48B13068FCF71BFE344BCF
S214007D4001221A7005B0BDE8F0830397039B03EB8E
S214007D500904304B10220021184610F01DF9013D91
S214007D602D4AC5F30A052D01C0E9012445F04475E6
S214007D7005600023294A00931268294B2949306878
S214007D80FCF7D2FD0028DDD0204840F639010CF083
S214007D9033FCD7E7A8F80050A0BB03A800F086FD88
S214007DA00028C9D1B4F5006F039FCFD9194DDFF86D
S214007DB068800D220021284610F0EEF8C9F5FF6312
S214007DC007339BB2184AC5F804801B0143F0407382
S214007DD01A402A6007EB09031022AB600021132328
S214007DE0A818EB6010F0D8F86FF400631C44C4F3D6
S214007DF00A04240144F0447407F50067C5E9044802
S214007E00AF61B6E70390CDE7F82A0020F39C0100A7
S214007E108A500020B42A00201C000140B02A00200E
S214007E20FD7F0000E42A0020F07F0003F84F0020CA
S214007E302DE9F74F0CF03FFC544B1B68242B804673
S214007E40A3F1240705D10CF03CFC1B2003B0BDE8D1
S214007E50F08F53F8249C3D89B9F1000F06D14C48A9
S214007E6040F2E9210CF0C8FB0120EFE7494CDFF8AF
S214007E7044A1494E002D7FD00D220021204610F04F
S214007E808BF8C4E900A9B5F5006F4FF01309A6609A
S214007E90C4F80C9042D80D22002104F11000D7F847
S214007EA004A0013D10F078F83C4A3D4BADB242EAE2
S214007EB005121340C4E9043AC4E90669022504EB36
S214007EC005194FEA051A10220021484610F064F8FA
S214007ED00A37344B44F80A30C9E90176002304EB2C
S214007EE00312013391786FF304119170DAB2AA424B
S214007EF0F5D92D4A2D482E49002313700093254AA4
S214007F000068FCF711FD20B1214840F236310CF034
S214007F1073FB40460CF0D5FB002097E7B5F5805F75
S214007F2025D8D7F804A0DFF878B00D22002104F198
S214007F30100010F031F80D22002104F12000C4E9F1
S214007F4004BAC4E9066910F027F86FF400631D440C
S214007F50124BC4F82C90ADB243EA051303EA0B03A8
S214007F6023620AF50063C4E909360325A7E74046FD
S214007F700CF0A7FB212069E710222946204610F0C6
S214007F800BF8C4E900A9A660A8E700BF642A002091
S214007F90F39C0100702A00203400014000001030DD
S214007FA0F07F1030100010305F090020F42A002007
S214007FB0D42A00206000103070B50CF07CFB04461C
S214007FC00C480D4D0B4E00F037FE20B92046BDE89C
S214007FD070400CF076BBFFF7E3F820460CF071FB20
S214007FE00CF069FB2B880446013330462B8000F0EA
S214007FF023FEEAE7602A0020FA4F00202DE9F04F22
S21400800085B0002303930CF056FBB74B1C688046E4
S21400801024B9B64840F20A610CF0EEFADFF8009395
S214008020D4F808B099F800203AB1B1490A78ABEB19
S214008030020B00220A7089F80020AE4B1F78002F32
S2140080403DD0AD4EDBF800203260BBF80420B28095
S2140080509BF80620B271073E0024354616F8012F1D
S214008060142A04F1010410D0A4B2072CF6D1DBF8D0
S21400807000202A60BBF80420AA809BF80620AA717C
S214008080584600F02DFC22466AE1B6F80520052188
S21400809030460CF065FE0028E6D0A7B215FA84F448
S2140080A0EA59CBF80020A288ABF80420A279914BBD
S2140080B08BF8062000221A70012289F80020DFF8CB
S2140080C064A28E4C9AF80050002D00F0FD80894B7B
S2140080D01A7822B1854840F23C610CF08DFA0CF01B
S2140080E0EAFA87490A880646AAB9864A0121117023
S2140080F0854A1068FCF73EFC30460CF0E2FA002297
S2140081005846226000F0ECFB40460CF0DAFA0020FD
S21400811005B0BDE8F08F7D4800F08EFD784928B99F
S214008120724840F2B2210CF067FAE5E70090088842
S2140081300138088030460CF0C4FA009A226099F89C
S21400814000206AB99BF80020142A40F0ED80BBF8A6
S2140081500520052158460CF003FE002800F0E480B8
S2140081602268BBF8021011811268DBF8001011605B
S214008170BBF8041091809BF806109171584600F0E9
S214008180AFFB2168624E0A89002A5DD101238AF876
S2140081900030072299F800103280002900F0928003
S2140081A003A800F083FBDFF84891002878D13388D5
S2140081B0C7F1070B5FFA8BFBFA1D9B4589F800B0E9
S2140081C000925AD323681B8923B9484840F2796144
S2140081D00CF012FA99F80030328803989B1A89F846
S2140081E000304C4BF91D19440FF04FFE236823B99D
S2140081F03E4840F282610CF0FFF9236899F80010BF
S214008200039A5A60002934D003A800F04FFB0028D8
S2140082104BD1318899F800503E4B039807313944CA
S2140082202A4619440FF031FE072203983280294669
S214008230FFF768FD01238AF800302168364800F011
S2140082406FFDFFF721F85FE73388B3F5817F0CD920
S21400825006230B75304800F063FD0025FFF714F881
S21400826001238AF80030256093E700258AF800503D
S21400827090E7072232800846DAE701932549009BFB
S214008280039811FA83F15A460FF0FFFD019B0398FD
S2140082901A465946FFF736FD002D3FF435AFCCE7BA
S2140082A0124840F2AB610CF0A7F9174B1868FCF7C0
S2140082B061FB002389F8003007233380174B012227
S2140082C01A7021E70846E5E7226822B907484FF406
S2140082D0D8610CF091F922680D4BC2F804B0072261
S2140082E01A800021C7E700BFB02A0020F39C0100D7
S2140082F087500020865000207F5000204C2A002007
S214008300FC4F002089500020F82A00206C2A00200C
S214008310F84F002078500020682A00208A5000205D
S214008320885000206009002099F8002022B10F48EC
S21400833040F249610CF060F90D4ADBF8001011605C
S214008340BBF8041091809BF806109171584600F017
S214008350C7FA2068FFF7A4FC064A01231370072219
S21400836000210846FFF7CEFCCEE600BFF39C0100D6
S214008370785000208650002030B54348434D89B0E1
S2140083800121FCF745FE42480121FCF741FE414829
S2140083900121FCF73DFE0021084601230422FDF7DB
S2140083A051FD0123194602220020FDF74BFD002354
S2140083B0184602220521FDF745FD0023042211463A
S2140083C01846FDF73FFD0FCD01AC0FC495E807003A
S2140083D084E80700304C012300258DF81D3001A9E4
S2140083E04FF4E123204603938DF80450FEF72EF950
S2140083F005212046FEF7DCF84FF44063E3600323D4
S214008400A567636741F61E63E367636E43F0040384
S2140084106366636F43F030036367FCF74FFA38B167
S2140084201E4B984204D01E4840F289110CF0E4F826
S2140084301C480021FCF7ECF920B1194840F28F11D6
S2140084400CF0DAF818480021FCF7E2F940B1154BB9
S2140084501868FCF70DFA124840F295110CF0CCF8AB
S214008460124A13494FF440231360124B0020196040
S2140084700121C2E90100C3E90100D060D860517251
S214008480597209B030BD00BF40410500649D01002F
S21400849000250A000022040000000140038000F0CE
S2140084A0F39C0100F82A0020F42A0020E42A002089
S2140084B001000C00D42A002013B51D480CF09DF8CE
S2140084C01C480CF09AF81C480CF097F81B480CF067
S2140084D094F81B48FFF714FB082401A800F05CFA88
S2140084E040B118484FF4DD710CF086F81924204688
S2140084F002B010BD0198FFF7D3FB013CEDD1124B43
S21400850008221A80114B4FF480521A6010484FF41C
S2140085104063C3604FF0FF338364C36C43F00103D2
S214008520C3640521FEF744F80A4B07221A80DEE7EB
S2140085306C2A0020682A0020642A0020602A002076
S214008540502A0020F39C0100FA4F002000E100E0D2
S21400855000000140F84F002038B505460CF0ABF897
S214008560044625B9094840F253210CF045F808485E
S21400857000F062FB286020B920460CF0A2F81B2011
S21400858038BD20460CF09DF80020F9E7F39C01006A
S214008590682A002038B504460CF08DF80E4A138879
S2140085A0054623B90CF08DF80324204638BD013B60
S2140085B01380236823B9094840F276210CF01CF892
S2140085C02146074800F0ACFBFFF732FC044628467D
S2140085D00CF077F8E9E700BFFA4F0020F39C0100A3
S2140085E0642A002010B50CF066F8064B1C7824B1FF
S2140085F0054B1C88003C18BF01240CF062F820468E
S21400860010BD00BF5F090020FA4F002010B50CF027
S21400861052F8084B1A78044632B1074A12681AB163
S21400862000221A70FFF7D6FA2046BDE810400CF07C
S21400863048B800BF8A5000206C2A002013B50CF002
S2140086403AF80B4B1B88072B04460BD801A800F002
S214008650A3F910B90198FFF723FB20460CF031F878
S21400866002B010BD034840F263310BF0C5FFF4E7DB
S214008670FC4F0020F39C01001A4A38B5136C03F037
S2140086800103936463B3184B1868FDF707FD20B920
S214008690164840F2A2310BF0AFFF154B01221A70BC
S2140086A00CF009F80546134800F0C6FA044620B94F
S2140086B00E4840F2AA310BF09FFF21460E4800F00C
S2140086C02FFB28460BF0FDFF0C490D480022FFF754
S2140086D025FA084B1B681BB1BDE83840FFF7A8BB5E
S2140086E038BD00BF00000140F42A0020F39C0100C2
S2140086F05F090020642A0020602A0020B97F00005D
S214008700502A002013B540F614032348009300684F
S214008710224B2F222C2100F081FFB4242048009405
S214008720204B00681222072100F078FF24231E4801
S214008730009300681D4B0922012100F06FFF4FF4E3
S21400874086531B48009300681A4B102240F209110A
S21400875000F064FF4FF4A873174800930068174BA7
S2140087600222A82100F05AFF15480094154B006815
S2140087700F220C2100F052FF4FF441731248009371
S2140087800522124B0068982100F048FF10480BF0B5
S21400879034FF002002B010BD6C0800209840002076
S2140087A064080020D83F00205C080020A83F002076
S2140087B054080020DC2E00204C080020C8090020A9
S2140087C044080020102E00203C080020002B00202B
S2140087D0FC2A00202DE9F0410F460646002847D027
S2140087E0DFF8A080D8F800000CF0EBFA0446B0B131
S2140087F00BF061FF7B1E0546042B3BD8DFE803F039
S214008800183A031203001C4A13880E2B0ED9D8F808
S214008810000021460CF0D3FA28460BF052FF1A202F
S214008820BDE8F081154A13880F2BEFE7013313805C
S21400883028460BF046FF0023C4E900332361A361FA
S2140088402375A360A381A373A36AE77323B10C48BF
S2140088504FF4AD710BF0D0FE636A23B1084840F2C6
S2140088605B110BF0C9FE0020C4E909003460D7E7AD
S2140088702220D5E72120D3E7FE4F0020005000201D
S214008880809D01006C08002010B5044648B1064BD8
S21400889018680CF096FA002820600CBF1A200020FA
S2140088A010BD2220FCE700BF64080020094B1B789F
S2140088B010B5044623B908484FF4E3710BF09CFE4C
S2140088C0064B18680CF07DFA002820600CBF1A20B2
S2140088D0002010BD73500020809D01005408002029
S2140088E0094B1B7810B5044623B9084840F2D51149
S2140088F00BF082FE34B1064B214618680CF05FFA86
S214008900002010BD2220FCE773500020809D01004F
S2140089105408002008B50146B0B10C4B18680CF09E
S2140089204EFA0B48FBF770FE014638B1094B186843
S2140089300CF045FAFFF76AFE002008BD064840F234
S214008940D7210BF059FEF5E72220F6E75408002061
S214008950FC2A002044080020809D010008B501463E
S21400896038B1054B18680CF02AFAFFF74FFE0020C6
S21400897008BD2220FCE700BF5408002008B50146C9
S21400898028B1044B18680CF01AFA002008BD222003
S214008990FCE700BF640800202DE9F341002501959F
S2140089A0064660B3DFF8648098F800302BB9164BA3
S2140089B018680CF006FA054618B301A8FFF764FF1E
S2140089C0019F044647B101216846FFF703FF0446AE
S2140089D058B13846FFF7D2FF98F800305BB90A4B1B
S2140089E0294618680CF0EBF905E0009BC3E9007512
S2140089F0188118753360204602B0BDE8F081222445
S214008A00F9E71A24F7E700BF540800207350002047
S214008A1070B50446002857D0837B002B56D1836A56
S214008A2023B12B4840F2F3110BF0E6FD636A23B145
S214008A3027484FF4FA710BF0DFFD206808B1FFF706
S214008A409DFFE37B052B2ED8DFE803F00E03070916
S214008A500E0E606808B1FFF781FF012605E01D4B8A
S214008A60616818680CF0ABF900260BF024FE1A4B70
S214008A700546214618680CF0A2F9E37B042B18D1B2
S214008A80164C238823B940F2272111480BF0B4FD79
S214008A902388013B238028460BF013FE0EB1FFF718
S214008AA0CDFD002070BD0A4840F21A210BF0A4FD4F
S214008AB0DAE7052B01D0032BEDD1094C2388002BD8
S214008AC0E6D140F22B21E0E72220EBE70420E9E79D
S214008AD0809D01005C0800206C08002000500020EB
S214008AE0FE4F002073B50646032101A8FFF772FE6D
S214008AF0044650B9084B019D18680CF062F968608E
S214008B0030B92846FFF784FF1A24204602B070BD0D
S214008B1001232B813560F8E75C08002010B5044679
S214008B2048B1064B18680CF04CF9002820600CBFC2
S214008B301A20002010BD2220FCE700BF44080020B9
S214008B402DE9F7430F469046054620B319B301A812
S214008B50FFF7E4FF0446D0B9019E6B68306073608F
S214008B60EB7B012B04D00D4840F24F210BF044FD67
S214008B704FF00209384686F80A90A6F80880314673
S214008B80FBF730FD85F80F902846FFF741FF20469B
S214008B9003B0BDE8F0832224F9E700BF809D010002
S214008BA010B50446B8B1436873B1837A022B04D07B
S214008BB009484FF42E710BF01FFD084B61681868CA
S214008BC00CF0FDF8FFF722FD054B21461868BDE8BE
S214008BD010400CF0F4B810BD809D01005408002031
S214008BE04408002008B543680B60038913800146DB
S214008BF00248FBF7E7FC002008BD00BFFC2A002067
S214008C0010B5FBF701FD98B12828A0F1280404D17F
S214008C10084840F2E6210BF0EFFCA37B23B9054899
S214008C2040F2E7210BF0E8FCA37B013BA373204650
S214008C3010BD00BF809D010010B5FBF7E5FC98B1A4
S214008C402428A0F1240404D1084840F2F6210BF0B1
S214008C50D3FCA37B23B9054840F2F7210BF0CCFCEC
S214008C60A37B013BA373204610BD00BF809D01007F
S214008C7038B505460C4621B90A4840F201310BF0DA
S214008C80BBFCA37B23B9074840F202310BF0B4FCCF
S214008C90A37B013BA37304F128012846BDE83840B6
S214008CA0FBF7C2BC809D010010B5044658B1084BC6
S214008CB018680CF086F8206038B1A82200210FF062
S214008CC06BF9002010BD2220FCE71A20FAE700BF4F
S214008CD04C080020024B014618680CF070B800BF24
S214008CE04C08002038B505460C4621B90B4840F222
S214008CF032310BF081FCA37B0133DBB2022BA37372
S214008D0004D906484FF44D710BF076FC04F12801A7
S214008D102846BDE83840FBF765BC00BF809D0100D3
S214008D2038B505460C4621B90B4840F23D310BF0EC
S214008D3063FCA37B0133DBB2022BA37304D9064882
S214008D4040F23F310BF058FC04F124012846BDE800
S214008D503840FBF747BC00BF809D010038B505468C
S214008D600C4621B90B484FF452710BF045FCA37B1F
S214008D700133DBB2022BA37304D9064840F24A3112
S214008D800BF03AFC04F128012846BDE83840FBF712
S214008D9019BC00BF809D010038B505460C4621B9B8
S214008DA00B4840F253310BF027FCA37B0133DBB2B8
S214008DB0022BA37304D9064840F255310BF01CFC75
S214008DC004F124012846BDE83840FBF7FBBB00BF92
S214008DD0809D010010B5044648B1064B18680BF09C
S214008DE0F0FF002820600CBF1A20002010BD2220B3
S214008DF0FCE700BF3C08002008B5014628B1044B3C
S214008E0018680BF0DCFF002008BD2220FCE700BF3E
S214008E103C08002008B520B1044840F21F110BF0B2
S214008E20EBFB034B01221A7008BD00BFED9D01004D
S214008E308D50002010B51848012302220021FEF7AD
S214008E403BF92E28044625D010BB144A12480A21A6
S214008E500BF00BFE044618B10F48FEF7E7F817E0D4
S214008E600F4A0D4809210BF000FE04460028F3D1F6
S214008E700B4A094802210BF0F8FD04460028EBD106
S214008E80084A054803210BF0F0FD04460028E3D10C
S214008E90204610BD1224FBE7BC48002025940000A5
S214008EA009930000158E0000F0B51F4606230B70D0
S214008EB045681646A5F58052FF2A85B00C4634D87C
S214008EC00523EDB24B8045F480534B60037A9A1E1F
S214008ED0012A08D8083128460BF010FF63880433AF
S214008EE0336005B0F0BD052B09D1083128460BF0DC
S214008EF0BBFE0028F2D13B4B2B433B60EEE7092B31
S214008F0007D1083128460BF0D4FE0028E6D1364BB0
S214008F10F2E7364840F2D7310BF06EFB042363804D
S214008F2000220323C4E90123D8E740F20222954237
S214008F3026D012D8602D1ED007D8042D08D9212D92
S214008F4032D0002363600D2305E0B5F5007FF8D12D
S214008F50002363601523A36024E0B5F5C06F2BD013
S214008F600BD840F201339D42F2D0B5F5A06FE8D1A0
S214008F701F4B027A1A70656031E0B5F5885FE6E748
S214008F8004234B8083682BB1012B07D000234B6052
S214008F900323E0E7174A4D601360DCE7154AC1E992
S214008FA00153136008231BE002890A814B80008965
S214008FB04D60FEF79FFD91E70F4DC36880682B60FC
S214008FC003A900F033FE38B9CDE900000B4A039937
S214008FD00B482B460BF087FF4FF4C06363600423F7
S214008FE063807BE700BAFECA00BAEFBEED9D0100C3
S214008FF08B500020B8480020EC480020CD4D0100E2
S214009000CC48002000487047649E01002DE9F047D8
S214009010154606220A704368302B86B00C467AD076
S2140090200ED8042B05D9202B6FD0002363600D23A8
S21400903035E0013B032B30D8DFE803F033613943DA
S21400904040F20222934200F085800CD8502B66D066
S214009050B3F5007F67D0402BE7D14B600BF096FE50
S214009060A06008232BE040F20132934275D0B3F59E
S214009070885F4FF0000674D0A3F58052FF2A00F2F6
S21400908092808DF81030DBB243F480534B6003A817
S21400909003960BF0DAFD207207E000234B60A36016
S2140090A0DFE701234B6006230B72052307E004234A
S2140090B00322C1E90123CB6007230B6110236380E1
S2140090C017E00F46042347F8043FFFF79BFF804650
S2140090D00EF0E9FE461CB6B2802E28BF8026324629
S2140090E04146381D0EF0D1FE374B0436012266800D
S2140090F01A70638804332B6006B0BDE8F08702233D
S2140091004B60324B9B78DB00C9E74B604FF48073B3
S2140091100B814A80EDE74B602D4B1B68BFE74B6029
S2140091200BF037FE9CE74B6003A8FBF707FA049B9F
S214009130E360002323619DF80C30012B02D103234A
S214009140A360BBE723B9A3604FF0FF33E360B5E746
S2140091500423F5E74B601F4BDFE74B600EF062FE23
S2140091607EE74B6001F1070901F1870A3746731C59
S2140091706846CDE90077CDE903778DF804608DF871
S2140091801030029705970BF060FD804603A80BF0A1
S2140091905CFD48EA001809F8018F0236CA45F6B2A7
S2140091A0E5D184238BE7A3F5E062FF2A3FF63DAFC7
S2140091B08DF81030DBB243F4E0634B6003A80396EF
S2140091C00BF050FD67E700BF8C5000207350002066
S2140091D0C8480020B8480020014B1878704700BFE8
S2140091E08C5000201FB5194C23783BB118480BF063
S2140091F02CFD20BBFFF71EFED0B92070154B1B7848
S214009200A3B103230093124800230DF10A0203A919
S2140092100BF0DBFC50B9BDF80A30039823B10E4AB8
S214009220037811680B441360FFF774FB04B010BD9D
S2140092300A48E7210BF0E0F901232370DEE7022855
S214009240DCD00348FDF7F2FED8E700BF8D500020C3
S214009250BC4800208B500020C8480020ED9D01002F
S21400926008B54FF0005338B101283BD01F4840F2F4
S21400927037110BF0C1F902E040F201221A804FF0DC
S21400928000534FF20F025A80194A0120906013686B
S21400929023F4E06343F400731360164B4AF6E85277
S2140092A09A6000225A63996B01F00F0102290CD1D3
S2140092B0114908641B6C03F00303013B83429EBF05
S2140092C00E4BC3F8702CC3F8802EBFF34F8F0C499B
S2140092D00C4BCA6802F4E0621343CB60BFF34F8FB7
S2140092E000BFFDE740F20222C8E700BFED9D010087
S2140092F000500E4000300E40004008400000C643BC
S21400930000ED00E00400FA0538B5084614461D4690
S21400931009B1FFF771FD0D4B9C4203D10C4B186849
S214009320FFF79EFF0B4A24F0FF03934205D1294620
S214009330E0B2BDE838400BF0ADBC074A934204D11A
S214009340E0B2BDE83840FDF70BBF38BDEFBEADDE7E
S214009350B848002000BAFECA00BAEFBE30B585B0E5
S214009360044603A80D46FFF735FD70B9039906239A
S2140093700B8044F4805405234B804C600D7201230F
S214009380009009220248FDF7AFFE05B030BD00BFD1
S214009390BC4800207FB5FFF74DFD044638B14FF4BA
S2140093A0837112480BF028F9204604B070BD03A85C
S2140093B0FFF710FD20B10D4840F209210BF01CF913
S2140093C0039D062300262B806E600BF01AFD039982
S2140093D0A86008234B800648009603230C22FDF75E
S2140093E083FE0028E0D04FF40871DAE7ED9D010017
S2140093F0BC4800201FB548B101280AD101A8FBF7D8
S2140094009DF89DF80400B0FA80F0400905B05DF8BC
S21400941004FB03484FF494610BF0EEF80120F5E7E7
S214009420ED9D01002DE9F347DDE90AA7144603295F
S2140094304FF00002CAF80020DDF830803A6081461E
S2140094400E4608D039B140F281513B4802B0BDE823
S214009450F0470BF0D1B8B9F1000F02D040F28651B8
S214009460F3E76288043B9A4202D040F28B51ECE765
S214009470C8F8009001A8FFF7ADFCD8B9019DCAF85E
S214009480005063786B70032E43D12378022B17D0DD
S214009490032B28D0012B36D12B7004236B80082396
S2140094A03B60264B1868FFF7A5FF686028B9244B79
S2140094B0C8F8003002B0BDE8F087C8F80090F9E7B9
S2140094C06368202B09D05A1E032A06D923F01002FF
S2140094D0402A02D0B3F5007FECD13A462946204612
S2140094E0FFF794FDE6E7636840F20222934203D05A
S2140094F0212B01D0602BDDD143463A462946204633
S214009500FFF7D2FCD6E740F2BD510B480BF074F8DB
S214009510D0E76EB92378022BDFD0032BECD023B92B
S21400952004232E706E803B60C4E74FF4BA61ECE70C
S21400953040F2D451E9E700BFED9D0100B848002095
S214009540EFBEADDE7FB5094B6A4603F11006154641
S21400955018685968144603C40833B3422246F7D144
S2140095602846FCF735FB002004B070BD6E9E010057
S21400957070B5184B86B001AA03F110061546186898
S2140095805968144603C40833B3422246F7D11B88F1
S2140095902380114BD3F8B420120316D5A3F500434D
S2140095A04FF6FF721B88934208BF4FF4B4730B4804
S2140095B0ADF80A30FBF7F4F82846FCF7DFF832205F
S2140095C0FBF764FF002006B070BDD3F8B830C3F3D5
S2140095D00803ECE77E9E01000081E00F00F04902E0
S2140095E010B50C480C4C6FF00403A02113F0800F4C
S2140095F003F1010207D12344222A83F800131346FD
S214009600F4D1002010BD03F00F03043B0344197689
S2140096101346EBE700ED00E000E100E02DE9F04145
S2140096200C46074606991D461646AAB91F48382115
S2140096300AF0E2FF6CB91D4839210AF0DDFF4FF051
S214009640000807B1BDB9BDE8F04118483D210AF051
S214009650D3BFC4F10008F4E7002CECD0C4F1000836
S21400966008F00303234453438B42EAD90F483A21B8
S2140096700AF0C2FFE5E708F003084444C7E90055CE
S214009680A4B23C817E812A460021731E8B4210467E
S21400969008DC002E08BF002363434FF0FF32EA5079
S2140096A0BDE8F081224402600131EFE7909E0100A0
S2140096B038B5044630B90A485A210AF09DFF0025FD
S2140096C0284638BD0AF0F7FF25686B1C02D10AF061
S2140096D0F8FFF4E72B6823600AF0F3FFF0E700BF1B
S2140096E0909E010038B50D46044618B90C487721FF
S2140096F00AF082FF6368AB4205D82289618901FBC4
S21400970002339D4203D906487A210AF075FF0AF013
S214009710D2FF23682B602560BDE838400AF0D1BF31
S214009720909E0100BFF35F8F074B5A6A22F4803287
S2140097305A62D3F8942022F00102C3F89420BFF3B3
S2140097404F8FBFF36F8F704700ED00E0F0B5374DD9
S21400975037493848002387B0CDE90333FFF7E2FFE7
S2140097602C68354B4FF00052C3F89840661CC3F87F
S2140097709C208142314AC3F8A0202E6041D005AB20
S214009780019304AB0A1A009303AB0BF06AFBDDE906
S2140097900372059BDFF8A8E0072BA2EB01024FF04F
S2140097A001018CBF4FEAD30C4FF0200CB2FBFCF249
S2140097B001FA02F2013AD2B2AEEB070EC01BB3FAC0
S2140097C083F3BEFBFCFEB0FBFCF08E44814002FA45
S2140097D00EF20139C3F11E0311435B0001F0FF01D5
S2140097E003F03E0343EA0123134A43F0407343F079
S2140097F001130234C2F89860C2F89C70C2F8A03018
S2140098002C60BFF35F8F0C4B0522C3F894205A6A76
S21400981042F480325A62BFF34F8FBFF36F8FBFF3AD
S2140098204F8FBFF36F8F07B0F0BD00BFF04800202A
S2140098306C0900206C09002000ED00E039000113DF
S2140098406B09002070B5002386B01646CDE90333B9
S214009850FFF768FF05AB019304AB3246009303ABFA
S2140098600BF0FFFA0446DDE90303059A013B072ADD
S2140098708CBFD60820260D465B1A01213344241AD5
S214009880B3FBF6F301FA03F3013B013CDBB22D1AFE
S2140098903444B4FBF6F4A140013D0139B5FBF6F5BE
S2140098A0AB40194301F0FF01FF292BD0B2FA82F337
S2140098B0C3F11E03144D154A2C68C2F898405B008D
