S01900006275696C642F64656275672F6F742D7263702E73333711
S2140040000010002091450000616E0000656E000003
S214004010F13F0100696E0000716E00003737010045
S21400402037370100373701003737010037370100CF
S214004030756E0000609501003737010037370100C4
S21400404037370100FF900100373701005D0E010091
S2140040500F9101000B91010015150100039101005D
S214004060394A0000354B000037370100373701006A
S214004070373701003737010037370100373701007F
S21400408037370100514B0000373701003737010042
S214004090373701003737010037370100373701005F
S2140040A0373701003737010037370100491501005F
S2140040B007910100F57600008515010037370100ED
S2140040C071FA000037370100000000000000000011
S2140040D0013800D0FCE77047000000000000000038
S2140040E001F0FF01102A2BDB10F0070F08D010F8A4
S2140040F0013B013A8B422DD010F0070F42B3F6D1A8
S214004100F0B441EA012141EA014122F007047FF0C0
S21400411000070023F0E80256083C85EA010586EA17
S214004120010685FA47F5A3FA87F586FA47F6A5FA53
S21400413087F68EB9EED1F0BC01F0FF0102F007025F
S21400414032B110F8013B013A83EA010313B1F8D10A
S2140041500020704701387047002D06BF35460338EB
S214004160073815F0010F07D1013015F4807F02BF24
S214004170013015F4C03F0130F0BC0138704700BF75
S2140041802DE9F84F4022002129482A4EDFF8A0B03A
S214004190DFF8C4A0DFF8C490DFF8C480264F13F021
S2140041A0CEFD30222448002113F0C9FD234B244ABB
S2140041B0DFF8B0E09FED1C7B0020A3F1180C24254F
S2140041C00BEB4014454343E9054A0CEB050400217C
S2140041D043E9039843F8181C43F804EC217721625E
S2140041E0182404FB007442F8144C164C42F8104C89
S2140041F0154C42F80C4C154C42F8084C144C42F83E
S214004200044C144C42F8181C2C44A6EC027B217774
S21400421043F8241B216242F8241B08B1BDE8F88F3E
S2140042200120CCE7AFF30080000000000000000093
S21400423084350020581300205435002024350020F3
S214004240DC34002071770000714001008F400100CF
S214004250C5400100C434002099770000AB4001003F
S2140042609340010017410100F0B5012085B003F02E
S21400427087FC0446002840F0A880574E574B584D00
S214004280B060C6E90030286041F60B2310227F217B
S2140042905448AB8013F053FD534B7F2221463046E3
S2140042A01A7008F081FD044600B9FEE74F4909F090
S2140042B05BF800B1FEE70221204614F02FFB00B1A8
S2140042C0FEE74B49204609F067FA00B1FEE74FF4D7
S2140042D0807303A92046039314F04FFB0121204668
S2140042E014F057FD00B1FEE70121204614F05FFDF3
S2140042F0074600B1FEE701463C223E4813F01FFD8C
S21400430080233A4606F11001204614F04BFC802824
S21400431000D0FEE7012008F093FD2DA3D3E900238B
S214004320354E20463460CDE900234FF0FF324FF083
S214004330FF3314F09EFB014600B1FEE7284603F06B
S21400434063FC0121084603F04BFC3068012114F0A1
S21400435081FA00B1FEE78C220021284813F0EFFC1A
S214004360274B284A00249C801C60274B1A609C80A0
S214004370264BFF2283F82820254A1A606FF0630038
S214004380244A9C80DA6005F029FB2B790B2B11D888
S2140043906B790A2B0ED9204B1D6002F0BBFC204621
S2140043A003F07CFC08223068114614F064FB0446D7
S2140043B008B1FEE7FEE704F0EFFC184B18481C7047
S2140043C005B0BDE8F04010F0F4B805B0F0BD00BF91
S2140043D00BE020FF2202000020360020B17E000005
S2140043E018360020FF3D0020FE3D0020070011008B
S2140043F0E8980100D035002010360020B4360020A2
S214004400D8130020993E0020A8130020781300201F
S214004410193E002068130020143600201B3F0020A1
S214004420DC9801000348044B834202D0034B03B1DF
S21400443018477047081300200813002000000000EB
S2140044400548064B1B1AD90F01EBA301491002D0F1
S214004450034B03B1184770470813002008130020C9
S2140044600000000010B5064C237843B9FFF7DAFFCA
S214004470044B13B10448AFF300800123237010BD32
S214004480E43D002000000000CCC5010008B5054B47
S2140044901BB105490548AFF30080BDE80840FFF7AB
S2140044A0CFBF00BF00000000182A0020CCC50100C6
S2140044B0A3F5803A704700BF174B002B08BF134B7D
S2140044C09D46FFF7F5FF00218B460F461348144A1A
S2140044D0121A13F034FC0E4B002B00D098470D4BED
S2140044E0002B00D098470020002104000D000D4846
S2140044F0002802D00C48AFF3008007F09FF8200099
S214004500290006F001FF07F087F800BF000008004A
S214004510000000000000000000100020081300202B
S214004520444000200000000000000000002310B5FA
S214004530D3F82838A3F50062B2F5605F11D2196887
S214004540094A91420DD1094C227812F0FD0F01D094
S214004550002010BDDB6998470028FAD1012323709C
S214004560F6E74FF48170F4E707B0CD5EE53D002036
S214004570054A06490346106803448B4294BF1360FD
S2140045804FF0FF30704700BF98100020007C0020DE
S21400459008B500F07DF8124B12498B4212D3124B2D
S2140045A0124900208B4218D3FFF786FF186850F890
S2140045B02240586840F82240013298688242F5D37B
S2140045C00C33EAE70022F8E71C6844F822000132C0
S2140045D05C68A242F8D30833E4E70022F8E700BF9D
S2140045E0D4C50100E0C50100E0C50100E0C501003A
S2140045F00048704700F049020D4AD2F8943003F0A4
S2140046000703032B11D0042B03D0022B0BD1094B2D
S21400461000E0094B1868D2F80031C3F304230133D5
S214004620B0FBF3F07047054BF4E74FF40040F2E7B9
S21400463000400E40A8100020A41000209C1000206F
S21400464008B5FFF7D9FF054BD3F80831C3F30823A5
S2140046500133B0FBF3F0024B186008BD00400E407B
S214004660A0100020014B1868704700BFA81000205B
S214004670054B1860054BD3F8943003F00703022B64
S21400468001D1FFF7DDBF7047A810002000400E40A4
S2140046900D4B0E4A9A60D3F8882042F47002C3F895
S2140046A088200B4B5A6D42F400525A651A6C22F061
S2140046B003021A645A6F22F001025A671A6E22F039
S2140046C080521A66704700BF00ED00E00040000010
S2140046D000300E40014B1868704700BFA410002041
S2140046E02DE9F04F9A46554B85B01B78DDF83C9087
S2140046F09DF844B0DDF8508006460F461546002B60
S21400470000F09680072A00F295800E9B002B00F0A2
S2140047109180B9F1000F00F08D80129BB3F5006F09
S21400472000F38880012803D1109B002B00F08280C4
S214004730434B03EB05131B7B002B7DD0414C102213
S2140047400021684613F0FBFA04EB451410229FBBC9
S2140047503946204613F0F3FA43F210036380BBF1A8
S214004760000F03D1E37843F00303E370354A0E9B52
S214004770CDF800A002EB451CCCE90193129B581E15
S2140047809DF84C30690103F00303C0F30A009B0652
S21400479043EA001E53582C4818404EEA0003012EE8
S2140047A0535017D0B8F1000F2ED19CF8023068F3A2
S2140047B004138CF8023027E00021204613F0BFFADD
S2140047C04FF444736380BBF1000FCFD1E37843F01E
S2140047D03003CAE71323CCF80C309CE80F000CF12A
S2140047E0100E8EE80F00DCF81C20109BCCF814305E
S2140047F06FF0030161F39F02012FCCF81C2003D158
S214004800CCF81890CCF804300D4A290102EB0513B9
S21400481042F80180159A5A600027284622466946C3
S2140048209F605E7301F0F4FE384605B0BDE8F08F79
S2140048300648FAE70648F8E70648F6E7E63D0020A9
S214004840302B0020302A00200F80FFF3028000F07B
S214004850018000F0078000F038B5124B1B78054643
S214004860DBB1E0B10FF0E0F90F4A00231146147BEC
S21400487054B92B601A0101EB031301258C501D73EC
S2140048800FF0D8F9204638BD0133082B02F110028C
S214004890EDD10FF0CFF90548F5E70548F3E70548F1
S2140048A0F1E700BFE63D0020302B0020048000F03A
S2140048B0028000F0018000F013B5164B18680190D6
S2140048C000238DF804300FF0AFF9134B1C7824B199
S2140048D00FF0B0F9114802B010BD01221A700FF0A7
S2140048E0A9F90F4B1C731C7783F82C4083F83C40C7
S2140048F083F84C4083F85C4083F86C4083F87C4037
S21400490004230DEB03008DF8073001F057FE204618
S214004910E1E700BFB0950100E63D0020038000F00F
S214004920302B00200A4A127808B55AB107280BD84F
S214004930084A02EB00131B7B43B1002101F034FE52
S214004940002008BD0448FCE70448FAE70448F8E7F6
S214004950E63D0020302B0020028000F0018000F0B1
S214004960078000F00A4A127808B55AB107280BD813
S214004970084A02EB00131B7B43B1012101F014FE31
S214004980002008BD0448FCE70448FAE70448F8E7B6
S214004990E63D0020302B0020028000F0018000F071
S2140049A0078000F00D4B1B7893B1072812D889B109
S2140049B00B4B03EB00131B7B73B10A4B1A6A0123E4
S2140049C08340134214BF012300230B70002070475E
S2140049D0054870470548704705487047E63D002083
S2140049E0302B002000200E40028000F0018000F0F6
S2140049F0078000F00B4A127810B50C4662B1072803
S214004A000CD859B1084A02EB00131B7B43B101F0E6
S214004A104FFE2060002010BD0448FCE70448FAE77B
S214004A200448F8E7E63D0020302B0020028000F026
S214004A30018000F0078000F02DE9F041DFF8648087
S214004A40D8F86070D8F86C301F4000D5FEE7134CDD
S214004A5001260025374218D02368C8F86860A3B13D
S214004A60A16862680131A16028469847637B012BE4
S214004A700BD150B90A4B03EB45131A7B60F3410286
S214004A801A731A7F60F341021A770135082D4FEA30
S214004A90460604F11004DDD1BDE8F081302B00207D
S214004AA0302A002000200E4070B50C4E044601252A
S214004AB004B970BD94FAA4F0B0FA80F006EB0012C8
S214004AC005FA00F324EA03045368002BF0D0117BA8
S214004AD011B191689847EBE79847E9E7B02B0020BB
S214004AE008B5112001F062FA28B1084B4FF40032E5
S214004AF0C3F880211A60092001F058FA28B1034B48
S214004B004FF40072C3F880211A6008BD00E100E08F
S214004B1038B505460C460FF087F8054B03EB051332
S214004B2000225C601A73BDE838400FF083B800BFFF
S214004B30B02B0020054BD3F82804D3F81C241040D3
S214004B4000F05530C3F82404FFF7AEBF00A00040C5
S214004B50054BD3F82804D3F81C24104000F0AA30E4
S214004B60C3F82404FFF7A0BF00A00040024B19685A
S214004B70024B186807F0FCBEAC100020CC100020DA
S214004B8070B59400224605460E460FF030F9431CD9
S214004B900AD058B922463146284613F0A6F800280F
S214004BA0034808BF002070BD0248FCE70248FAE749
S214004BB010E000F021E000F024E000F010B504461C
S214004BC001F030FE431C10D088B901F041FF20F000
S214004BD0030023462044984201D1002010BD53F81C
S214004BE0042B0132F7D00348F8E70348F6E70348FA
S214004BF0F4E700BF0EE000F021E000F024E000F053
S214004C0008B50FF006F8014B186008BD7434002094
S214004C10014B18680FF001B87434002038B141B168
S214004C20013AB2F5006F044838BF002070470348C9
S214004C3070470148704700BF037000F0027000F034
S214004C401049114B0A7830B52AB9C3E90022C3E9E6
S214004C50022201220A700C4900220C4654F8045B1A
S214004C60854208D00132042AF8D1002251F8044BBC
S214004C701CB943F82200002030BD0132042AF5D1C9
S214004C800248F9E7E73D002078340020027000F083
S214004C9038B504460D460EF0C7FFA3889BB223B96D
S214004CA02B600EF0C7FF064838BD638814229BB2FF
S214004CB002FB034408342C600EF0BCFF0020F3E730
S214004CC00B7000F010B50446FFF7F6FD002104F166
S214004CD00800FFF7C1FD014608B1044810BD04F105
S214004CE00C00FFF7B9FD0028F8D0F6E70E7000F0CC
S214004CF07FB5012380F8303090F83630ABB9826B40
S214004D000368013282630C4A0392002204900292E6
S214004D104A680192012200920A684169C0681C3301
S214004D200EF02AFD07B05DF804FB012BE7D0002348
S214004D3080F83030F6E700BF955600007FB50123B7
S214004D4080F8313090F836309BB902683432836B85
S214004D50013383630E4B03930023049002934B6846
S214004D600193012300930B68016980680EF0EAFC4A
S214004D700BE0012B06D10268136843F4005342F897
S214004D80283BE4E7002380F8313007B05DF804FBE9
S214004D90994E000013B51E4A002352F8044B94F8AF
S214004DA0211081420ED00133042BF6D102B010BD83
S214004DB00028FBD19DF80730002BF7D0A068FFF73E
S214004DC0B1FDF3E794F83530022BEFD120460EF014
S214004DD091FD637E2076022BE8D194F8323003F002
S214004DE0FF02002BE2D1A0688DF807200DF1070125
S214004DF0FFF7D8FD237E1BB194F83330002BD7D0B5
S214004E000023A06884F83330FFF7ACFDCEE700BF80
S214004E1078340020F8B5044616460F460EF004FF18
S214004E20A388E2889BB29A42054605D800233360E1
S214004E300EF000FF1748F8BD238814229BB202FB31
S214004E40034308333A4607F1100C174603CF67456D
S214004E50186059603A4603F10803F6D138681860BE
S214004E60238814229BB202FB034308333360238853
S214004E70E2889BB20133B3FBF2F102FB11339BB223
S214004E802380A38801339BB22846A3800EF0D2FE6F
S214004E900020D0E70A7000F02DE9F3411446D06AEE
S214004EA001A9FFF7F5FEA36BA36B013BA3631B4BA6
S214004EB0984222D0019D00272F61AF600EF0B4FE0D
S214004EC0D5F80C800646B8F1000F04D0D5E90023CB
S214004ED039462046C047E06A01A90EF076FDE06A32
S214004EE083889BB26BB101A9FFF7D2FE01992046D9
S214004EF0FFF724FF30460EF09DFE012002B0BDE80D
S214004F00F08184F8313094F83630012B01BF2268E6
S214004F10136823F400531360ECE700BF0B7000F037
S214004F2010B5044680B190F832302BB90EF0E2FC92
S214004F3010B9A068FFF7F6FC94F832300133DBB204
S214004F4084F83230002010BD0048FCE7027000F004
S214004F5010B50446A0B190F832309BB190F83230CC
S214004F60012B05D10EF0C6FC10B9A068FFF7FAFCBD
S214004F7094F83230013BDBB284F83230002010BDAA
S214004F800148FCE70148FAE7027000F0057000F0FF
S214004F90F0B5AA4F04460D460FCF89B001AE0FC636
S214004FA097E8070086E80700002C00F037831DB955
S214004FB0A34E304609B0F0BD60220021204612F014
S214004FC0BEFE2046FFF73CFE06460028F1D12B7CAD
S214004FD084F835302B689B4A2360934284F8360069
S214004FE07BD002F580629342E2D19749974A4FF40C
S214004FF05023C4E90423D5E906230026A262616291
S21400500016805680968084F83060E3621E805E804C
S2140050109E806B6803936B8984F8316084F83360F4
S214005020ADF81430AB89ADF81230AB7B8DF810308C
S214005030EB7B87488DF81630012105238DF811305B
S21400504000F04AFC8348012100F046FC606A01211A
S21400505000F042FC28688DF8046001A90EF0D0FE2E
S21400506028682B7A826F697A22F4F85222F01F029F
S21400507042EA03220A438267032242672268714893
S214005080824240F093816BBBE376002900F0958165
S2140050904A1E1E2A00F27A81DFE812F03900390033
S2140050A0390039007001680160015801500148015B
S2140050B040013801300128012001180110010801C3
S2140050C00001F800F000E800C700BF00B800B1001B
S2140050D0AA00A3009C00950039005F495F4A4FF480
S2140050E0402386E75A1ED2B21E2A09D85C48805C46
S2140050F0E0760029CCD15B4B21779B5CE3771FE001
S214005100FF22E2760029C3D12177E27718E000215A
S2140051102177002B52D0013BDBB21E2B40F24081A0
S214005120FF23E377D3B21E2B4AD9FF2309E0013BC6
S214005130DBB21E2B40F237810346E3770029F1D11C
S214005140012384F820306B7C6377AB7C84F82130B5
S214005150EB7CA3772B7D84F82230012120460EF0CD
S2140051605AFB064600287FF424AF0EF05DFD2B7C2C
S214005170032B074640F040822B682A8CDA675A6E6B
S21400518042F004025A665A6F42F030025A672868A4
S2140051904FF0FF3383642B7C032B0CBF05210421C7
S2140051A00EF027FE2B684FF44062DA602046FFF7C9
S2140051B089FD064638460EF03DFDFAE6E377D3B2A3
S2140051C0294AD35CBDE705212177002BA3D1E377DD
S2140051D01D23F5E705212177002B9CD1E3771C23BF
S2140051E0EEE705212177002B95D1E3771B23E7E730
S2140051F005212177002B8ED1E3771A23E0E70521DE
S2140052002177002B87D1E3771923D9E7052121776A
S214005210002B80D1E3771823D2E705212177002BD6
S2140052207FF479AFE3771723CAE705212177002BB0
S2140052307FF471AFE3771623C2E700BF3496010010
S214005240037000F0000001400032040001000D0071
S2140052504041050000250A000022040001000C0061
S21400526013960100F4950100D595010003212177DE
S214005270002B7FF450AFE3771523A1E703212177B6
S214005280002B7FF448AFE377142399E703212177B7
S214005290002B7FF440AFE377132391E703212177B8
S2140052A0002B7FF438AFE377122389E703212177B9
S2140052B0002B7FF430AFE377112381E703212177BA
S2140052C0002B7FF428AFE377102379E703212177BB
S2140052D0002B7FF420AFE3770F2371E702212177BD
S2140052E0002B7FF418AFE3770E2369E702212177BE
S2140052F0002B7FF410AFE3770D2361E702212177BF
S214005300002B7FF408AFE3770C2359E702212177BF
S214005310002B7FF400AFE3770B2351E702212177C0
S214005320002B7FF4F8AEE3770A2349E702212177C2
S214005330002B7FF4F0AEE377092341E701212177C4
S214005340002B7FF4E8AEE377082339E701212177C5
S214005350002B7FF4E0AEE377072331E701212177C6
S214005360002B7FF4D8AEE377062329E701212177C7
S214005370002B7FF4D0AEE377052321E701212177C8
S214005380002B7FF4C8AEE377042319E7FF202077CD
S214005390002B7FF4CCAEE37700297FF4C6AECFE6D1
S2140053A09F49CB5CBDE69E48C35CC6E69D488242EC
S2140053B07FF4FEAD23B9E37659B92177E177BFE6EE
S2140053C05A1ED2B21E2A29D9FF22E27600293FF4BD
S2140053D09BAE4A1E1E2A00F2FD80DFE812F0270070
S2140053E0270027002700F300EB00E300DB00D300D4
S2140053F0CB00C300BB00B300AB00A4009D0096002A
S2140054008F00880081007A0073006C0065005E00E3
S21400541057005000490042003B0027008248805C4D
S214005420E0760029D5D1814B217766E600212177E9
S21400543063B1013BDBB21E2B96BF7C49FF23CB5CDE
S214005440E377D3B21E2B3FF670AE01E0E377D3B21C
S214005450774AB6E605212177002BEAD1E3771D23AC
S214005460F6E705212177002BE3D1E3771C23EFE74E
S21400547005212177002BDCD1E3771B23E8E7052104
S2140054802177002BD5D1E3771A23E1E70521217791
S214005490002BCED1E3771923DAE705212177002BFD
S2140054A0C7D1E3771823D3E705212177002BC0D196
S2140054B0E3771723CCE705212177002BB9D1E377D3
S2140054C01623C5E703212177002BB2D1E3771523F6
S2140054D0BEE703212177002BABD1E3771423B7E790
S2140054E003212177002BA4D1E3771323B0E7032110
S2140054F02177002B9DD1E3771223A9E7032121779B
S214005500002B96D1E3771123A2E703212177002B06
S2140055108FD1E37710239BE703212177002B88D1D7
S214005520E3770F2394E702212177002B81D1E377DD
S2140055300E238DE702212177002B7FF47AAFE377E5
S2140055400D2385E702212177002B7FF472AFE377E6
S2140055500C237DE702212177002B7FF46AAFE377E7
S2140055600B2375E702212177002B7FF462AFE377E8
S2140055700A236DE702212177002B7FF45AAFE377E9
S214005580092365E701212177002B7FF452AFE377EB
S21400559008235DE701212177002B7FF44AAFE377EC
S2140055A0072355E701212177002B7FF442AFE377ED
S2140055B006234DE701212177002B7FF43AAFE377EE
S2140055C0052345E701212177002B7FF432AFE377EF
S2140055D004233DE7FF202077002B3FF4DCAE013BA1
S2140055E0DBB21E2B05D90346E37700297FF429AFEB
S2140055F0A6E50E48C35CF7E7022B7FF4C8AD94F827
S21400560021000C49FFF784FAFFF76AFA4FF400739B
S2140056102383A67620460EF0BEFAB8E5064EC8E40A
S214005620F49501000004014013960100F495010072
S214005630D5950100954D0000027000F0F0B587B0DA
S21400564005461646FFF7EAFA0446F0B9CDE9011614
S2140056500493A86A0E4B03966A4601A90593FFF7C2
S214005660D9FB044688B995F8303073B928460EF051
S21400567076F900992846FFF73BFB95F83530032B63
S21400568003D02C7628460EF086FA204607B0F0BDEA
S214005690017000F0F7B51446906A01A9FFF7F8FA12
S2140056A0A36BA36B013BA363334B98422ED094F8B5
S2140056B03610019D002935D123681A6C12F4007249
S2140056C027D02E4A2A61A9604FF400729A640EF021
S2140056D0ABFAEF68064637B16A68AB682969D31A31
S2140056E020462A68B847A06A01A90EF06EF9A06A9B
S2140056F08588ADB2002D2FD001A9FFF7C9FA019910
S2140057002046FFF7F5FA30460EF094FA012003B073
S214005710F0BD196CC8051BD51949AA6029614FF45C
S2140057208072D3E7012913D12368DA6A12F0800267
S21400573006D0124A2A610022AA6080225A63C6E76F
S214005740D96A490604D50E49AA6029614022F5E7C0
S21400575000232B61AB60BAE70123237620460EF0C8
S2140057601AFA94F8353084F83050032BCBD0204604
S2140057700EF013F9C7E700BF0B7000F00D7000F0D5
S2140057800C7000F0F0B587B004461646FFF746FAF0
S214005790054658BB0493194B059394F83630039688
S2140057A0CDE901162BBB23681B6903F0020313B96E
S2140057B020460EF0B6F8E06A6A4601A9FFF72AFB13
S2140057C0054698B994F8313083B90EF02DFAE36A9D
S2140057D09B889BB2064633B100992046FFF7AEFA87
S2140057E0012384F8343030460EF024FA284607B0F9
S2140057F0F0BD012BDCD123689B68D6E7017000F072
S2140058000C4B984205D90C4B984210D80122012324
S21400581001E00022134609490B640949D1F800311A
S21400582023F0807343EA0263C1F800317047022216
S214005830EDE700BF0048E8010090D0030000C84331
S21400584000400E40044BD3F84421D20703D4D3F8CB
S21400585040211042FBD1704700400E400A4B0B49D6
S21400586098424A680BD90A4B98420AD902F040720D
S2140058704B6823F0407343EA02634B607047002294
S214005880F6E70122F4E700BF40787D0100000E40F5
S214005890005A620238B5074C41F67133256C236412
S2140058A0FEF7A6FEADB2FFF7D9FF0DB100232364C5
S2140058B038BD00BF00000E4038B5064C256C41F6DA
S2140058C071332364ADB2FFF7C9FF0DB10023236423
S2140058D038BD00BF00000E4038B5C0F30323013BBF
S2140058E0092B11D8DFE803F0052710102B221D1016
S2140058F01511154DC0F3043405F1424505F5801524
S21400590004EBC5008000016038BD104DC0F30434C0
S214005910F2E70F4DC0F304344FF48030FFF792FFE8
S214005920EAE7C0F304340B4D1020F7E7C0F3043465
S214005930094D0120F2E7094DC0F30434DCE7084DB9
S214005940C0F30434D8E700BF00400E4050410E407C
S214005950F0400E40E8400E40E0400E40C0400E4092
S214005960B0400E40C0F30313013B092B3FD8DFE8DD
S21400597003F0050B0F193E3E1F232C351D4BD3F8A5
S2140059800001C0F3042070471A4BD3F81401F8E75F
S214005990184BD3F80031C3F300630133012098405D
S2140059A001387047134BD3F80C01C0F3082070473A
S2140059B0104BD3F80801F8E70F4B984217D10D4B60
S2140059C0D3F8203103F00F03E8E70C4B98420ED1D2
S2140059D0084BD3F8283103F00303DFE7084B98425F
S2140059E005D1044BD3F8300100F00F0070470020BB
S2140059F0704700BF00400E408006160090071A0051
S214005A00A009140000F00F00013807284BD8DFE883
S214005A1000F00412214A31354A3D294BD3F8940050
S214005A2000F00700032849D004283ED002280CBF07
S214005A30042005207047224BD3F8800000F00700B2
S214005A4002283BD0042834D0012808BF032018BF02
S214005A50012070471A4BD3F8843003F00703013B4C
S214005A60032B03D8DFE803F0042123250120704729
S214005A7003207047124BD3F88800DFE7104B1B6FEC
S214005A8013F0010F0CBF0720092070470C4BD3F80A
S214005A905C3103F03003202B0DD0302B0DD0102BB3
S214005AA008BF0720D3E70020704702207047062073
S214005AB070470A207047042070470820704700BFD0
S214005AC000400E4008B50146FFF79CFF1A4B99426E
S214005AD011D01A4B994212D0194B994204D1194B46
S214005AE0D3F8800000F007000138032821D8DFE84B
S214005AF000F00A0E1612134BD3F88400F2E7114B8F
S214005B00D3F88800EEE7BDE808400DF015BEBDE806
S214005B100840FEF7DFBDBDE808400DF010BEFEF7FA
S214005B206BFD084BD3F80031C3F300630133D84054
S214005B3008BD0020FCE700BF03002000050024008D
S214005B4002001E0000400E4000F47813B3F5A01FBC
S214005B5010B5044654D01ED8B3F5202F6CD009D803
S214005B60B3F5003F41D0B3F5802F33D0002B63D080
S214005B70002010BDB3F5602F57D0B3F5801F6CD052
S214005B80B3F5402FF4D1FEF737FD3F4BD3F8143171
S214005B90C3F3042325E0B3F5001F3BD00FD8B3F5BD
S214005BA0D01F39D0B3F5F01F25D0B3F5B01FDFD125
S214005BB03648FFF787FF344BD3F8203126E0B3F59D
S214005BC0481F3DD0B3F5781F54D0B3F5101FCFD182
S214005BD02F4811E0FEF710FD2B4BD3F80C31C3F322
S214005BE008230133B0FBF3F0C3E7FEF705FD264BB1
S214005BF0D3F80831F3E72548BDE81040FFF762BF49
S214005C002348FFF75FFF204BD3F8303103F00F0334
S214005C10D840AEE71F48EFE71E48FFF753FF1A4B82
S214005C20D3F8283103F00303F2E71B48FFF7EAFE38
S214005C30072812D009289BD1BDE81040FEF7DCBC2F
S214005C401648FFF7DFFE072807D0082808D00428E4
S214005C508ED1BDE81040FEF705BD114B186888E7E9
S214005C60FEF7CAFC084BD3F80031C3F3042303FB4A
S214005C7000007EE7FEF7C0FC014620460DF0C4FF9C
S214005C80B1FBF0F075E700BF00400E4002001E00BA
S214005C90050024000300200006000E00B8003200B5
S214005CA0D0100020014B1880704700BFE41200207F
S214005CB010B5042813D8DFE800F047032F1321009F
S214005CC0294AC1F30801D2F86838002BFBD1274ACD
S214005CD0136A23F4FF7323F001030B43136210BD12
S214005CE0214A01F07F01D2F86038002BFBD11F4A11
S214005CF0136923F07F030B431361F0E71A4A01F0A0
S214005D007F01D2F86438002BFBD1184A936923F040
S214005D107F030B439361E2E7144AD2F89030536A4C
S214005D2023F0300343F010035362146B104BC1F39F
S214005D30C31003300F2803EA040328BF0F200B43C9
S214005D4043EA00731363CAE74F29074A28BF4F2167
S214005D50D2F87438002BFBD1044A936B23F07F03F0
S214005D600B439363BBE700BF0020C84300400E40D0
S214005D7000F8FF0F104A536A13F0300F18D020298E
S214005D8013D0302914D000290C4B08BF4FF4400321
S214005D90D2F8901033EA0101FAD15B0246BFD2F87E
S214005DA0A000C0F38020012070474FF40003EFE707
S214005DB04FF44003ECE700BF00400E40FF03E1074E
S214005DC002280AD129B1064B4FF48060C3F8A80018
S214005DD0596612B10220FFF7CDBF0120704700BF01
S214005DE000400E400428F8B546D82F4B13F800C0E4
S214005DF02E4B1D5C2E4B33F810702E4B33F8104094
S214005E002D4B00293ED0022837D15C6A14F0300FA3
S214005E1033D15C6AE40705D55E6A26F0300646F0A4
S214005E2010065E62254C244B25441F66AD002B6889
S214005E30002BFCD002B36444A4002368002BFCD0E3
S214005E40022819D1C1B11C4D696A11F0010116D0A2
S214005E5001222021FFF7B4FFD5F89C600122002123
S214005E600220FFF7BFFFC6F30A010220FFF720FF5C
S214005E702F662368002BFCD0F8BD0021D2E7FFF781
S214005E8079FFE9E701211C66A940D3F89000084293
S214005E90FBD1002AF0D00123074903FA0CF3D1F80E
S214005EA090201A42FBD1E7E779960100749601002C
S214005EB06A9601006096010000400E408004F210D1
S214005EC008B50C48FFF79CFC012211460220FFF79C
S214005ED089FFFFF7DFFC084B02225A67FEF78CFBB0
S214005EE0FFF78EFCFEF7ACFBBDE808400021FFF78D
S214005EF0E3BC00BF0148E80100400E4010B5044670
S214005F001120FFF77FFD002101220220FFF76AFF24
S214005F101B4A217C536A23F00103022908BF43F081
S214005F2001035362174B2178C3F8A014936AE17AF1
S214005F3023F007030B439362A188637A43EAC123E5
S214005F40D362136BA07A217A03F07F630343E08861
S214005F5043EAC02343EAC11303310F2928BF0F21A8
S214005F6043EA01731363A37B617B1B0143EA01339E
S214005F70E17B0B43217B43EA0143536310BD00BF23
S214005F8000400E400000C8430028A7BF00F1604054
S214005F9000F5614000F00F00034BACBF90F8000323
S214005FA0185C4009704700BF14ED00E04209054B3D
S214005FB053F8223000F01F0023FA00F0C04300F030
S214005FC00100704700E100E008B50146EFF31083DA
S214005FD0DB0702D50122104608BDFFF7E7FF0246A1
S214005FE00028F7D10846FFF7CFFF0146EFF31183ED
S214005FF013B1B0EB531FEDD2074B5B68C3F3080336
S214006000002BE8D0103B58B2FFF7BEFF88428CBF8B
S21400601000220122DFE700BF00ED00E01848194B20
S214006020C26C1B88C2F303222833013202EB8201C2
S21400603003EB5303B3FBF1F3C16C013B072B28BF03
S214006040072321F0EE6141EA036343F48013C3643F
S2140060500D4BB3F90030002B10DB2833510801EB51
S214006060420203EB5303B3FBF2F3026D072B28BF88
S214006070072322F0700242EA03130365704700BF4D
S21400608000300E40F03C0020EC3C00200A4903792A
S2140060908A6922F03F021343027843EA8203427879
S2140060A043EA4203827843EAC203C278012A08BF61
S2140060B043F001038B61704700300E401A4B4AF6DE
S2140060C0E85210B5596B5A639A6FD407FCD41B6C10
S2140060D013F0030306D0154A01249842C2F8B44AC6
S2140060E00AD110BD18B9114BC3F8B40AF9E7012854
S2140060F002BF0F4B02221A700B4B9A6FD207FCD4CA
S2140061001A6C22F0030202431A649A6F12F001021C
S214006110FBD10038054C18BF01200129C4F8B40A89
S21400612008BF5A63DDE700BF00300E400000C643DC
S214006130E83D0020A0F5E163B3F5966F2DE9F04148
S21400614002D90020BDE8F081574C584BD4F818729D
S214006150B0F5E16F1CD0DD6CC5F301753C0E2E0268
S214006160C7F307474FF4966C4FF4E16E01233343B1
S214006170B3F5007F4C4E59D017D8B3F5807F52D078
S21400618040F20118434545D0CBB9D6F81C3218E08A
S214006190DD6CC5F30175C7F307242E02FFB24FF47A
S2140061A0167C4FF4966E0023E1E7B3F5407F40D0AF
S2140061B040F20138434533D0D6F8283201E0D6F80D
S2140061C02432C3F30726DBB2A4EB0708A0EB0E0EBF
S2140061D00EFB08F8B8FBFCF84744A742B1D8F41AFF
S2140061E00EFB04F4B4FBFCF41C44B442A9D872B110
S2140061F02E4AD36DB0F5E16623F4FE4318BF0126A0
S21400620023F0020343EA460343EA0723D36599B91A
S214006210012097E7D6F824321E0EC3F30743D3E7D0
S214006220D6F82832F8E7D6F81C32F5E7D6F820324A
S214006230C7E7D6F82032EFE71B4BD3F80021D2B2DF
S214006240032A07D8B0F5E16FD3F82C320AD0C3F38F
S214006250072308E0022DD3F8303220D0032D21D0BA
S214006260012DF4D0DBB21B0313F4702F7FF469AF5B
S2140062700E49CA6E22F470421343CB664B6E23F46B
S214006280FF7323F00103B0F5E16F18BF43F001037D
S214006290E72C28BFE72443EA44034B66B8E7C3F37A
S2140062A00743E0E71B0EDEE70081E00F00300E40FC
S2140062B0184B1A6FD96C11F0010F02F0060213D0BA
S2140062C092B1132821D9143813288CBF1023082321
S2140062D01048013BC26C190322F47F4241EA0323B3
S2140062E01343C364FFF79ABED96C01F00101114352
S2140062F004D1092809D90A380928E6E7DB6C13F027
S2140063000103E5D01AB92728DFE70423E0E70023D6
S214006310DEE700BF00300E40064A074BD3F8803950
S214006320136F23F0070303431367044B1888FFF724
S214006330BFBF00BF00300E400000C643EE3C00204A
S2140063404E4B37B502229A639B6B03F00F039342C2
S214006350044603D00025284603B030BD484BD3F88A
S2140063601C32013312D0474BD96B9A6B1160596CB3
S2140063701A6C1160D96C9A6C1160596D1A6D1160A7
S214006380D96D9A6D11605A6E1B6E1A60E288A188EC
S214006390B4F90C004A2A65D9B2F5FA7F64D340F600
S2140063A0C3139A428CBF4FF040524FF00052334D09
S2140063B0EB6C23F0405323F001030028A8BF43F002
S2140063C001031343EB64304B1980EB6E43F080738C
S2140063D0EB662E4BD3F8800900B10420FFF79CFF34
S2140063E02B6E23F0C0432B66EB6C43F0060301A82C
S2140063F0EB6400F0FFFA9DF80500012811D19DF826
S2140064000430022B0DD822490B7853B96B6C214A05
S21400641043F001036B642B6E1A401F4B13432B662D
S21400642008701E4B218919801D4BB4F90C20A088DA
S2140064301A80FFF73DFFA37BCBB1012B1BD00122B7
S21400644060881146FFF776FE0546002882D0A37ABC
S2140064500E4A003B18BF0123C2F894376078FFF756
S2140064602DFE78E70022A2E74FF080529FE7034B0D
S2140064700C4A9A65E3E7014B0B4AFAE700300E40F8
S2140064800081E00F0080E00FEE3C00200000C643D5
S214006490E83D0020000F0EF0B4C0400BF03C00209A
S2140064A0EC3C002077402057372110B7072AF8B574
S2140064B001F0030614461F464FF00F011FD8950043
S2140064C000FA05F2A94015480DF071FC03211448A6
S2140064D006FA05F2A9400DF06AFC12499DF818303C
S2140064E0114A214489000F60C1F880300123A3407F
S2140064F0C2F824349DF81C30C1F80033F8BDA2F170
S2140065000805AD0000FA05F2A94008480DF04FFC5A
S2140065100321074806FA05F2A940DCE700A400407C
S21400652008A400408020851000A0004004A400407D
S2140065300CA4004000EB4000F8B50D461F460401D1
S21400654016463AB1154801238B402044C7B100F1E6
S214006550C0600360072D4FF00F0114D8AB00104841
S21400656006FA03F2994020440DF021FC3EB90B4A8E
S2140065700123AB40224477B102F1C0621360F8BD3C
S21400658000F18060E5E7A5F108039B00054806FAE0
S21400659003F29940E7E702F18062EFE70CA00040C3
S2140065A004A0004008A00040034B03449B0081F079
S2140065B001011960704700BFA001F11010B5044634
S2140065C001214FF48A40FFF787F9B4F801302278AA
S2140065D05BBA9BB243EA02630B4A13600023136262
S2140065E0D36253634FF00043D3664FF0FF33936696
S2140065F0064A4FF48071C2F88011E3785B01DBB283
S21400660082F80833116010BD00200E4000E100E063
S214006610F8B5254D8F7AD1F800C0C3B201269E404A
S2140066204FF0300ECB7A0EFB00500C461B05097B54
S214006630AE6643EA0743C0F880C094F80DC0C0F8C1
S21400664088C043EA415322F00302C0F88430C0F801
S21400665098200DF0E9FAEB6E3343EB66237A13B11C
S2140066606B6B33436B63637A13B1EB6A3343EB6252
S21400667023792A6823B1DB431B0263F47F431A4065
S21400668063790BB142EA0322A3790BB122EA030233
S214006690E3791343044A1360044B9E62D663BDE855
S2140066A0F8400DF0C7BA00BF00200E4000200E4490
S2140066B0F8B5C3B2012504469D400DF0B5FA0A4B65
S2140066C030221E6E9F6A02FB0433D3F88C400DF016
S2140066D0B1FA3D4206D1C4F30A1008B9354200D1DA
S2140066E00130F8BD0020FCE700200E40044B41F6C8
S2140066F071321A649A6822F001029A60704700BFED
S21400670000000E40034B9A6822F001029A600022B5
S2140067101A64704700000E40094A0A4BD969C90737
S21400672005D512B96FF002007047013AF6E7002A65
S214006730F8D001221861DA60D86940F3800070470B
S2140067408096980000000E4070B509B9002070BD14
S2140067500E4A0023082550F8234094610C4CD5605F
S2140067600133D669F60705D514B96FF00200EEE7D7
S214006770013CF6E7002CF8D0D469A40702D499426D
S214006780E9D1E3E76FF00100E1E700BF00000E404B
S21400679080969800224B2DE9F0470D4641F6713160
S2140067A01E6C1964996841F001018146B6B2996081
S2140067B09708A8464FF0000ABA450ED30020D9F82D
S2140067C000202B689A420ED04846FFF7A5FF50B926
S2140067D001212846FFF7B8FF05E009EB8A042046AA
S2140067E0FFF79AFF48B10E4B9A6822F001029A60B2
S2140067F00EB100221A64BDE8F087C4F30A01C1F5A1
S21400680000618908A7EB0A03994228BF194640464B
S214006810FFF79AFF0028D2D18A4408EB8108CBE71D
S21400682000000E40214B41F671311A6C19649968CC
S21400683041F00101996001211861D960D9694907C1
S21400684092B209D5996821F0010199600AB1002237
S2140068501A644FF0FF3070470221D9601449D86996
S214006860C00700D569B9D86910F002000BD0996846
S21400687021F0010199600AB100221A646FF001004C
S21400688070470139EBE741B9986820F0010098603D
S21400689002B119646FF002007047996821F0010197
S2140068A099600AB9002070471864FBE700000E40A4
S2140068B08096980002F0070242EA035201F4FE4175
S2140068C0024B10300A4343F82020704700600E4009
S2140068D0074B002047F6077200F1100153F821100D
S2140068E00A4204D001300C28F6D14FF0FF30704732
S2140068F000600E40014B01229A60704700500E4027
S214006900194BF0B500215D68184C194E194F084612
S214006910D6F8E8C1626823681CF0040F0BD1B3F503
S214006920006F06D01DD8B3F5007F02D0B3F5806F98
S21400693001D142F48072D7F888C01CF4807F18BF5B
S21400694022F01C022B4202D02A4208BF1843013113
S214006950092904F10804DBD1C30348BF20F01C005A
S214006960F0BDB3F5803FE3E700500E40809601008F
S2140069700040E00F00300E408B784A789B0143EAD7
S21400698082030A781343CA7843EA02130A7943EA71
S214006990C2234A7943EA02338A79043043EA4243FF
S2140069A00001014A1350704700200440014B186054
S2140069B0704700BF00008442437882789B0043EA19
S2140069C0021302781343C27843EA4213027943EA79
S2140069D00223427943EA0233827943EAC233C27918
S2140069E043EA0243027A43EA4243014A136070478D
S2140069F0002004400D4AD2F8E430D2F8E0109B00A4
S214006A0003F03C03C1F381110B438370D2F8E030EE
S214006A1003F03F034370D2F8E830D2F8EC2003F0DE
S214006A20F003C2F3031213430370704700FF0FE036
S214006A30024BD3F8F000D3F8F41070470081E00F53
S214006A40024BD3F8FC00000E704700BF0081E00F39
S214006A50044BD3F8E4301B0E0A3303F01F03012067
S214006A60984070470081E00F70B5054616461C46F4
S214006A7019B91448FFF768F80146402C1BD003D814
S214006A80DCB1202C1BD070BD602CFCD1042303FB92
S214006A9006F2530803EB4113B3FBF2F30A4A203B1A
S214006AA002EAC3032A6822F060022A602A681443B6
S214006AB02C606B61E7E70623E9E71023E7E7082386
S214006AC0E5E700BF40410500F8FF7F0040F6AA63F7
S214006AD0C36041F205020023036042600B4A8360F4
S214006AE04361C36482640A4A0366904243678367CD
S214006AF0C36705D002F58062904203D08365704775
S214006B000365FBE703658365C3657047F9FF01000E
S214006B100000014038B5044611F0F0FF0FCC044DDC
S214006B200FC594E80F0085E80F00002038BD00BFB1
S214006B308834002047F6FF739A42F0B572D00629D3
S214006B4072D83A4B5B5C022B6ED8394D05EBC3040A
S214006B50DF00A17815F83330012938BF0121012B59
S214006B6013D1E0780025401AA84202D80844C0B2E3
S214006B70F0BD431BA0EB5303666836F913609642DC
S214006B80CCBF03F1FF301D46EEE760680028EFD06B
S214006B90B0F90040944204DBB0F902409442B8BF1A
S214006BA014468388FF2B04BFB0F90620B0F908C04E
S214006BB03D440FBF01260026C8224FF0280C131BA9
S214006BC093FBFCF333446E781BB29E4201DD002B30
S214006BD001DA731E1BB201339BB24FF47A7C071D99
S214006BE05D1E2DB24FEAC50E00EBC5059E42EA8833
S214006BF0AD6814FB025222EAE27202F15C02B2FBBA
S214006C00FCF205DD37F83350954203F10103E7D275
S214006C1000EB0E039888904228BF1046884238BF83
S214006C200846A4E7FF20A3E70020A1E7C8960100D6
S214006C30883400200629F0B561D8324B595C022909
S214006C405DD8314B13F83100012816D103EBC10390
S214006C509C78D8785B68012C214638BF0121904289
S214006C6094BFC1EB0001C1EB0201CAB2001B824215
S214006C70C8BF002233F91200F0BD002A3DD003EB56
S214006C80C103596800293AD09878904202D3B1F9E6
S214006C900200F1E7DC78B1F900009442ECD95C78A8
S214006CA08B88A3F1FF06013C734201F10405E4B2B0
S214006CB0734101F10C07DEB2B44216D805EBC303EC
S214006CC04FF47A75B3F902405B686A43D21A04EB54
S214006CD0D47302EB630292FBF4F29042CCDBB1F980
S214006CE002009042C8DC10B2C6E737F833C09445BD
S214006CF003F10106E2D33346DDE70448BCE7044867
S214006D00BAE700BFC8960100883400200CFEFFFFDB
S214006D100080FFFF08B50448FFF7FCFEBDE808400A
S214006D20012011F00EBF00BFD0960100004870474A
S214006D30E61200207FB51422002101A810F0FFFF04
S214006D40044B029301A94FF0FF3011F03FFF07B04C
S214006D505DF804FB006A1800024B03480122C3F8E2
S214006D60042670470010C84300000F40054B9842A9
S214006D7001BF03F16E7303F588330022C3F80426BF
S214006D80704700BF00000F407FB5094B6A4603F10D
S214006D901006154618685968144603C40833B342EB
S214006DA02246F7D12846FFF7CBFA002004B070BD84
S214006DB08897010070B5184B86B001AA03F110063B
S214006DC0154618685968144603C40833B342224669
S214006DD0F7D11B882380114BD3F8B420120316D5A5
S214006DE0A3F500434FF6FF721B88934208BF4FF48B
S214006DF0B4730B48ADF80A30FDF73AFC2846FFF7A7
S214006E007DF83220FEF74EFF002006B070BDD3F8A6
S214006E10B830C3F30803ECE7989701000081E00F51
S214006E2000F0490210B50C480C4C6FF00403A0218A
S214006E3013F0800F03F1010207D12344222A83F8BE
S214006E4000131346F4D1002010BD03F00F03043BDB
S214006E50034419761346EBE700ED00E000E100E09E
S214006E6000F00CB800F00AB800F008B800F006B859
S214006E7000F004B800F002B800F000B872B61EF0D9
S214006E80080F09D01EF0040F0DD0DFF850E0AEE872
S214006E90FF1F6FF002000CE0DFF840E0AEE8FF1FD7
S214006EA06FF00E0005E0DFF834E0AEE8FF1F6FF08D
S214006EB006006946EFF309828EE807008646084812
S214006EC0084C854501D3A54501D384F3088802F014
S214006ED00DFC84F3088802F0C5FB000000100020BB
S214006EE04000002000100020BFF35F8F074B5A6A57
S214006EF022F480325A62D3F8942022F00102C3F8BA
S214006F009420BFF34F8FBFF36F8F704700ED00E004
S214006F10F0B5374D37493848002387B0CDE90333FD
S214006F20FFF7E2FF2C68354B4FF00052C3F898404D
S214006F30661CC3F89C208142314AC3F8A0202E600C
S214006F4041D005AB019304AB0A1A009303AB0DF0D6
S214006F5030F8DDE90372059BDFF8A8E0072BA2EB0B
S214006F6001024FF001018CBF4FEAD30C4FF0200C0A
S214006F70B2FBFCF201FA02F2013AD2B2AEEB070E15
S214006F80C01BB3FA83F3BEFBFCFEB0FBFCF08E44E2
S214006F90814002FA0EF20139C3F11E0311435B0071
S214006FA001F0FF0103F03E0343EA0123134A43F0D6
S214006FB0407343F001130234C2F89860C2F89C7024
S214006FC0C2F8A0302C60BFF35F8F0C4B0522C3F8CD
S214006FD094205A6A42F480325A62BFF34F8FBFF34E
S214006FE06F8FBFF34F8FBFF36F8F07B0F0BD00BF3B
S214006FF0A8340020001300200013002000ED00E05D
S21400700039000113FF12002070B5002386B0164623
S214007010CDE90333FFF768FF05AB019304AB3246B7
S214007020009303AB0CF0C5FF0446DDE90303059AA5
S214007030013B072A8CBFD60820260D465B1A012185
S2140070403344241AB3FBF6F301FA03F3013B013C85
S214007050DBB22D1A3444B4FBF6F4A140013D0139ED
S214007060B5FBF6F5AB40194301F0FF01FF292BD025
S214007070B2FA82F3C3F11E03144D154A2C68C2F807
S21400708098405B0003F03E0343EA012343F0985325
S21400709043F001130134C2F89C00C2F8A0302C6003
S2140070A0BFF35F8F0523C2F89430536A43F48033EE
S2140070B05362BFF34F8FBFF36F8FBFF34F8FBFF394
S2140070C06F8F002006B070BD2820FBE7A834002094
S2140070D000ED00E030B50E4C416123688BB92060AE
S2140070E083600DE0891A9A6841611D466AB11346AD
S2140070F05A698A42F6D935B1A860521A83605A6135
S21400710030BD0025F4E72060F7E798608260F7E777
S214007110B434002038B500F07BFA094C094B1A68E5
S21400712023680025C31A2AB123B15169994203D3B3
S214007130C91A5161206038BD55615B1A9268F2E742
S214007140B0340020B434002038B5134D2B685B698A
S21400715093B1124A146802201C4400F08DFA2046AF
S21400716000F05CFA0E492A6800230B70D08880076E
S21400717009D501230B7038BD022000F07DFA0220ED
S21400718000F0A0FAEEE79268002AF4D050690344B3
S214007190012BEBD9EFE700BFB4340020B034002059
S2140071A0EA3D002070B516469DF814200271049A38
S2140071B00260C0E903360022BDF81830826004463B
S2140071C00D46C380EEB900F023FA2844A0619DB1B5
S2140071D02E460CF01EFD0546FFF79CFF3146204666
S2140071E0FFF778FF104B1B68A34201D1FFF7ACFFF7
S2140071F028460CF012FD02E0E36865617BB90020CA
S21400720070BD00F005FA3044A061002DE0D1E368BF
S2140072106561002BDDD0216820469847D9E72168B4
S21400722020469847EBE700BFB43400200C490B68B3
S21400723000227BB183420AD183687AB19360836867
S2140072401BB15A6941690A445A61002070471A46C0
S2140072509B68EEE70028EFD0022070470B60EEE751
S214007260B434002070B5154E0CF0DEFC34780546BC
S214007270FCB9134B1C60134B1C60134B1C8000F0B6
S21400728083F9012000F0F8F900F04CFA0F4B0246A3
S214007290186020B928460CF0CDFC232070BD23468C
S2140072A00B4840F2E73104F03FF80A4B1860012320
S2140072B0337028460CF0BEFC0020EFE7EB3D0020C4
S2140072C0B4340020B0340020F23C0020B834002053
S2140072D018FCFFFFAC34002070B5044640B30CF039
S2140072E098FC144E0546FFF715FF3068A04209D0FB
S2140072F02046FFF79BFF0446B0B128460CF08DFCF5
S214007300204670BDFFF792FF04460028F5D133688B
S2140073103BB9022000F0BEF928460CF07EFC0024A3
S214007320EEE7FFF711FFF7E73368002BF4D1F0E73D
S2140073302224E5E7B434002038B50C460546A8B14B
S214007340A1B100230B700CF06FFC094B1B680121E8
S21400735033B90CF06FFC002038BD9D4204D121707B
S2140073602278002AF9D0F4E79B68F1E72220F3E7B9
S214007370B434002070B50CF057FC064600F048F90F
S214007380084B1D8804460120ADB200F0A3F918B1E1
S21400739000F03EF90135044630460CF04BFC204622
S2140073A0294670BDF23C0020F8B50C4B1B688342A2
S2140073B005460E460FD30A4B00241F6840F2E730FE
S2140073C021464FF47A720023E5FB070103F0ACFF79
S2140073D030602046F8BD2120FCE700BFAC3400201A
S2140073E0B8340020014B1868704700BFAC3400204A
S2140073F038B5154B8342154B8B41144621D3144B9D
S2140074001A68F2B14FF47A75A0FB050305FB01314B
S214007410531E134211D1B2FA82F2C2F11F05531C59
S21400742001FA03F3D243E84021FA02F2184310436C
S214007430E940C4E90001002038BD002303F074FFD2
S214007440F7E72120F8E700BFEFA7C64B37894100D2
S214007450B8340020C2072DE9F84304460BD5474A46
S214007460138801339BB21380FFF754FE444B1B680E
S2140074700BB1FFF769FEA3077DD50CF0D5FB0546DB
S214007480FFF748FE4FF000083D4F46463C680CB1FB
S21400749063698BB13B4B0022012E1A7003D118F0A2
S2140074A0020F18BF1E70002C61D0FFF74DFE284655
S2140074B0BDE8F8430CF0BEBB23465A693AB91A79C0
S2140074C02179914288BF1C469B68002BF5D128463F
S2140074D00CF0B0FB2569DDB100F09AF8A269A0EBCC
S2140074E002084FEAE873A84573F1000311DB23692D
S2140074F01344A361E368B4F80680013613B121682B
S214007500204698470CF090FB0546FFF703FEBDE7C4
S214007510A8460CF089FB81462046FFF787FE4846C2
S2140075200CF088FB2369002BE4D0A38BB5EB080591
S21400753033B1E28B13449BB2B3F57A7F0FD2E38369
S2140075400CF072FB294680462046FFF7C3FDA36970
S21400755022691344A36140460CF06CFBCAE7A3F50E
S2140075607A73E383A369013B013DA361E8E7022048
S21400757000F090F89BE7BDE8F88300BFF23C0020DF
S214007580B4340020E93D002010B51D4B86B01868C5
S214007590596803AA03C2197AD3F80900117001903A
S2140075A0B3F80D201748DB7BADF8082001218DF8D5
S2140075B00A300024FEF790F903A88DF80C408DF8E9
S2140075C01040FFF7F9F901A901208DF80440FFF7F4
S2140075D0D3F90D4A536A23F4FF6323F0070353627B
S2140075E040F2FF73136201209460FFF7DFF9074B48
S2140075F04FF00052C3F880211A6006B010BD00BFDD
S214007600AA970100A00914000020044000E100E051
S214007610014B9868704700BF0020044010B5044630
S2140076200CF0F7FA124A9368516D9269520704D427
S214007630CA1A032A01D899420DD1E21A022A98BF23
S214007640DC1C0B4BB4F1FF3F38BF013C5C655A6A4B
S21400765042F004025A620CF0E0FA064A137833B19C
S21400766003490B6D43F002030B650023137010BD36
S21400767000200440F61200208207054A00F00103AD
S214007680516A48BF43F004030B435362704700BF80
S21400769000200440820700F0010309D5074A0121B3
S2140076A0117007490A6D22F0030243F004030A65CD
S2140076B003494A6A22EA03034B627047F612002027
S2140076C000200440830742BF014B0422DA61704762
S2140076D000200440064B01289B6904D0022805D1EF
S2140076E0C3F38000704703F0010070470020704726
S2140076F00020044010B50CF097FA094A9369044636
S214007700590703F0010003F0070348BF40F00200EA
S2140077101362FFF79FFE2046BDE810400CF08ABAC1
S214007720002004400148FEF70FBA00BFA00914006D
S21400773010B50446FCF784FF0B4BA0F57A729A420C
S21400774010D84FF47A735C43B0FBF3F0074BB3FBEF
S214007750F0F3B4FBF3F0032804D9BDE8104080082A
S214007760FCF7B6BC10BD00BFFFC99A3B40420F00F5
S21400777007B500B9FEE7037F03B1FEE70090054BAF
S2140077804068012211F07DF800B1FEE703B05DF815
S21400779004FB00BF0B41010030B5044685B0084627
S2140077A004B9FEE7237F03B1FEE703A96568FFF788
S2140077B0FBFD48B90123CDE90003054A039923469A
S2140077C028460CF019FC00B1FEE705B030BD00BF3E
S2140077D011410100154910B5A1F148000CF04BFC11
S2140077E0A0B11249A1F148000CF045FC0446A8B926
S2140077F00F49A1F148000CF03EFC044668B10D4963
S21400780020460CF08DFC0A492046F4E70849A1F111
S21400781048000CF030FC0028E3D110BD0649204695
S2140078200CF07EFC01492046DEE700BF5435002000
S2140078300C350020F59C0000AD9C0000014B1B6938
S214007840184700BF0C3500200D4B70B515461A685A
S2140078500C4602B9186061190A4A4FF000035B41F2
S214007860C2E900130CF0E0F92A4606462146044811
S2140078700CF068FC3046BDE870400CF0DBB900BF89
S2140078800C3500205813002010B50CF0CDF9044636
S21400789003480CF00CFC2046BDE810400CF0CAB9BA
S2140078A00C350020014B1B69184700BFC43400206C
S2140078B070B50CF0AEF9054611F09DF908490B6855
S2140078C008608342074B82BF1A6801321A601E683E
S2140078D0044628460CF0A1F92046314670BD00BF8C
S2140078E0C0340020BC340020094B70B516461A6818
S2140078F00D4602B918600CF097F932460446294640
S21400790003480CF01FFC2046BDE870400CF092B90E
S214007910C434002010B50CF087F9044603480CF078
S214007920C6FB2046BDE810400CF084B9C4340020E5
S21400793008B5FEF7E5FF034B1860BDE80840FEF704
S214007940D9BF00BFC4350020BFF34F8F0549064B93
S214007950CA6802F4E0621343CB60BFF34F8F00BFE8
S214007960FDE700BF00ED00E00400FA050E4B1B68C3
S214007970DA070ED459050ED41A050ED4D9050ED43E
S2140079809A050ED4094A1A40002A14BF062007207A
S214007990704700207047022070470820704701207B
S2140079A070470320704700BFC43500201C0001004C
S2140079B010B501F035FE044601F038FE21460246B9
S2140079C0104802F0C5F801F025FE044601F03CFE22
S2140079D0214602460C4802F0BBF801F021FE0123C6
S2140079E0834040F2A17213420AD0002001F020FD2D
S2140079F0002001F033FCBDE81040002001F0E2BB9F
S214007A0010BD00BFBA970100D09701000E4B10B50D
S214007A101C68A0235C4308B9FFF744FF0B4B1B68A8
S214007A20B3FBF4F204FB12332344B0FBF4F204FB82
S214007A301200181AB0FBF4F304FB1300A023B0FBEB
S214007A40F3F080B210BD00BFCC350020C835002052
S214007A502DE9F04104460D460CF021FD002855D0D6
S214007A6020460CF023FD002850D0277F17F0100783
S214007A704CD1FF2D00D1FEE720460CF0E8FCA8B163
S214007A8020460CF024FD0646002843D0224B3C221C
S214007A9002FB05335B785A1E90420DD083420AD013
S214007AA00133984234D00820BDE8F0811A4B3C22BE
S214007AB002FB05335E7801274FF03C080C2318FBC9
S214007AC0053303EB0713144F3B44A360237FDB0708
S214007AD016D420460CF0BBFC28B108FB05F3FA18B8
S214007AE0FE5453689360314620460CF0FDFC3C2360
S214007AF003FB0577204679684B1C7B600CF0F6FC90
S214007B000649204601EBC5010CF0BAFC0020CBE785
S214007B100227D1E70120C7E7D03500200F3E00201E
S214007B2010B5084C206810F0A6FE012804D0206886
S214007B300122002110F0A1FE2068BDE8104005F0EB
S214007B4077B900BF1036002038B51D460B4B1446DB
S214007B500A460146186811F030F808B1002038BD12
S214007B606088A368411C89B229801B788B42F5D1B6
S214007B7003387B288CBF00200120F0E71036002059
S214007B8038B504460CF050F8044B1D680CF052F85B
S214007B90254214BF0120002038BD00BF0C3600204F
S214007BA008B50220FFF7ECFF28B1034B1B681B68E3
S214007BB01878C0F3401008BDB0360020074B10B54B
S214007BC01B681B6802201C88FFF7DAFF20B104F050
S214007BD00704E31E5842584110BD00BFB0360020CF
S214007BE038B504460D460CF01FF8064B1A682DB142
S214007BF014431C60BDE838400CF01CB822EA0404AC
S214007C00F7E700BF0C36002070B50646224D3368F5
S214007C1028680C4663B3972111F079F8024600B144
S214007C20FEE73168286805F02BFB3379834200D0E5
S214007C30FEE701222868114611F09BF800B1FEE726
S214007C400CF021F9032206461146286811F081F847
S214007C507F2C1FD0286810F03EFFFF280FD104EBC2
S214007C60840464002868314610F037FF60B1FEE7F0
S214007C7005F0C0FD00B1FEE7FFF758F8E2E7286818
S214007C8005F014FB0446EDE72868214610F03AFF9D
S214007C9000B1FEE770BD00BF1036002008B5054BEA
S214007CA000EB80004100186810F02CFF00B1FEE7E2
S214007CB008BD00BF1036002008B5FFF771FF00B9F9
S214007CC0FEE70820FFF75CFF00B9FEE701214FF44E
S214007CD08060FFF785FF08480021FFF781FF00213D
S214007CE00820FFF77DFF054B186805F0A1F8044B48
S214007CF000221A7008BD00BF0200010010360020E6
S214007D00FC3D00202DE9F0431D4BDFF888801D4F19
S214007D101D4C18700D46D8F8000085B01646002198
S214007D2001223A7010F0A9FD2279EBB29A4225D8CA
S214007D3062799A4222D3DFF86090D9F80030A342E5
S214007D4005D07F212046FFF75FFFC9F80040FF23DC
S214007D508DF804300D4BD8F80000CDE902363246D7
S214007D6001AB294605F0D8F828B1094B7F221A70D6
S214007D7002233B70012005B0BDE8F0830720FAE738
S214007D80193F00201B3F00201836002020A10700C6
S214007D901A3F00201036002014360020F8B506469C
S214007DA014460F46FFF784FD356885420A4696F965
S214007DB00E0028BF01F1FF324FF0000CF17B767BFE
S214007DC063465D193EB1124BC3E902525875997568
S214007DD083F828C0F8BD0F4BDFF844C05875C3E9D8
S214007DE00252DA7D8CF8000044EA470422F00302CF
S214007DF004F0030414430848084A99750170117882
S214007E009268DC7583F8286019751A61E2E700BF8E
S214007E10A8130020D8130020183E0020D0350020DC
S214007E20173E002010B504460220FFF7A9FEC0B199
S214007E30B4F5007F4FF0010110D12046FFF7D0FEC9
S214007E4000211020FFF7CCFE06480021FFF7C8FEF1
S214007E50054BBDE81040186804F0EABF4FF48050A8
S214007E60F0E710BD0A0001001036002007B50D4BE4
S214007E700DF10601186810F092FD0B4BBDF80610C8
S214007E8093F90020094B0B447F2A13F90B0C05D1FC
S214007E907F2808BF002003B05DF804FB9042A8BF0F
S214007EA01046F8E710360020FE3D0020FF3D00207B
S214007EB02DE9F04F9402E3B0064615461F4640F102
S214007EC0DB80FFF7EFFC3B4B824609A9186810F0F1
S214007ED071FEBDF826E0BEF1020F40F2CD800DF136
S214007EE0240CBCE80F0042AC0FC4BEF1270FDCF830
S214007EF0003023600AD9BDF828202723262AADF8AB
S214007F000A3182BFADF80C310023459342A922A85E
S214007F100CF098F99DF80A41002C00F0AD800DF1A8
S214007F2089030E930B9BDFF8A0801B78ADF83C30DE
S214007F300DF160090DF20913C9F800300EA80CF017
S214007F40A1FA002800F0BA8106A90EA80CF087FA5C
S214007F5098F800405CB19DF8204044B1022C22D134
S214007F6006A9002000F0A4FFC443C4F3C034124A9C
S214007F70124992F90020097805AB06A801F0F2FC38
S214007F800F4B804610B3186810B10E4801F046FD3E
S214007F90834642460B4805A901F05AFD00EB0B0844
S214007FA05FFA88F818E0BDF81810002000F00AFF05
S214007FB0DAE700BF10360020173E0020183E0020EB
S214007FC0CC350020EC3D0020183F00201B681BB17C
S214007FD0B24801F023FD8046B04ACDF800904346F3
S214007FE021460EA801F000FD002845D1AC4BD3F881
S214007FF00080B8F1000F12D0BDF83C30BDF8262046
S2140080005B0103F5D073A3EB421303EB0A00FFF703
S214008010FDFC1FFA88F1024648460CF03EFA18A806
S2140080200CF03DFA20B1002118A8FFF711FD18BB8F
S21400803009A80CF0F9F8F8B9DDE90B83BDF828209B
S21400804018A8002A08BF98460CF029FA28B198F814
S214008050003043F0040388F800302CB198F8003064
S21400806063F07F0388F8003099F804208DF8082123
S21400807042A9304610F0AEFEE80105F0807240F1ED
S21400808079810220FFF77CFD68B100211020FFF700
S214008090A7FDFFF785FD0446002800F05F8101215B
S2140080A00820FFF79DFD2020FFF76AFD05F400512C
S2140080B00446002800F06F8121B101214FF40040F2
S2140080C0FFF78EFD15F4404F06D0002148F2200041
S2140080D0FFF786FDFFF724FD290740F1888030462C
S2140080E010F06FFDDFF8D0B1DFF8C4810023014641
S2140080F0ADF86030D8F80000DBF80030039322AA11
S21400810010F054FD8246002800F07C819DF88830EF
S214008110072B40F0778118AB22AA42A9FFF714FD7F
S214008120002800F06F8122A80CF07EF8002840F0AE
S2140081306981BDF88C30002B40F04581259B1C786A
S2140081409DF81531002B00F04081BDF86090B9F124
S214008150030F40F2578104F00702022A40F05281D2
S214008160039822A90CF06EF85146D8F80000ABF838
S214008170049010F028FDFFF713FD002830D0494A80
S214008180039B1268997812689278914228D19DF8DC
S2140081900E21D8F80000002A00F0348109F101030E
S2140081A042A9ADF80C3110F00AFD8146002840F0D7
S2140081B029810246FF23014642A8FFF7EFFD012171
S2140081C04FF48070FFF70CFD37484946FFF708FD6F
S2140081D0FFF7F4FC20B1E20642BF344B01221A70CE
S2140081E0FFF7ECFC18B9D8F8000004F021FEAB014C
S2140081F04FF000080CD52D4C41460420FFF7F0FC4C
S21400820023782BB12A4B186804F012FE84F80080FD
S21400821015F0084F03D000210420FFF7E1FCAC0066
S21400822003D500210420FFF7DBFCA80705D50820AE
S214008230FFF7A6FC08B1FFF73FFDF90540F1EB801C
S214008240304610F004FB34280AD000F209811428C6
S21400825006D000F2DD80421ED2B2042A00F2DB8095
S21400826014480021FFF7BCFC0420FFF789FC18B176
S21400827000210420FFF7B4FC0220FFF781FC18B1B0
S2140082804FF40070FFF7CEFD0820FFF779FC0028BA
S21400829000F0C180FFF710FDBDE000BFEC3D002000
S2140082A0CC350020B03600200A000100FC3D00203E
S2140082B01036002060000100A8130020012C98F85A
S2140082C0003018D103B342A9304610F080FD0346B3
S2140082D000283AD19DF81031032B2BD09DF8103191
S2140082E0022B7FF4C9AEBDF80811002000F06AFD2D
S2140082F0002824DAC0E6002BE5D19DF8893003F08B
S2140083000703012B3FF4B8AE304610F05EFD10BBFD
S21400831009A80BF089FF00287FF4AEAEDDE90B322A
S214008320BDF82810002908BF13461A7862F07F02AD
S2140083301A70A1E642A900F0BBFD0028CEDB30464D
S21400834010F043FD03460028E2D0022B05D1494831
S2140083500CF02CF990E60228F9D0FEE7464B186898
S21400836004F066FD01214FF48070FFF739FC4348A6
S214008370214696E607F002031A4304D04FF4007035
S214008380FFF750FD8FE605F0A8421A433FF48BAE88
S2140083904FF48050F4E749B101214FF48030FFF7E5
S2140083A01FFC21464020FFF71BFC95E607F0200344
S2140083B00B433FF491AE4020FFF712FC4FF40060F1
S2140083C0FFF730FD88E6249BB9E62D4B1B781BB9DA
S2140083D0BDF86030042B15D914F0200404D0012118
S2140083E00420FFF7FDFB02E7DFF8A09099F80030C5
S2140083F0002B3FF4FCAED8F8000004F019FD89F815
S2140084000040F4E6D8F80000514610F0DCFBEEE63B
S21400841024283FF425AFBA0504D50022114630467D
S21400842004F05AFFEB0713D5304610F0D2FB044693
S214008430304604F0FDFC14F5007F15D0002CB8BFC4
S214008440033444F387040F4B1C700F4B02221A7040
S21400845017F0C00F0AD163B0BDE8F04F0BF049BF6C
S21400846000F0EF02442AD4E77F24ECE763B0BDE8CF
S214008470F08F00BFF09701001036002002000100C8
S214008480FD3D00201A3F00201B3F0020FC3D002041
S21400849030B5164A0C461068516885B002AB002C01
S2140084A003C304F1FF350DD1FEF7C2FACDE9000192
S2140084B002AA2B46073412F8011D03F8011FA34237
S2140084C0F9D110E00A4B0B492A4613F8010902F8C5
S2140084D0010F8B42F9D108220DEB020120460FF066
S2140084E004FC0028E0D005B030BD00BF0F980100A6
S2140084F00900E00F0100E00F002310B51A460C46F5
S21400850007480CF056F82146002000F04DFC054BBD
S21400851000221868214610F0FCFB00B1FEE710BDF3
S214008520189801001036002030B5134B87B001F1C3
S214008530080414F8012D03F8012B8C42F9D100250C
S2140085406379A279E17905952078049060780390A4
S214008550A0780290E07801902079009007480CF00F
S21400856028F8074B2A461868214610F0DEFB00B1B3
S214008570FEE707B030BD00BF0F3E00203198010077
S2140085801036002010B5074800220C460CF011F8F3
S214008590054B00221868214610F0C1FB00B1FEE72B
S2140085A010BD00BF539801001036002008B501200A
S2140085B0FFF7E6FA10B902480BF0FBFF002008BDF3
S2140085C06998010008B50120FFF7DAFA10B10248F1
S2140085D00BF0EFFF002008BD8498010010B50220C4
S2140085E0FFF7CEFA044650B906480BF0E2FF20200B
S2140085F02146FFF7F5FAFFF793FA204610BD05204F
S214008600FCE700BF6998010070B50F4C23798342E0
S2140086100D4617D86379834214D30C4E3368A342B1
S2140086200CD00B4B01221868002110F026F92946C1
S2140086302046FFF7E9FA3460002070BD0846FFF7D1
S2140086402DFBF9E70720F8E718360020143600203F
S2140086501036002030B5022085B00D46FFF790FAA0
S21400866048BB164B1B78012B25D0FFF7FFFB0146B6
S2140086702846FFF7C9FF044670B9FF23CDE901007D
S2140086808DF804300E4B039001AA1868294604F0B2
S21400869029FC044618B10124204605B030BD09481F
S2140086A00BF087FF21462020FFF79AFA064B9D71B4
S2140086B0064B9D71F0E70D24EEE700BF1B3F002040
S2140086C010360020A2980100D8130020A81300201E
S2140086D02DE9F04188B00D4617461E46FFF7C6FB4B
S2140086E004461B48FFF74CFA20B10124204608B088
S2140086F0BDE8F08121462846FFF786FF04468046FF
S2140087000028F3D101212020FFF76AFAFF23114841
S2140087100394CDE901448DF804300123ADF81C30F4
S21400872000688DF8144001AB04AA29468DF81E4057
S2140087300497069604F0E4FB044620B9064B9D71A8
S214008740064B9D71D2E741462020FFF749FACCE759
S2140087504000010010360020D8130020A813002087
S214008760F0B5022089B0FFF70BFA00B9FEE73A4CE5
S214008770236803B9FEE71020FFF702FA2368374D97
S2140087809B888DF80B3001231A460DF10B012868E3
S21400879010F006FA9DF80B20216828680968023A4E
S2140087A0002392B210F0FCF92D4B93E8070005AEBB
S2140087B086E8070023681B681F782020C7F3401749
S2140087C0FFF7DEF948B128680021012210F055F8BD
S2140087D0002148F22000FFF703FA2268536903BB22
S2140087E01020FFF7CDF9A0B122681E4B117E9970BC
S2140087F01D490978D9709179009628683A4604F0A0
S21400880053FB38B34FF48050FFF70CFB0BF071FDB1
S21400881020E021682868897933463A4604F036FB1A
S214008820EFE7116911480B440021ADF810109621AE
S21400883081809179CDE90006A3F59B7303932868A0
S21400884003AB3A4604F03EFB0028DBD10121402072
S214008850FFF7C6F909B0F0BDB0360020103600208C
S21400886014990100E0100020F7120020D410002018
S2140088702DE9F0410C460746FFF7F8FA324B9C42CA
S214008880014600D0FEE72268304B9A4200D0FEE751
S214008890A079FFF7B9FE0546002852D10220FFF75F
S2140088A06FF900B1FEE729464FF4F850284EFFF75F
S2140088B097F9217F84F828503460264CC1F3800154
S2140088C01020FFF78DF9236863B1D6F80080D8F83A
S2140088D014303BB910F08FF93368C8F8100040F632
S2140088E0B8325A61D4F80080B8F1000F0FD034685F
S2140088F0237FDB070BD4D4E904031844A030FFF72A
S21400890085F81FFA88F1024620460BF0C6FD30684F
S21400891090F82810FFF79CF80BF086F90121044622
S2140089200220FFF75DF9FFF71BFF20460BF082F9E8
S2140089304FF48050FFF724F918B1034938460DF07C
S2140089409FF82846BDE8F08178130020193E0020E5
S214008950B0360020CC350020004870477813002041
S21400896038B5154B02209D79FFF70AF908B17F202C
S21400897038BD124C2378002BF9D110222946FFF778
S214008980C1F90028F3D110F036F905462378012BFB
S21400899005D110F030F9431BB3F5967FF6D3237854
S2140089A0022B04BF064B18784FF000030CBF40B2F2
S2140089B07F202370DCE700BFD81300201B3F002079
S2140089C01A3F0020014B1878704700BFFD3D00207D
S2140089D008B5044B1970044B186810F0ACF900B1D8
S2140089E0FEE708BDFD3D002010360020014B197043
S2140089F0704700BF183F002010B50C4649B1064B23
S214008A00186804F053FC0A2390FBF3F02070002053
S214008A1010BD0720FCE700BF1036002008B5074B46
S214008A201970FFF723FA064B00EB8000410009B2ED
S214008A30186810F067F800B1FEE708BDFE3D00209C
S214008A401036002008B5A1F10B030F2B09D8064BF2
S214008A500B4403F80B2CFFF709FAFFF71FF9002069
S214008A6008BD0720FCE700BFFF3D002021B1034BF7
S214008A701B780B700020704707207047F712002005
S214008A80014B002019707047F7120020064B00209B
S214008A901870064B1B782BB94FF47A735A43012093
S214008AA0FFF730B905207047F81200201B3F002062
S214008AB010B50C460BF0B8F8024B5C60BDE81040F1
S214008AC00BF0B8B8D0350020F8B51746DDE90665D6
S214008AD01C460BB106B105B9FEE70021FFF7E8FF1B
S214008AE0124A234657700C3204F11007186859686A
S214008AF0144603C40833BB422246F7D10C4C334617
S214008B00103618685968224603C20833B342144622
S214008B10F7D1084C2B46103518685968224603C210
S214008B200833AB421446F7D1F8BD00BFD03500205D
S214008B30EC350020FC35002010B50C460BF074F820
S214008B40044B5A68A24238BF5C60BDE810400BF088
S214008B5071B800BFD0350020014B00201960704767
S214008B60CC350020014B1960704700BFC835002087
S214008B702DE9F0478CB080460BF056F87A4E7B4FC6
S214008B807B4B3B60044601AA3068022110F00EF8C9
S214008B90054600283BD120460BF04CF84FF4F85021
S214008BA0FEF7EEFF08B34FF48070FEF7E9FF714E54
S214008BB00546002800F0A38033686F4D1B681B78BD
S214008BC0002113F0200F4FF4807008BF0025FFF738
S214008BD007F8002431680023C1E904332A462346F7
S214008BE040460CF054FF0BF084FB644B1B78012BC3
S214008BF040F0B780624B1A78022A40F0B280614C8F
S214008C0000221A702378FF2B40F09E80FEE79DF826
S214008C100430072BBFD10DF1020301AA06A9FEF707
S214008C2093FF002851D001A80BF0FEFA00284CD183
S214008C30554B1B783BB99DF82530002B45D1BDF828
S214008C400230042B41D9386801A90BF0FBFA3B68C7
S214008C50BDF82C20BDF802A0BA71A7F804A093F8BE
S214008C60009009F07B021A70306829460FF0ABFFBF
S214008C709DF81E3038BB002B8DD0054630680AF1B3
S214008C80010A06A9ADF81CA00FF099FF034608BB21
S214008C904FEAD912C9F3800106A8FFF77FF8E5B9B5
S214008CA03A4D20460AF0C6FF00232B70B8F1000F9D
S214008CB006D097F828402D4E30460BF0ECFA88B1D7
S214008CC00BF017FB6AE7002BD8D1306829460FF067
S214008CD07AFF60E7002DF8D15DE7306829460FF08F
S214008CE072FFDDE72A78314640460CF0C2FE97F860
S214008CF02830002BE4D1FF2CE2D11C46DCE74FF4F1
S214008D000070FEF73DFF044658B129464FF4007048
S214008D10FEF766FF0F241E4821460BF04DFC00258B
S214008D2058E74FF48060FEF72BFF014630B121462E
S214008D304FF48060FEF754FF0E24ECE74FF48050AB
S214008D40FEF74EFF0B24E6E7124B1978404649B271
S214008D500CF0A9FEFF2323700CB0BDE8F0470BF023
S214008D60C8BA0CB0BDE8F08710360020D813002033
S214008D70C0360020B0360020A8130020193F00207F
S214008D801B3F0020F8120020FD3D0020983E0020EA
S214008D90BF9801001A3F0020024B0146186810F0E9
S214008DA021B800BF103600200A46014620B9034B02
S214008DB003481A800BF0FDBB704700BF443D0020FF
S214008DC02099010080B90A4B1B881944094B89B2C7
S214008DD01A888A4203D19A780AB100B270470130E5
S214008DE00A2803F10403F3D14FF0FF30704700BFA9
S214008DF0443D00201C3D002038B5124B0D46002493
S214008E0013F82420CAB101340A2CF9D14FF0FF34EC
S214008E102B460D48224600210BF0CEFBA3B2092BB1
S214008E200DD80A4A0A4B1288154423F8245003EB3F
S214008E30840301229A70002038BD24B2E8E703209C
S214008E40FAE700BF1E3D00203E990100443D002089
S214008E501C3D002038B500200D46FFF7B3FF2B461B
S214008E6004460246002108480BF0A6FBA3B2092BD5
S214008E709FBF064B03EB8402002023F8240094BF18
S214008E8090700A2038BD00BF6B9901001C3D002081
S214008E9008B5054800210BF08FFBBDE808400348E5
S214008EA0282200210EF04BBF9A9901001C3D00209D
S214008EB010B5C8B90E4B0A884C881B882244134448
S214008EC08A8812FA83F3CA8812FA83F3094A9BB295
S214008ED01188994203D1917809B100B210BD0130D2
S214008EE00A2802F10402F3D14FF0FF30F6E700BF84
S214008EF0443D0020F43C002038B5164B0D460024B7
S214008F0013F8242012B301340A2CF9D14FF0FF34A1
S214008F102B461148224600210BF04EFBA3B2092B2C
S214008F2016D80E4B69881A882B880B441A44AB88CF
S214008F30E98813FA82F20A4B11FA82F223F8242007
S214008F4003EB840301229A70002038BD24B2DFE7C9
S214008F500320FAE7F63C0020BC990100443D0020BF
S214008F60F43C002010B50020FFF7A2FF00210446C5
S214008F70024608480BF020FBA3B2092B9FBF064B06
S214008F8003EB8402002023F8240094BF90700A208C
S214008F9010BD00BFE3990100F43C002008B5054869
S214008FA000210BF009FBBDE80840034828220021F9
S214008FB00EF0C5BE039A0100F43C002010B5064B27
S214008FC00446186000F082F82046FFF7D1FD2046E0
S214008FD0BDE81040FEF7FEBB403700202DE9F04705
S214008FE01A4EDFF870901D461746B6F88020B6F881
S214008FF0823099F800A09BB2A3EB0A032B4492B2EE
S21400900003F07F039A42804616D0B6F88200A5EB9E
S2140090100A0207EB0A0116FA80F00EF0EFFDB6F82A
S2140090208240A4B2A4EB0A042C4404F07F0400237C
S214009030A6F8824089F800302A4639464046044B56
S214009040FCF7FCFABDE8F0470BF053B9463D0020AC
S214009050DD8F00001D3F0020024B01221A700BF02E
S21400906048B900BF1C3F002070B50B4B0B4E0C4D93
S2140090700C4928680024A3F880408022A3F8824088
S2140090803346FCF7DBFA0849286833468022FCF7AB
S214009090D5FA204670BD00BF463D0020DD8F00009B
S2140090A0101200209E3F00201E3F00200A46014668
S2140090B0044808B50068044BFCF764FB003818BF8A
S2140090C0012008BD10120020599000002DE9FF4134
S2140090D00AF0AAFD07462B48DFF8B48000682A4C41
S2140090E003AB02AA01A90AF0BAFC98F80060029D38
S2140090F0AE4213D2B4F882000199AA1B314414FA86
S21400910080F00EF07BFDB4F8823088F8005015FA37
S21400911083F39B1B03F07F03A4F8823038460AF0E3
S21400912089FDB4F88250B4F88030ADB29BB29D424F
S2140091300DD2B4F88000B4F88010C1F1800189B275
S21400914014FA80F00BF0DCF80023A4F88030B4F8B2
S21400915080309BB29D420BD0B4F88000B4F88010EB
S214009160691A89B214FA80F00BF0CAF8A4F8805095
S214009170064B1A781AB100221A700BF0C3F804B026
S214009180BDE8F08110120020463D00201C3F002064
S2140091901D3F002008B500F0E1F9084A536A43F481
S2140091A0E0235362EFF30883054A043B4FF0CD31CA
S2140091B0934200D208BD43F80419F9E700ED00E039
S2140091C0000000202DE9F04F0024C3B0FC22214609
S2140091D003A802940EF0B3FDDFF870B01A4FDFF864
S2140091E07080DFF87090DFF870A026469BF800309D
S2140091F033B914B102A800F0ABFC43B0BDE8F08F61
S21400920006F00302032A14BF43464B46019357F861
S214009210043B009302A85B4652464FF480712044FC
S21400922002F0ACFB1BF8013B002BFBD1721C12F0CA
S2140092300305D6B203D02044C5B22C46D6E702A812
S21400924000F086FCF9E700BF00100020429F0100F6
S214009250239A010048B10100269A0100614B1B8841
S21400926040F6052293422DE9F0410ED8B3F5206F63
S2140092700DD840F20252934217D040F20172934248
S2140092801DD040F2015293420AD0BDE8F081A3F609
S2140092900223554C032B1AD8DFE803F03058869F7C
S2140092A05248BDE8F04100F053BC514800F050FC75
S2140092B04D4B196C4F48BDE8F04100F049BC4A4B95
S2140092C04D48BDE8F041D3E9241200F041BC4B48BC
S2140092D000F03EFC94F868309E0702D5484800F03F
S2140092E037FC94F86B305D0602D5464800F030FC3B
S2140092F094F96B30002BC8DA4348D2E7434800F0B5
S21400930027FC94F86430980703D0216C394800F0A5
S2140093101FFC94F96430002B03DA216F3C4800F000
S21400932017FC3C4FDFF8F88000250126626E06FA2F
S21400933005F3134206D057F825100B7813B14046B4
S21400934000F006FC0135082DF0D19EE7324800F00B
S214009350FFFB216C274800F0FBFB94F865305907AB
S21400936002D52E4800F0F4FB94F96530002B03DAA2
S214009370216F274800F0ECFB264E294F0825636E28
S214009380EB40DA0706D556F825100B7813B13846A9
S21400939000F0DEFB0135102DF1D194F86430002B7F
S2140093A07FF473AF1F487CE71F481A4E1C4F00F02F
S2140093B0CFFB216C0F4800F0CBFB1025636EEB4013
S2140093C0DB0706D556F825100B7813B1384600F0A3
S2140093D0BFFB01351A2DF1D157E7144800F0B8FB52
S2140093E0216C67E7CA3D002000100020359A010076
S2140093F0729A0100A29A0100BC9A0100D79A010055
S214009400EF9A0100299B01005C9B0100989B0100DC
S214009410BD9B010088A50100E29B0100F99B0100AD
S214009420DA9B01003F9C01006F9C0100889C0100B4
S2140094302DE9F74F3A4CD4E90D32D4E9121B580700
S2140094404CBF0026D4F85080D4F83CA05ABF354E06
S214009450DFF80091DFF8009133485ABF8B469246FA
S214009460B04613F0080F314B314918BF1946B6EB1A
S21400947008071DBF7D08642303FB0B553D4618BF38
S214009480B5FBF7F5434618BFADB24A46CDE9006ACC
S214009490BFB200F05DFB274800974B462A461FFAEE
S2140094A08BF100F055FBB24501D8C24503D22248E5
S2140094B0494600F04DFBD4E91732134327D01F4826
S2140094C01F4FDFF8848000F043FB00250126E26D85
S2140094D006FA05F3134206D057F825100B7813B199
S2140094E0404600F035FB0135202DF0D1236EDA071B
S2140094F003D51449144800F02BFB236E9B070CD5AC
S2140095001249114803B0BDE8F04F00F021BB1048E7
S21400951003B0BDE8F04F00F01BBB03B0BDE8F08F12
S2140095200010002000100020C59C0100B69C010021
S214009530BD9C0100F69C01002F9D01004D9D010081
S21400954000A50100809D01007C9D01008D9D01000D
S214009550989D0100B19C0100A99C010010B5FDF783
S214009560CFF90446FDF7C6F9E30721D401221046D9
S214009570114600FA01F3234002F101021AD0214BF2
S21400958033F811302049062B19D040F207229342B7
S21400959012D14FF000524FF20F00548884420BD184
S2140095A01088984208D14CF23C335380088010BD96
S2140095B00021E4E7112ADBD1134A138012E04FF0B2
S2140095C000534FF20F025888904218D11B88B3F50B
S2140095D0406F28BF4FF4C0630B804FF000534CF22F
S2140095E03C325A80084B1A8840F201739A4201BFF7
S2140095F0064A074BD2E90001C3E90001D7E74FF45A
S214009600C063E9E7209F0100CA3D002090100020BB
S21400961044370020014B1888704700BFCA3D002021
S214009620014B1888000A7047CA3D0020044B0548C5
S2140096301B881A0AB3F5406F38BF00EB82007047EC
S214009640CA3D0020F09E0100044B1888044B020A15
S214009650C0B253F8223003EB80007047CA3D0020AA
S214009660C09E010010B504460AF0DAFA194B4AF615
S214009670E8529A605A639A6B02F00F02022A13D1DC
S214009680154AD2F8C820520742BF144A0121116475
S2140096901B6C03F00303013B012B9FBF104B002202
S2140096A0C3F8702CC3F8802E4FF000534FF20F0211
S2140096B01C805A80BFF35F8FBFF34F8F09490A4B58
S2140096C0CA6802F4E0621343CB60BFF34F8F00BF5B
S2140096D0FDE700BF00300E4000400E40004008404E
S2140096E00000C64300ED00E00400FA056B4A6C4B30
S2140096F02DE9F04155685D65516A996569496A4C7E
S214009700D1F80002D865D1F804121966916A596634
S214009710D16A9966116BD966516B1967D26B586B13
S2140097205A67D3E90E1210F0040F18BF11465F4AAD
S2140097301A6500209142D8645DD301F12000A04252
S21400974059D888691864C5F30805CE695E64062D85
S21400975055D1574DA84252D3564DA8424FD20588F0
S2140097604DF6426085424AD11868C3F890005868A2
S214009770C3F8940040F20170A242154605D22E6846
S214009780B6F1CD3F02F10402F6D00022C3E91E2254
S214009790C3E92022C3E92222641BDFF814C1424D2C
S2140097A0DFF810E19C648D422CD8D3E91EC7D3E9BC
S2140097B02065D3E922414FF0000E013AD2B2FF2ACB
S2140097C03BD1BEF1000F05D0C3E91EC7C3E9206533
S2140097D0C3E92241B3F85430C3F30803DA1E0F2A54
S2140097E052D8DFE802F03458414451515151514E9D
S2140097F05151515151380021C3E910112B494FF4F2
S2140098002060B9E755F8044D6445CCD37445CAD2F8
S214009810E607C8D5284F002657F8048FA045C2D0C3
S2140098200136062EF8D132B1013AD2B202F11E0646
S21400983043F82640B7E70522F8E7E0464FF0010E6A
S214009840BC4637462E4625460C464146B5E740F60A
S2140098500120BDE8F081194BDB6913F0020F40F2DE
S214009860025318BF1846F4E740F60320F1E740F22B
S214009870017240F60423B0F5206F14BF1046184658
S214009880E7E740F60520E4E7013B40F60722302BE9
S21400989098BF1046DDE740F60220DAE700ED00E06C
S2140098A00010002000E100E0001000200000002072
S2140098B0C8400000209501007410002000200540DC
S2140098C010B50446FFF7D0FB20460249BDE810401D
