S01E00006275696C642F64656275672F6E63702D756172742D68772E7333372B
S21400400000100020C5440000D57F0000D97F0000C6
S2140040108BBF0200DD7F0000E57F00008BBF020043
S2140040208BBF02008BBF02008BBF02008BBF02005B
S214004030E97F0000604303008BBF02008BBF0200D5
S21400404049C002003BFA02008BBF0200210B0100B0
S2140040504BFA020047FA0200D91101003FFA0200AB
S2140040604D4B00008BBF02008BBF020041BC00001E
S2140040708DE602008BBF02008BBF02008BBF0200E2
S2140040808BBF02008BBF02008BBF02008BBF0200FB
S2140040908BBF02008BBF02008BBF02008BBF0200EB
S2140040A08BBF02008BBF02008BBF02000D12010007
S2140040B043FA0200F5980000491201008BBF020087
S2140040C0713301008BBF02000000000000000000FA
S2140040D0013800D0FCE77047000000000000000038
S2140040E001F0FF01102A2BDB10F0070F08D010F8A4
S2140040F0013B013A8B422DD010F0070F42B3F6D1A8
S214004100F0B441EA012141EA014122F007047FF0C0
S21400411000070023F0E80256083C85EA010586EA17
S214004120010685FA47F5A3FA87F586FA47F6A5FA53
S21400413087F68EB9EED1F0BC01F0FF0102F007025F
S21400414032B110F8013B013A83EA010313B1F8D10A
S2140041500020704701387047002D06BF35460338EB
S214004160073815F0010F07D1013015F4807F02BF24
S214004170013015F4C03F0130F0BC0138704700BF75
S21400418070B58EB02C22002103A82AF02EFC6423E2
S2140041904FF00232CDE9052308930B238DF8343017
S2140041A0514B1B880121D8078DF8101000F196801E
S2140041B0084613F0FFF84D4B4D494E484E4C0A2228
S2140041C01A704FF42873ADF812300EF0CFFB206053
S2140041D020B94A4840F25B2103F0FAFD2068052129
S2140041E02BF03DFE20B1454840F26B2103F0F0FD78
S2140041F0206807F037FD424B206819682BF0BAFAA2
S21400420013F0C0FF0C256843099013F0BBFF68430A
S21400421007900DEB050120680AF028F920B1374811
S2140042204FF4207103F0D4FD3649206800222BF0AD
S21400423027FB20B1314840F2822103F0C9FD324EFF
S214004240324D96F9000040F203532B807F284FF042
S2140042500503AB7001D113F00BFA3378EB7013F053
S21400426091FF00EB80008000A88013F08BFF0023F6
S214004270C000E880AB604FF0FF3019A3D3E90023FD
S2140042804FF0FF3113F052FA214920682BF0E9FE77
S214004290206802A92BF0D3FA20B1184840F2BB21BF
S2140042A003F096FD042220680DEB02012BF050FA75
S2140042B0042804D0114840F2BE2103F089FD01A96C
S2140042C001202DF0BFF803F0C9FE012014F002FA19
S2140042D028F052F814F036FA13F0F0F80EB070BD6D
S2140042E00A0020FF42030000005C00205561002009
S2140042F0DD7301005C130020AC5000205E630300F9
S214004300F01000206361002047160020A050002017
S2140043107D7501000348044B834202D0034B03B172
S2140043201847704780160020801600200000000006
S2140043300548064B1B1AD90F01EBA301491002D002
S214004340034B03B1184770478016002080160020E4
S2140043500000000010B5064C237843B9FFF7DAFFDB
S214004360044B13B10448AFF300800123237010BD43
S214004370865C0020000000005C66030008B5054B64
S2140043801BB105490548AFF30080BDE80840FFF7BC
S214004390CFBF00BF00000000981B00205C66030033
S2140043A0A3F5803A704700BF174B002B08BF134B8E
S2140043B09D46FFF7F5FF00218B460F461348144A2B
S2140043C0121A2AF012FB0E4B002B00D098470D4B0A
S2140043D0002B00D098470020002104000D000D4857
S2140043E0002802D00C48AFF3008007F0DDFD200067
S2140043F0290007F041FC07F0C5FD00BF00000800DB
S21400440000000000000000000010002080160020C1
S214004410C4610020000000000000000000239A6A2B
S214004420B2F5006F0AD2D3F82838A3F50061B1F5CB
S214004430605F03D21168084A914203D000230370DC
S214004440836070471968054A9142F7D101220270CD
S2140044509A6842609B69F3E7AD1007B007B0CD5E7F
S214004460002310B5D3F82838A3F50062B2F5605FD4
S21400447011D21968094A91420DD1094C227812F0DE
S214004480FD0F01D0002010BDDB6998470028FAD147
S21400449001232370F6E74FF48170F4E707B0CD5E92
S2140044A0875C0020054A06490346106803448B4291
S2140044B094BF13604FF0FF30704700BF9810002085
S2140044C0007C002008B500F07DF8124B12498B42A4
S2140044D012D3124B124900208B4218D3FFF764FF09
S2140044E0186850F82240586840F822400132986810
S2140044F08242F5D30C33EAE70022F8E71C6844F85A
S214004500220001325C68A242F8D30833E4E70022B6
S214004510F8E700BF64660300706603007066030079
S214004520706603000048704700F049020D4AD2F852
S214004530943003F00703032B11D0042B03D0022B77
S2140045400BD1094B00E0094B1868D2F80031C3F3D1
S21400455004230133B0FBF3F07047054BF4E74FF448
S2140045600040F2E700400E40A8100020A4100020F3
S2140045709C10002008B5FFF7D9FF054BD3F808318B
S214004580C3F308230133B0FBF3F0024B186008BDF9
S21400459000400E40A0100020014B1868704700BF76
S2140045A0A8100020054B1860054BD3F8943003F094
S2140045B00703022B01D1FFF7DDBF7047A8100020CC
S2140045C000400E400D4B0E4A9A60D3F8882042F405
S2140045D07002C3F888200B4B5A6D42F400525A659D
S2140045E01A6C22F003021A645A6F22F001025A670C
S2140045F01A6E22F080521A66704700BF00ED00E087
S2140046000040000000300E40014B1868704700BFA5
S214004610A410002008B52948012100F01FFD012341
S21400462004220221052001F04DFC002001F03EFC92
S214004630234B0122C3F810281146042000F094FFF3
S214004640204800F043FE204BD3F8F02042F0010251
S214004650C3F8F020D3F8FC2042F08072C3F8FC20A8
S214004660A3F55D43194A1A6000F5D520184B00F2F1
S214004670FC40B0FBF3F0174B013802221861C3F878
S214004680F0204FF48072C3F804234FF06043124AC0
S214004690C3F8B02F114AC3F8802ED3F8002E42F488
S2140046A08072C3F8002EFF2283F82020D3F8002E55
S2140046B022F48072C3F8002E002008BD00250A00F0
S2140046C00080144206000E0000ED00E0FF030040EC
S2140046D0F8590D00000004E055CEACC509000100F5
S2140046E04FF0604330B5D3F8802ED20715D501249D
S2140046F00B4D8440D5F8FC2042F08072C5F8FC20B3
S214004700D3F8002E2243C3F8002E53F82020002AA8
S214004710F0D003F82010002030BD1120FCE700BFC9
S21400472000ED00E02DE9F04F9A46554B85B01B781A
S214004730DDF83C909DF844B0DDF8508006460F4604
S2140047401546002B00F09680072A00F295800E9BF7
S214004750002B00F09180B9F1000F00F08D80129BC5
S214004760B3F5006F00F38880012803D1109B002B5F
S21400477000F08280434B03EB05131B7B002B7DD0A0
S214004780414C1022002168462AF02FF904EB45140C
S21400479010229FBB394620462AF027F943F2100321
S2140047A06380BBF1000F03D1E37843F00303E370AB
S2140047B0354A0E9BCDF800A002EB451CCCE90193D0
S2140047C0129B581E9DF84C30690103F00303C0F39A
S2140047D00A009B0643EA001E53582C4818404EEA2F
S2140047E00003012E535017D0B8F1000F2ED19CF8BD
S2140047F0023068F304138CF8023027E000212046CC
S2140048002AF0F3F84FF444736380BBF1000FCFD166
S214004810E37843F03003CAE71323CCF80C309CE867
S2140048200F000CF1100E8EE80F00DCF81C20109B19
S214004830CCF814306FF0030161F39F02012FCCF81F
S2140048401C2003D1CCF81890CCF804300D4A29016E
S21400485002EB051342F80180159A5A600027284695
S214004860224669469F605E7301F0B0FB384605B08D
S214004870BDE8F08F0648FAE70648F8E70648F6E788
S214004880885C0020B01C0020B01B00200F80FFF3C7
S214004890028000F0018000F0078000F038B5124B6F
S2140048A01B780546DBB1E0B127F0E0FB0F4A00239A
S2140048B01146147B54B92B601A0101EB0313012532
S2140048C08C501D7327F0D8FB204638BD0133082BCB
S2140048D002F11002EDD127F0CFFB0548F5E70548B9
S2140048E0F3E70548F1E700BF885C0020B01C002015
S2140048F0048000F0028000F0018000F038B527F058
S214004900B5FB0C4A05460023147B6CB90133082B13
S21400491002F11002F8D101F00FFB074B28461C707D
S21400492027F0AAFB204603E0284627F0A5FB03480D
S21400493038BD00BFB01C0020885C0020058000F059
S2140049400D4B1B7810B5044693B1072812D827F0F4
S2140049508DFB0A4B03EB04131A7B2AB100241C734D
S21400496027F08AFB204610BD27F086FB0448FAE7AE
S2140049700448F8E70448F6E7885C0020B01C0020EE
S214004980068000F0028000F0018000F013B5164BA0
S2140049901868019000238DF8043027F067FB134B4E
S2140049A01C7824B127F068FB114802B010BD012224
S2140049B01A7027F061FB0F4B1C731C7783F82C4092
S2140049C083F83C4083F84C4083F85C4083F86C40A6
S2140049D083F87C4004230DEB03008DF8073001F0CC
S2140049E0CBFA2046E1E700BFB0430300885C002016
S2140049F0038000F0B01C00200A4A127808B55AB1AD
S214004A0007280BD8084A02EB00131B7B43B1002192
S214004A1001F0A8FA002008BD0448FCE70448FAE7BD
S214004A200448F8E7885C0020B01C0020028000F0F4
S214004A30018000F0078000F00A4A127808B55AB1E3
S214004A4007280BD8084A02EB00131B7B43B1012151
S214004A5001F088FA002008BD0448FCE70448FAE79D
S214004A600448F8E7885C0020B01C0020028000F0B4
S214004A70018000F0078000F00A4A127808B552B1AB
S214004A8007280AD8084A02EB00131B7B3BB101F04B
S214004A90EDFA002008BD0548FCE70548FAE705489A
S214004AA0F8E700BF885C0020B01C0020028000F001
S214004AB0018000F0078000F00D4B1B7893B10728AB
S214004AC012D889B10B4B03EB00131B7B73B10A4B57
S214004AD01A6E01238340134214BF012300230B7078
S214004AE000207047054870470548704705487047DE
S214004AF0885C0020B01C002000200E40028000F0E1
S214004B00018000F0078000F00B4A127810B50C46C2
S214004B1062B107280CD859B1084A02EB00131B7B78
S214004B2043B101F0B9FA2070002010BD0448FCE73C
S214004B300448FAE70448F8E7885C0020B01C002028
S214004B40028000F0018000F0078000F02DE9F041BF
S214004B50DFF86480D8F86070D8F86C301F4000D555
S214004B60FEE7134C01260025374218D02368C8F804
S214004B706860A3B1A16862680131A16028469847C1
S214004B80637B012B0BD150B90A4B03EB45131A7B01
S214004B9060F341021A731A7F60F341021A770135F7
S214004BA0082D4FEA460604F11004DDD1BDE8F08179
S214004BB0B01C0020B01B002000200E40024B1968DD
S214004BC0024B186808F0EEBFAC100020CC10002096
S214004BD070B59400224605460E4627F077FB431C28
S214004BE00AD058B922463146284629F0D4FE002875
S214004BF0034808BF002070BD0248FCE70248FAE7F9
S214004C0010E000F021E000F024E000F010B50446CB
S214004C1001F0F6FA431C10D088B901F0DFFB20F053
S214004C20030023462044984201D1002010BD53F8CB
S214004C30042B0132F7D00348F8E70348F6E70348A9
S214004C40F4E700BF0EE000F021E000F024E000F002
S214004C5008B527F000FA014B186008BD2024002094
S214004C60014B186827F0FBB920240020044A00EB0B
S214004C7080031068A0EBE30080F3080080B2704762
S214004C805424002038B51B4B40289D681EDD4F2855
S214004C90CCBF02230123184A184C02EBC30292E849
S214004CA00300174A02EBC30284E8030092E80300FD
S214004CB0144C012D84E803000AD0012B16D0022BD9
S214004CC014D00020BDE8384001F07AB80023E2E7AF
S214004CD0084C4AF6E852012BA26009D0022B07D0F6
S214004CE0002001F06DF80023A36038BD1846E9E700
S214004CF01846F6E700300E402424002098240020B2
S214004D003C24002068240020044B4FF04042DA6226
S214004D101A6B22F040421A63704700BF00300E4004
S214004D20F0B52D4C2D4A236800210846156845B17C
S214004D301D68002D42D09D889688AE4284BF1346DB
S214004D4001210130062802F10802EFD101B12360EB
S214004D502348244A036800210D46166846B11E689B
S214004D60002E2ED09E889788B7423CBF134601215E
S214004D700135062D02F10802EFD101B10360226869
S214004D80194B116801B3D969127921F0FF010A4362
S214004D90DA611A6B42F080421A630368124A196895
S214004DA0B1B19B88D1691B029BB221F47F410B43B2
S214004DB0D361136B43F000431363F0BD1346012128
S214004DC0BFE713460121D3E71A6B22F08042E3E7E0
S214004DD0136B23F00043EFE75C24002098240020A8
S214004DE0582400206824002000300E4008B501F04A
S214004DF02BF89FED127A07EE900AF4EEC77AF1EEE2
S214004E0010FA18D49FED0E7AF4EE477AF1EE10FA07
S214004E10C8BFF0EE477AB6EE007A77EE877A9FED57
S214004E20097A77EE877AFDEEE77A17EE903AA3F1E5
S214004E30800040B208BDF0EE477AECE7000000C301
S214004E400000FE420000004370B5144C236B626AFB
S214004E50134011D5124B1B681E6836B100251D6025
S214004E605D60FFF7C3FF2946B0474FF00043E3629B
S214004E70BDE87040FFF754BF5B00F9D5094B1B68CF
S214004E801C6834B100221A605A60FFF7AFFF012198
S214004E90A047024B4FF08042DA62E9E700300E404E
S214004EA0582400205C2400202A4B012273B51A7077
S214004EB000213022284829F098FD3022274800217A
S214004EC029F093FD264A274B1360274A1360274A8A
S214004ED0D2F8B030D2F80421C3F30743FF2B02D038
S214004EE0D2B2FF2A01D19022192303EB830302EBEF
S214004EF0D3021F4B01A81A6001F04AFA9DF805304C
S214004F00012B1BD14120FFF7B1FE1A4D1A4CA88089
S214004F1039202C60FFF7AAFE06465020FFF7A6FEB3
S214004F201649A88148208E818C60AC60FFF79EFEF3
S214004F300C618882FFF75AFFFFF7A4FEFFF7E4FE36
S214004F400F4B0122C3F880211A60FFF7E9FE00200C
S214004F5002B070BD895C00209824002068240020E0
S214004F605C24002060240020582400200081E00FEC
S214004F70542400202424002045C002003C240020A5
S214004F8000E100E00C4B984205D90C4B984210D833
S214004F900122012301E00022134609490B64094956
S214004FA0D1F8003123F0807343EA0263C1F8003180
S214004FB070470222EDE700BF0048E8010090D003EA
S214004FC00000C84300400E40044BD3F84421D207EB
S214004FD003D4D3F840211042FBD1704700400E4066
S214004FE00A4B0B4998424A680BD90A4B98420AD991
S214004FF002F040724B6823F0407343EA02634B6052
S21400500070470022F6E70122F4E700BF40787D01F2
S21400501000000E40005A620238B5074C41F6713364
S214005020256C2364FFF77EFAADB2FFF7D9FF0DB10A
S2140050300023236438BD00BF00000E4038B5064C80
S214005040256C41F671332364ADB2FFF7C9FF0DB18D
S2140050500023236438BD00BF00000E4038B5C0F3FF
S2140050600323013B092B11D8DFE803F005271010B6
S2140050702B221D101511154DC0F3043405F14245C1
S21400508005F5801504EBC5008000016038BD104DA5
S214005090C0F30434F2E70F4DC0F304344FF480300D
S2140050A0FFF792FFEAE7C0F304340B4D1020F7E752
S2140050B0C0F30434094D0120F2E7094DC0F304346F
S2140050C0DCE7084DC0F30434D8E700BF00400E40CC
S2140050D050410E40F0400E40E8400E40E0400E408A
S2140050E0C0400E40B0400E40C0F30313013B092BF6
S2140050F03FD8DFE803F0050B0F193E3E1F232C3583
S2140051001D4BD3F80001C0F3042070471A4BD3F8A8
S2140051101401F8E7184BD3F80031C3F300630133EA
S2140051200120984001387047134BD3F80C01C0F3A8
S21400513008207047104BD3F80801F8E70F4B984249
S21400514017D10D4BD3F8203103F00F03E8E70C4BD3
S21400515098420ED1084BD3F8283103F00303DFE75B
S214005160084B984205D1044BD3F8300100F00F00ED
S21400517070470020704700BF00400E4080061600B3
S21400518090071A00A009140000F00F000138072845
S2140051904BD8DFE800F00412214A31354A3D294B4E
S2140051A0D3F8940000F00700032849D004283ED026
S2140051B002280CBF042005207047224BD3F880003D
S2140051C000F0070002283BD0042834D0012808BF8E
S2140051D0032018BF012070471A4BD3F8843003F021
S2140051E00703013B032B03D8DFE803F00421232544
S2140051F00120704703207047124BD3F88800DFE782
S214005200104B1B6F13F0010F0CBF072009207047CF
S2140052100C4BD3F85C3103F03003202B0DD0302B31
S2140052200DD0102B08BF0720D3E7002070470220C0
S2140052307047062070470A207047042070470820F1
S214005240704700BF00400E4008B50146FFF79CFFC0
S2140052501A4B994211D01A4B994212D0194B9942C7
S21400526004D1194BD3F8800000F00700013803285A
S21400527021D8DFE800F00A0E1612134BD3F884008C
S214005280F2E7114BD3F88800EEE7BDE8084026F0B9
S2140052907DBEBDE80840FFF7B7B9BDE8084026F078
S2140052A078BEFFF743F9084BD3F80031C3F3006329
S2140052B00133D84008BD0020FCE700BF03002000F3
S2140052C00500240002001E0000400E4000F4781383
S2140052D0B3F5A01F10B5044654D01ED8B3F5202F42
S2140052E06CD009D8B3F5003F41D0B3F5802F33D04A
S2140052F0002B63D0002010BDB3F5602F57D0B3F558
S214005300801F6CD0B3F5402FF4D1FFF70FF93F4B59
S214005310D3F81431C3F3042325E0B3F5001F3BD0C4
S2140053200FD8B3F5D01F39D0B3F5F01F25D0B3F59D
S214005330B01FDFD13648FFF787FF344BD3F8203154
S21400534026E0B3F5481F3DD0B3F5781F54D0B3F52B
S214005350101FCFD12F4811E0FFF7E8F82B4BD3F8FA
S2140053600C31C3F308230133B0FBF3F0C3E7FFF7B8
S214005370DDF8264BD3F80831F3E72548BDE81040A2
S214005380FFF762BF2348FFF75FFF204BD3F83031AB
S21400539003F00F03D840AEE71F48EFE71E48FFF7BD
S2140053A053FF1A4BD3F8283103F00303F2E71B48E8
S2140053B0FFF7EAFE072812D009289BD1BDE8104067
S2140053C0FFF7B4B81648FFF7DFFE072807D008280F
S2140053D008D004288ED1BDE81040FFF7DDB8114B89
S2140053E0186888E7FFF7A2F8084BD3F80031C3F334
S2140053F0042303FB00007EE7FFF798F801462046EB
S21400540026F024FEB1FBF0F075E700BF00400E402A
S21400541002001E00050024000300200006000E0007
S214005420B8003200D0100020014B1880704700BF33
S214005430D815002010B5042813D8DFE800F047037D
S2140054402F132100294AC1F30801D2F86838002B2F
S214005450FBD1274A136A23F4FF7323F001030B439F
S214005460136210BD214A01F07F01D2F86038002B8C
S214005470FBD11F4A136923F07F030B431361F0E748
S2140054801A4A01F07F01D2F86438002BFBD1184A83
S214005490936923F07F030B439361E2E7144AD2F843
S2140054A09030536A23F0300343F010035362146BBA
S2140054B0104BC1F3C31003300F2803EA040328BFC0
S2140054C00F200B4343EA00731363CAE74F29074ACA
S2140054D028BF4F21D2F87438002BFBD1044A936BB7
S2140054E023F07F030B439363BBE700BF0020C84352
S2140054F000400E4000F8FF0F104A536A13F0300FBA
S21400550018D0202913D0302914D000290C4B08BFFE
S2140055104FF44003D2F8901033EA0101FAD15B024F
S21400552046BFD2F8A000C0F38020012070474FF499
S2140055300003EFE74FF44003ECE700BF00400E40E7
S214005540FF03E10702280AD129B1064B4FF4806019
S214005550C3F8A800596612B10220FFF7CDBF01209C
S214005560704700BF00400E400428F8B546D82F4BC1
S21400557013F800C02E4B1D5C2E4B33F810702E4BCC
S21400558033F810402D4B00293ED0022837D15C6AF4
S21400559014F0300F33D15C6AE40705D55E6A26F056
S2140055A0300646F010065E62254C244B25441F66E6
S2140055B0AD002B68002BFCD002B36444A400236823
S2140055C0002BFCD0022819D1C1B11C4D696A11F01C
S2140055D0010116D001222021FFF7B4FFD5F89C6008
S2140055E0012200210220FFF7BFFFC6F30A010220B6
S2140055F0FFF720FF2F662368002BFCD0F8BD0021A4
S214005600D2E7FFF779FFE9E701211C66A940D3F846
S21400561090000842FBD1002AF0D00123074903FA84
S2140056200CF3D1F890201A42FBD1E7E7EF430300D2
S214005630EA430300E0430300D643030000400E4065
S2140056408004F21008B5024698B901221146FFF709
S2140056508BFFFFF7E1FC0D4B04225A67FEF766FF4F
S214005660FFF790FCFEF786FFBDE808400021FFF735
S214005670E5BC012807D10146FFF776FFFFF7CCFC13
S214005680024B0322E9E7FFF7C7FCE7E700400E40BE
S21400569008B50C48FFF776FC012211460220FFF7FA
S2140056A063FFFFF7B9FC084B02225A67FEF73EFF7E
S2140056B0FFF768FCFEF75EFFBDE808400021FFF735
S2140056C0BDBC00BF0148E80100400E4010B50446CE
S2140056D01120FFF759FD002101220220FFF744FFA9
S2140056E01B4A217C536A23F00103022908BF43F0BA
S2140056F001035362174B2178C3F8A014936AE17A2A
S21400570023F007030B439362A188637A43EAC1231D
S214005710D362136BA07A217A03F07F630343E08899
S21400572043EAC02343EAC11303310F2928BF0F21E0
S21400573043EA01731363A37B617B1B0143EA0133D6
S214005740E17B0B43217B43EA0143536310BD00BF5B
S21400575000400E400000C843034B5868C0F30800E2
S214005760003818BF0120704700ED00E01848194BBC
S214005770C26C1B88C2F303222833013202EB82017B
S21400578003EB5303B3FBF1F3C16C013B072B28BFBC
S214005790072321F0EE6141EA036343F48013C364F8
S2140057A00D4BB3F90030002B10DB2833510801EB0A
S2140057B0420203EB5303B3FBF2F3026D072B28BF41
S2140057C0072322F0700242EA03130365704700BF06
S2140057D000300E406C52002068520020084A1378B1
S2140057E0013B012B0AD807490B6C03F00303012B7E
S2140057F002D1CB6FDB03FCD503231370704700BFC9
S2140058008B5C002000300E40054A064BD16C1960B8
S214005810D36C23F47F4343F4EE43D364FFF7A6BF71
S21400582000300E40CC24002038B5164B164DD3F869
S214005830804145F60E02C3F880212A6822F0AA02AB
S214005840D205D20D1A66114B1B78032B04F0010407
S21400585012D0042B12D0022B02D10020FFF7F2FE4A
S2140058602B68DB075EBF074B02221A661CB1054B8E
S2140058700022C3F8802138BD0120EFE7FFF708FFBC
S214005880EEE700BF00400E40C82400208A5C0020DF
S21400589008B5054BD3F89020044B11201A60FFF78B
S2140058A073FC034B187008BD00400E40C82400204F
S2140058B08A5C002010B5044608B1FFF7E9FF124ADB
S2140058C0136943F004031361FFF79EFFFFF786FF9B
S2140058D026F0E6FC26F0E5FC0C4B0D4AC3F8242423
S2140058E030BF26F0DFFC03F0EBFB0A4B1A680A4BCE
S2140058F0DA64FFF73BFF1CB9BDE81040FEF73ABE7E
S214005900BDE81040FFF790BF00ED00E000A00040AB
S2140059100000FFFFCC24002000300E4010B50446E7
S21400592008B1FFF7B5FF184BD3F8802145F60E01F6
S214005930D20748BF0022C3F880114FF420711966C1
S21400594048BFC3F88021114A136943F0040313616A
S214005950FFF75AFFFFF742FF0D4B0E4AC3F8242409
S21400596026F09EFC30BF03F0ABFB0B4B1A680B4BCC
S214005970DA64FFF7FBFE1CB9BDE81040FEF7FABD7F
S214005980BDE81040FFF750BF00400E4000ED00E0BD
S21400599000A000400000FFFFCC24002000300E4096
S2140059A00A4903798A6922F03F021343027843EAE0
S2140059B08203427843EA4203827843EAC203C2780B
S2140059C0012A08BF43F001038B61704700300E4088
S2140059D01A4B4AF6E85210B5596B5A639A6FD407B9
S2140059E0FCD41B6C13F0030306D0154A012498421E
S2140059F0C2F8B44A0AD110BD18B9114BC3F8B40A9C
S214005A00F9E7012802BF0F4B02221A700B4B9A6F60
S214005A10D207FCD41A6C22F0030202431A649A6F6F
S214005A2012F00102FBD10038054C18BF01200129F5
S214005A30C4F8B40A08BF5A63DDE700BF00300E4062
S214005A400000C6438B5C0020A0F5E163B3F5966FBB
S214005A502DE9F04102D90020BDE8F081574C584BA3
S214005A60D4F81872B0F5E16F1CD0DD6CC5F3017583
S214005A703C0E2E02C7F307474FF4966C4FF4E16EC8
S214005A8001233343B3F5007F4C4E59D017D8B3F5F6
S214005A90807F52D040F20118434545D0CBB9D6F8A6
S214005AA01C3218E0DD6CC5F30175C7F307242E021F
S214005AB0FFB24FF4167C4FF4966E0023E1E7B3F581
S214005AC0407F40D040F20138434533D0D6F82832E4
S214005AD001E0D6F82432C3F30726DBB2A4EB0708AE
S214005AE0A0EB0E0E0EFB08F8B8FBFCF84744A742E6
S214005AF0B1D8F41A0EFB04F4B4FBFCF41C44B44214
S214005B00A9D872B12E4AD36DB0F5E16623F4FE43F0
S214005B1018BF012623F0020343EA460343EA07239D
S214005B20D36599B9012097E7D6F824321E0EC3F341
S214005B300743D3E7D6F82832F8E7D6F81C32F5E75D
S214005B40D6F82032C7E7D6F82032EFE71B4BD3F85B
S214005B500021D2B2032A07D8B0F5E16FD3F82C3271
S214005B600AD0C3F3072308E0022DD3F8303220D042
S214005B70032D21D0012DF4D0DBB21B0313F4702FBC
S214005B807FF469AF0E49CA6E22F470421343CB66A7
S214005B904B6E23F4FF7323F00103B0F5E16F18BFDB
S214005BA043F00103E72C28BFE72443EA44034B668F
S214005BB0B8E7C3F30743E0E71B0EDEE70081E00F1C
S214005BC000300E40184B1A6FD96C11F0010F02F01E
S214005BD0060213D092B1132821D9143813288CBF8B
S214005BE0102308231048013BC26C190322F47F429D
S214005BF041EA03231343C364FFF7B8BDD96C01F031
S214005C000101114304D1092809D90A380928E6E711
S214005C10DB6C13F00103E5D01AB92728DFE704236D
S214005C20E0E70023DEE700BF00300E40064A074BE1
S214005C30D3F88039136F23F0070303431367044B2D
S214005C401888FFF7BFBF00BF00300E400000C643F5
S214005C506A5200204E4B37B502229A639B6B03F0C4
S214005C600F039342044603D00025284603B030BDF8
S214005C70484BD3F81C32013312D0474BD96B9A6B82
S214005C801160596C1A6C1160D96C9A6C1160596D60
S214005C901A6D1160D96D9A6D11605A6E1B6E1A607E
S214005CA0E288A188B4F90C004A2A65D9B2F5FA7FD1
S214005CB064D340F6C3139A428CBF4FF040524FF065
S214005CC00052334DEB6C23F0405323F001030028C1
S214005CD0A8BF43F001031343EB64304B1980EB6E0F
S214005CE043F08073EB662E4BD3F8800900B1042096
S214005CF0FFF79CFF2B6E23F0C0432B66EB6C43F044
S214005D00060301A8EB6400F043FB9DF8050001289C
S214005D1011D19DF80430022B0DD822490B7853B9C7
S214005D206B6C214A43F001036B642B6E1A401F4BC9
S214005D3013432B6608701E4B218919801D4BB4F93E
S214005D400C20A0881A80FFF73DFFA37BCBB1012B68
S214005D501BD0012260881146FFF776FE0546002814
S214005D6082D0A37A0E4A003B18BF0123C2F89437AC
S214005D706078FFF72DFE78E70022A2E74FF080520A
S214005D809FE7034B0C4A9A65E3E7014B0B4AFAE799
S214005D9000300E400081E00F0080E00F6A520020C5
S214005DA00000C6438B5C0020000F0EF0B4C0400B12
S214005DB06C5200206852002077402057372110B7D9
S214005DC01F4A10B5D2F8903168B9012B33D14AF684
S214005DD0E851C2F890111A49D1F8642142F07402D1
S214005DE0C1F864210EE0012B06BF4AF6E851C2F85E
S214005DF090110023022820D1D2F8641121F07401FA
S214005E00C2F864110E4A0F4CD2F89C1141F00801FA
S214005E10C2F89C11E16B21F4406141EA8021E16304
S214005E20D2F89C1121F00801C2F89C1113B100238E
S214005E30C2F8903110BD0346CDE70220CBE700BF85
S214005E4000300E4000400E40144A1548D2F8B030DC
S214005E50C3F3074307EE103AD2F80431DBB207EE7D
S214005E60903AB8EEE76ADFED0F7AC6EE276ADFED06
S214005E700E7A76EEA76A026A016AD2B2C9B28A427E
S214005E80F9D19B1A07EE903AF8EEE77AB8EEC77AA1
S214005E9007EEA67A17EE100A704700BF0081E00FE3
S214005EA000300E400000C842A8C68B3E044AD2F816
S214005EB0443423F003030343C2F84434704700BF5E
S214005EC000A0004000EB4000F8B50D461F46040158
S214005ED016463AB1154801238B402044C7B100F15D
S214005EE0C0600360072D4FF00F0114D8AB001048B8
S214005EF006FA03F29940204426F0D9F93EB90B4A37
S214005F000123AB40224477B102F1C0621360F8BDB2
S214005F1000F18060E5E7A5F108039B00054806FA56
S214005F2003F29940E7E702F18062EFE70CA0004039
S214005F3004A0004008A00040084B4FF48072C3F84D
S214005F408020BFF34F8FBFF36F8F054B0021D966BC
S214005F504FF48A401962FFF781B800BF00E100E005
S214005F6000200E40034B03449B0081F001011960A2
S214005F70704700BFA001F11010B5044601214FF490
S214005F808A40FFF76BF8B4F8013022785BBA9BB210
S214005F9043EA02630B4A136000231362D36253631F
S214005FA04FF00043D3664FF0FF339366064A4FF434
S214005FB08071C2F88011E3785B01DBB282F80833A7
S214005FC0116010BD00200E4000E100E0F8B5254D40
S214005FD08F7AD1F800C0C3B201269E404FF0300E33
S214005FE0CB7A0EFB00500C461B05097BAE6643EAD7
S214005FF00743C0F880C094F80DC0C0F888C043EAD4
S214006000415322F00302C0F88430C0F8982026F0EE
S2140060102DF8EB6E3343EB66237A13B16B6B334389
S2140060206B63637A13B1EB6A3343EB6223792A68B6
S21400603023B1DB431B0263F47F431A4063790BB141
S21400604042EA0322A3790BB122EA0302E37913435F
S214006050044A1360044B9E62D663BDE8F84026F0FF
S2140060600BB800BF00200E4000200E4410B5C0B292
S2140060700124844025F0FAFF054AD36E23EA040380
S214006080D366044B1C62BDE8104025F0F5BF00BF88
S21400609000200E4000200E4410B5C0B201248440FB
S2140060A025F0E4FF074B1A6A224208D19B6A9C43FC
S2140060B00CBF0124002425F0DFFF204610BD00247D
S2140060C0F9E700BF00200E40044B41F671321A6417
S2140060D09A6822F001029A60704700BF00000E40E6
S2140060E0034B9A6822F001029A6000221A647047F5
S2140060F000000E40094A0A4BD969C90705D512B9EE
S2140061006FF002007047013AF6E7002AF8D0012245
S2140061101861DA60D86940F380007047809698006E
S21400612000000E4070B509B9002070BD0E4A00236D
S214006130082550F8234094610C4CD5600133D6698D
S214006140F60705D514B96FF00200EEE7013CF6E756
S214006150002CF8D0D469A40702D49942E9D1E3E729
S2140061606FF00100E1E700BF00000E408096980047
S214006170224B2DE9F0470D4641F671311E6C19642D
S214006180996841F001018146B6B299609708A84621
S2140061904FF0000ABA450ED30020D9F800202B682D
S2140061A09A420ED04846FFF7A5FF50B9012128466F
S2140061B0FFF7B8FF05E009EB8A042046FFF79AFFD1
S2140061C048B10E4B9A6822F001029A600EB1002286
S2140061D01A64BDE8F087C4F30A01C1F500618908B6
S2140061E0A7EB0A03994228BF19464046FFF79AFFD5
S2140061F00028D2D18A4408EB8108CBE700000E4085
S214006200214B41F671311A6C1964996841F001010D
S214006210996001211861D960D969490792B209D5F8
S214006220996821F0010199600AB100221A644FF0C2
S214006230FF3070470221D9601449D869C00700D5DD
S21400624069B9D86910F002000BD0996821F00101F5
S21400625099600AB100221A646FF001007047013994
S214006260EBE741B9986820F00100986002B1196424
S2140062706FF002007047996821F0010199600AB931
S214006280002070471864FBE700000E4080969800D8
S214006290014B01229A60704700500E40194BF0B532
S2140062A000215D68184C194E194F0846D6F8E8C10B
S2140062B0626823681CF0040F0BD1B3F5006F06D09C
S2140062C01DD8B3F5007F02D0B3F5806F01D142F43C
S2140062D08072D7F888C01CF4807F18BF22F01C029A
S2140062E02B4202D02A4208BF18430131092904F183
S2140062F00804DBD1C30348BF20F01C00F0BDB3F593
S214006300803FE3E700500E40F44303000040E00FF8
S21400631000300E408B784A789B0143EA82030A7865
S2140063201343CA7843EA02130A7943EAC2234A7936
S21400633043EA02338A79043043EA42430001014AC1
S2140063401350704700200440014B1860704700BF90
S21400635000008442437882789B0043EA0213027866
S2140063601343C27843EA4213027943EA022342798E
S21400637043EA0233827943EAC233C27943EA0243EC
S214006380027A43EA4243014A136070470020044001
S2140063900D4AD2F8E430D2F8E0109B0003F03C033C
S2140063A0C1F381110B438370D2F8E03003F03F0352
S2140063B04370D2F8E830D2F8EC2003F0F003C2F3D2
S2140063C0031213430370704700FF0FE0024BD3F82D
S2140063D0FC00000E704700BF0081E00F044BD3F8AE
S2140063E0E4301B0E0A3303F01F0301209840704769
S2140063F00081E00F70B5054616461C4619B91448CC
S214006400FEF764FF0146402C1BD003D8DCB1202CDD
S2140064101BD070BD602CFCD1042303FB06F253088E
S21400642003EB4113B3FBF2F30A4A203B02EAC30331
S2140064302A6822F060022A602A6814432C606B6186
S214006440E7E70623E9E71023E7E70823E5E700BFC9
S21400645040410500F8FF7F0040F6AA63C36041F2A2
S21400646005020023036042600B4A83604361C364F5
S21400647082640A4A0366904243678367C36705D00F
S21400648002F58062904203D0836570470365FBE7A0
S21400649003658365C3657047F9FF0100000001408E
S2140064A038B5044629F077F90FCC044D0FC594E8AB
S2140064B00F0085E80F00002038BD00BFD024002064
S2140064C047F6FF739A42F0B572D0062972D83A4B57
S2140064D05B5C022B6ED8394D05EBC304DF00A17858
S2140064E015F83330012938BF0121012B13D1E0788C
S2140064F00025401AA84202D80844C0B2F0BD431B8B
S214006500A0EB5303666836F913609642CCBF03F1DE
S214006510FF301D46EEE760680028EFD0B0F9004077
S214006520944204DBB0F902409442B8BF1446838814
S214006530FF2B04BFB0F90620B0F908C03D440FBFDA
S21400654001260026C8224FF0280C131B93FBFCF3F1
S21400655033446E781BB29E4201DD002B01DA731EB7
S2140065601BB201339BB24FF47A7C071D5D1E2DB221
S2140065704FEAC50E00EBC5059E42EA88AD6814FBDF
S214006580025222EAE27202F15C02B2FBFCF205DD84
S21400659037F83350954203F10103E7D200EB0E03C0
S2140065A09888904228BF1046884238BF0846A4E71D
S2140065B0FF20A3E70020A1E73C440300D0240020EE
S2140065C00629F0B561D8324B595C02295DD8314BAB
S2140065D013F83100012816D103EBC1039C78D87854
S2140065E05B68012C214638BF0121904294BFC1EB65
S2140065F00001C1EB0201CAB2001B8242C8BF0022E2
S21400660033F91200F0BD002A3DD003EBC1035968F0
S21400661000293AD09878904202D3B1F90200F1E707
S214006620DC78B1F900009442ECD95C788B88A3F151
S214006630FF06013C734201F10405E4B2734101F127
S2140066400C07DEB2B44216D805EBC3034FF47A75D6
S214006650B3F902405B686A43D21A04EBD47302EBC8
S214006660630292FBF4F29042CCDBB1F90200904256
S214006670C8DC10B2C6E737F833C0944503F101060C
S214006680E2D33346DDE70448BCE70448BAE700BF78
S2140066903C440300D02400200CFEFFFF0080FFFFD8
S2140066A008B50448FFF7FCFEBDE80840012029F0C5
S2140066B097B800BF444403007FB51422002101A808
S2140066C028F093F9044B029301A94FF0FF3029F00C
S2140066D0C3F807B05DF804FB006A1800024B0348D5
S2140066E00122C3F8042670470010C84300000F407C
S2140066F0054B984201BF03F16E7303F58833002201
S214006700C3F80426704700BF00000F4010B50446CB
S2140067102369DB07FCD404F1800025F0F4FC014B70
S214006720236510BD510545012DE9F043064689B0A5
S214006730174698460C4600294DD1FFF7CFFF014675
S2140067400446304625F03EFE4FF0010996F86C50A0
S21400675006F15C01C5F10F06C5F10E03F6B22A4636
S2140067600DF1010001358DF8003028F0A5F832460D
S21400677000210DEB050028F038F9C6F110000123C2
S2140067803246002168448DF80F3028F02EF925F0A7
S21400679062FC04F1800605466946304625F0B3FCE7
S2140067A00E4B23652369DB07FCD404A9304625F08D
S2140067B0C7FC284625F053FC424604A9384628F074
S2140067C07BF8B9F1000F02D02046FFF791FF0020BA
S2140067D009B0BDE8F0834FF00009B7E705510100A6
S2140067E02DE9F04F89B00546DDF8489016461F465D
S2140067F00C4639BBFFF772FF01460446284625F0D3
S214006800E1FD4FF0010B6B6C33446B6425F023FC09
S2140068108246D6B9504625F022FCBBF1000F0ED0BA
S21400682025F019FC05F14C01064604F1840025F01C
S21400683087FC304625F013FC2046FFF759FF09B0C9
S214006840BDE8F08F4FF0000BDDE72B79102EB04639
S21400685028BF4FF01008012B0DD1102200216846EA
S21400686028F0C3F839464246684628F025F86946B7
S2140068702046FFF74BFF394604F18C0025F043FC19
S214006880124B2365012363652369DB07FCD404A947
S21400689004F1800025F054FC04A94246484628F03E
S2140068A00BF8297961B91022684628F09EF8494607
S2140068B04246684628F000F869462046FFF726FF5D
S2140068C0C1444744A6EB0806A3E700BF48055903A2
S2140068D070B5048804F4E043B3F5005F05461ED1A6
S2140068E0C4F30223042B1AD181F0AA6383F48073C5
S2140068F033F47E13204821F47E1618D081F0AA6364
S21400690083F4007333F47E1311D0864230D1B4F58D
S214006910105F0CBF6FF086006FF0850070BDB4F599
S214006920105F25D1144B21F47E119942F1E786427F
S2140069304FEA1143C1F305411AD1B4F5105F17D1E0
S21400694004390C2911D813F001000ED1073A062A93
S2140069500BD86B88C02B0BD0B3F5807FDED0802B96
S2140069600CBF00206FF08600D8E76FF08600D5E7F2
S2140069706FF08500D2E700BF000140052DE9F04F1B
S214006980A7B0DDE93475DDF8D880DDF8EC90089224
S21400699006461C468A4629B96FF08602104627B07E
S2140069A0BDE8F08F0028F7D0309B002BF4D0329B48
S2140069B013B9339B002BEFD1002F7DD1002DEBD1E7
S2140069C0389B002BE8D0B9F1000FE5D03A9B002B9E
S2140069D0E2D0399B002BDFD0338803F4E042B2F5D7
S2140069E0005F74D1C3F30222042A70D184F0AA6334
S2140069F083F4807333F47E1306D084F0AA6383F4A2
S214006A00007333F47E136BD1C4F30543319AC9F88F
S214006A100030214630460993FFF75AFF0246002809
S214006A20BCD17288089BB3EBD20F4FEAD20BB3D31C
S214006A30379B9D425FD83A9A099B93425BD847455D
S214006A4008D27B19984505D239462A46404627F093
S214006A50B2FF4746702200210AA827F0C6FF5A4612
S214006A6051460DF12D00CDF850B027F025FF234BF1
S214006A7024F47E149C423BD13388B3F5105F37D1A3
S214006A80D9F800300693399B0397CDE90483339BEE
S214006A900293329B0193319B00932A46309B01213F
S214006AA00AA825F0AAFD0246E0B9389B1D607021B1
S214006AB00AA825F09AFD71E7002D81D0B8F1000FE5
S214006AC03FF46AAF379B002B7FF47AAF64E742F25D
S214006AD00402934204D184F0052383F4801390E7E4
S214006AE0002393E7389900230B60C9F80030DEE7EF
S214006AF06FF08502DBE76FF089024FE70001400583
S214006B002DE9F04FABB0DDE938A4DDE93B658946F9
S214006B10099298460746002800F0A280002900F057
S214006B209F80349B002B00F09B80369B1BB9379BC5
S214006B30002B40F09580BAF1000F02D1002C40F0F7
S214006B408F801DB93D9B002B40F08A803E9B002B1A
S214006B5000F086803A9B002B00F08280359A4146F2
S214006B603846FFF7B5FE0246002866D17A88099BAC
S214006B70B3EBD20F4FEAD20B72D33D9B9C4272D836
S214006B80AA4509D20AEB0402954205D2514622468E
S214006B90284627F010FFAA46702200210EA827F0EC
S214006BA024FF5A4649460DF13D00CDF860B027F067
S214006BB083FE2E4A28F47E1800219045CDE90A115E
S214006BC0CDE90C1149D13A88B2F5105F45D1379B13
S214006BD00293369B01930AAF359B00932246CDE97C
S214006BE00457349B0696CDF80CA00EA825F005FD9C
S214006BF00246C8B93A9B384603EB060C90469C45BD
S214006C001FD11EB13146384625F0EFFCB8F1000F13
S214006C1020D03E9A002313601CB12146284625F05A
S214006C20E4FC6FF0940204E01EB13146384625F0CD
S214006C30DCFC70210EA825F0D8FC10462BB0BDE871
S214006C40F08F10F8011B13F801EB81EA0E0148EAF9
S214006C500108D4E73E9B1C60EBE76FF08502E8E78F
S214006C606FF08602E9E76FF08902E6E7000140056B
S214006C702DE9F04F8FB09846DDF86CA0049093464F
S214006C800023B8F1000F16D0D8F800401029CDE93F
S214006C900633CDE908330CBF0823102302930025E2
S214006CA05D450AD3B8F1000F01D0C8F800400020B7
S214006CB00FB0BDE8F08F4446E8E75CB1199B1A9A1E
S214006CC01B5D525D013453400AF8053004F00F0492
S214006CD00135E5E7FFF702FD4FF4404344600360EB
S214006CE0064625F0B8F9029A04990746304625F07C
S214006CF05CFA06F1840318461899019325F003FA06
S214006D003846ABEB050725F0AAF927F00F0706F182
S214006D10A0032F440593AAF11009BD4234D11A9B53
S214006D203B440AAD03F1100C186859682A4603C2A2
S214006D30083363451546F7D10F2F0ED90AEB070324
S214006D4006AD103B0DF1280C2A4603CA62451860B2
S214006D505960154603F10803F6D106F1800357443F
S214006D600AEB0B0903934F4536D125F074F91899B1
S214006D700546019825F0E4F9284625F070F93046D6
S214006D80FFF7B6FC5D468BE725F065F9224B0390CE
S214006D9033653369DA07FCD41A9B0598591925F030
S214006DA0B2F90F2D0ED90DF1180C09EB05020DF1F5
S214006DB0280E634603CB7345106051609C4602F173
S214006DC00802F6D106A906F1800025F0B9F9039865
S214006DD025F045F91035A0E774B925F03CF90E4BBF
S214006DE0336505463369DB07FCD40398199925F00B
S214006DF0A7F9284625F033F904F138030DEB030212
S214006E00199B12F8102C1B5D0134534007F8013B08
S214006E1004F00F04A7E700BF480503012DE9F74F6C
S214006E20DDF848A0DDE90E74DDE9106883461D46EE
S214006E30894621B96FF0860003B0BDE8F08F002ABE
S214006E40F8D00FB9002CF5D116B9B8F1000FF1D172
S214006E50BAF1000FEED02E4B9D4215D00BD82D4B1D
S214006E6025F4807199420FD003F580639D420BD0C4
S214006E706FF08500E0E7284B9D4205D025F40071B1
S214006E80A3F580739942F2E7BBF80030B3F5105FC4
S214006E90EED1BBF80230B2EBD30FE9D3802B02D091
S214006EA0B3F5807FE4D124B3B7420AD23B199E42A1
S214006EB007D24445BED839462246304627F07BFDE9
S214006EC03746164BBBF802B09D424FEADB0BCFD1DC
S214006ED04445AFD814F00F05ACD1731900930122C6
S214006EE07B195946484625F0C1FB30B91035AC42EF
S214006EF0F3D8CAF8004000209EE7424600213046FC
S214006F0027F073FD0023CAF800306FF0920093E775
S214006F100010C004004040040012C00400444004B6
S214006F202DE9F04F91B0DDE91A4ADDE91C56DDF88F
S214006F30789007469B46884629B96FF086084046F3
S214006F4011B0BDE8F08F002AF7D014B9BAF1000FDF
S214006F50F3D10DB9002EF0D1B9F1000FEDD0574B9B
S214006F609B4515D00BD8564B2BF4807199420FD009
S214006F7003F580639B450BD06FF08508DFE7514B28
S214006F809B4505D02BF40071A3F580739942F2E778
S214006F903B88B3F5105FEFD17B88B2EBD30FEBD312
S214006FA0802B02D0B3F5807FE6D1BAF1000F04D172
S214006FB0C9F800A04FF00008C1E7AC420BD204EBC2
S214006FC00A039D4207D2B245B7D821465246284604
S214006FD027F0F1FC2C46394B7F889B454FEAD707B4
S214006FE058D003F540739B4521D0374B9B45C3D102
S214006FF0B245A2D81AF00F0B9FD140463B4608AACE
S214007000394625F06DFB8046002898D105EB0B032A
S2140070100093002204EB0B03394608A825F026FB54
S214007020804670BB0BF1100BDA45EFD8C0E7AAF12B
S2140070300D0AB2453FD801238DF810300DF111022C
S214007040234604F10C0153F8040B42F8040B8B4260
S214007050F9D11B7813704FF48073ADF81E300D34E1
S21400706004ABCDE900334046CDE902450023524645
S2140070703946FFF7FDFDC9F800A0804600283FF41A
S2140070805EAF32460021284627F0AFFC0023C9F841
S214007090003054E7AAF1100AB2453FF64EAF04AAF4
S2140070A004F1100C20686168134603C30834644575
S2140070B01A46F7D1D4E76FF0890840E70010C004FD
S2140070C0004040040012C004004440047FB5094B51
S2140070D06A4603F11006154618685968144603C434
S2140070E00833B3422246F7D12846FEF7B3FD002008
S2140070F004B070BDFC44030070B5184B86B001AAFE
S21400710003F11006154618685968144603C4083378
S214007110B3422246F7D11B882380114BD3F8B42004
S214007120120316D5A3F500434FF6FF721B88934251
S21400713008BF4FF4B4730B48ADF80A30FDF732FAC7
S2140071402846FEF7C3FA3220FEF76EF9002006B096
S21400715070BDD3F8B830C3F30803ECE70C45030062
S2140071600081E00F00F0490210B50C480C4C6FF09F
S2140071700403A02113F0800F03F1010207D123447A
S214007180222A83F800131346F4D1002010BD03F022
S2140071900F03043B034419761346EBE700ED00E0CB
S2140071A000E100E010B5044624F055FF024B1C60D9
S2140071B024F055FF002010BDF024002010B524F068
S2140071C04AFF034B1C6824F04AFF204610BD00BF50
S2140071D0F024002010B500F025F80448044B436066
S2140071E000248460FFF7DEFF204610BDF424002054
S2140071F0F571000013B5064C23780093054B1B88E9
S21400720025F020FB10B923780133237002B010BD9F
S2140072108C5C0020DA150020014B18800020704797
S214007220DA15002008B5074B1A6842B90122082073
S2140072301A6024F0B1FE0449044801F0D1FD002094
S21400724008BD00BF08250020E8100020002500200B
S21400725030B5144687B00546104625F04CFB6369EA
S21400726083423CBFD4E903315B181B1A02467BB14C
S2140072700F4903910021CDE90131012304940093C5
S214007280D4E90013284624F092FE002007B030BD53
S2140072900122627694F82D20002AF6D084F8353044
S2140072A01321E36920469847636A20469847ECE72F
S2140072B0517200002DE9F04788B004460F46164686
S2140072C0984624F0D3FE8146002E7BD0237E03F022
S2140072D0FF02002B00F0A380204625F00CFB65691A
S2140072E0A84205D1637ED4E9033213445D1B01E056
S2140072F0F9D9451BB54228BF354624F0B7FE94F8A9
S2140073002D308246002B6ED161692A46384627F01A
S214007310D3FA63692B4463612E4621E0037803F0B9
S214007320FD0111295CD1216B814205D1A3F1110128
S2140073304B424B4184F83430013E6369216B8B42EB
S21400734003F1010308BF236363610132954260695C
S214007350E4D1D4E90323216B1344994200D122637C
S214007360D4E903236169207A134499424FF000055B
S21400737008BF62616576FDF73FFB204625F0BBFA45
S2140073806369834232D194F82D302576E5686561CD
S21400739003B12563636A20469847224B0393002374
S2140073A00494029323690193012300936368216880
S2140073B0207A2A4624F0FBFD207AFDF73DFB504656
S2140073C024F05AFE4846C8F8006024F055FED8F867
S2140073D00030002B0CBF1B20002008B0BDE8F08753
S2140073E007F8013BA9E72E460022AFE701232376E4
S2140073F0207A0DF11E01FDF787FB9DF81E30002B4D
S214007400DAD00DF11F01207AFDF756FB9DF81F100C
S2140074100029D1D1207A2246FFF71AFFCCE716467C
S214007420D0E700BF51720000002807DB044A41097C
S214007430012300F01F00834042F82130704700BF50
S21400744000E100E0002808DB4309044900F01F00C3
S21400745001226033824041F82320704700E100E0BB
S21400746070B504460568FFF7A9FE844202D10020E5
S214007470FFF798FE95F936603046FFF7E3FF002EDB
S2140074800CDB7309194906F01F0620330122B240AF
S21400749041F82320BFF34F8FBFF36F8F95F9376006
S2140074A03046FFF7CFFF002E0CDB73090F4906F0BE
S2140074B01F0620330122B24041F82320BFF34F8F2E
S2140074C0BFF36F8F287AFDF7D7FA287AFDF738FAD8
S2140074D0FDF714FA0023C4E90033C4E90433A360BB
S2140074E02846AB6ABDE87040184700BF00E100E0E0
S2140074F02DE9F0430C461546064687B0402200218B
S21400750020461F4627F071FA002395E803002A69F3
S2140075102376EB68E360C4E904232A7D84F82C20F4
S214007520AA7D2363012384F8343084F835300E9B1B
S214007530236284E803000F9B6362109B84F82D206F
S214007540E761A3622B7A84F836306B7A84F837309A
S2140075502D4B73602D4BB3602D4B33612D4B346038
S21400756073612D4BF360FDF711FA38B12B4B98423F
S21400757004D01024204607B0BDE8F083002104F1B3
S2140075800800FDF78BF907460028F2D1244B33623A
S2140075904FF00108234B84F83C80B361224BF36123
S2140075A09DF8483084F83B309DF8443084F83A30F3
S2140075B0697D84F8390084F83880204625F0ACF9D7
S2140075C095F909904846FFF73DFF4846FFF72CFF20
S2140075D0164B0494CDE902732369CDE900836368F2
S2140075E0E2682168207A24F0E2FC04460028C0D134
S2140075F095F908502846FFF725FF2846FFF714FFA1
S2140076003046FFF7CFFDB5E769C90200B572000046
S214007610E5C80200EBC8020061740000038000F0B9
S214007620BFC8020019C90200F1C80200517200006A
S2140076302DE9F04186B01C46524B0C9D0293524BEE
S21400764001930126514B0093CDE90366504B9046BB
S2140076500A462946FFF74CFF0746002856D12368FE
S2140076602B6463686B64637A85F84930237A85F8FF
S2140076704830E37A85F84B30A37A85F84A30637B46
S21400768085F84D30237B85F84C30E37B85F84F300A
S214007690A37B85F84E303F483146FDF7DFFC3E4879
S2140076A03146FDF7DBFC617A207A33460422FEF78A
S2140076B009FC33460222E17AA07AFEF703FC6068F2
S2140076C03146FDF7CBFC88F800704146206824F070
S2140076D006FE2268536F43F003035367936F617C83
S2140076E023F4F85323F01F0343EA0123A17C0B4342
S2140076F093670323536785F8507098F81920202A5B
S21400770028D007D8E2B1102A38D02327384606B04A
S214007710BDE8F081302AF8D185F8503002220023E7
S214007720617B207BFEF7CEFB2368E27CDA675A6E2D
S21400773042F004025A665A6F42F010025A6766B95F
S2140077402A6C2068D36C43F00403D364052124F02C
S214007750BFFDDBE7022385F85030E17BA07B0023EA
S2140077600422FEF7AFFB2368217DDA6F42EA01228E
S214007770DA675A6F42F020025A67E1E733463E4620
S214007780CAE700BF95CA020089CA020021CB0200E0
S21400779015CB02004041050000250A001A2812D821
S2140077A0102814D9A0F11102D2B240F28523D3409A
S2140077B0DB070CD5064B01221A70064B80F0200022
S2140077C018707D2003E0A0F17D03012BF2D97047ED
S2140077D0945C0020935C0020F8B5214B0E461446BE
S2140077E000B3204A2049107000221A701F4B2270E6
S2140077F00A704FF6FF721A801B4D2B78EBB91B4FA1
S2140078003046398825F03AFA164A38801378013B14
S214007810DBB213706BB901232B703046BDE8F8401D
S214007820FFF7BCBF1A78002AE6D01870104B1878FD
S214007830F8BD237801332370EFE7012B05D102232F
S2140078402B700A4B1888000AE8E7022B04D10323A2
S2140078502B70064B1878E1E7FF2323707E20E7E7BE
S214007860945C0020915C0020925C00207052002006
S214007870935C00202DE9F047394E3378884617464A
S2140078805BB9384A1370384A1370384A1370384A4E
S2140078901370384B4FF6FF721A807D2850D02DD8C3
S2140078A0182851D01A2852D0314B2E4D1A78DFF8AE
S2140078B0BC9080EA020400221A702B78DF2B9CBF53
S2140078C001332B702B78022B12D9DFF8A8A099F879
S2140078D00000BAF8001025F0D1F92B78AAF80000BD
S2140078E0DF2B9FBF99F8002088F80020023B3B70F2
S2140078F01D4B1A7889F800201C7006E07E28D3D12C
S214007900184B1B781BB91A4A1370202011E0FF2B66
S2140079101FD0184A1188154A1078134A127802EBBD
S2140079200022914217D1022B17D9E02B34BF00203A
S2140079307A20A0F12002534253413370BDE8F0870D
S2140079400B4B20221A70E0E7064BFF22FAE7742062
S214007950EFE77720EDE77620EBE77920E9E700BF51
S214007960955C0020905C00208E5C00208D5C0020E2
S2140079708F5C00206E52002008B525F03CF9044AC2
S2140079804FF6FF73002818BF0346138008BD00BFDC
S2140079907452002010B5074C208850B125F02BF902
S2140079A02388C01A044B1B8800B29842B4BF00203C
S2140079B0012010BD74520020725200204FF07E62EB
S2140079C02DE9F041B2F84C70B2F84A60164DDFF877
S2140079D05C802C884FF6FF739F4208BF4FF44867C1
S2140079E09E4208BF4FF4C87650B164002C802B88A6
S2140079F0BB4215D92F800023A8F80030BDE8F081DF
S214007A00B8F80030002BF2D025F0F5F8B8F80030C2
S214007A10C01AC4EBC40480B204EB8004E408E5E7B3
S214007A20B34238BF2E80E6E7725200207452002020
S214007A3008B525F0E0F84FF07E634FF6FF72B3F816
S214007A405A30934208BF4FF47A730344C3F30712C5
S214007A5013F47F6F024B08BFFF221A7008BD00BFE9
S214007A60965C002010B5084C237843B125F0C3F887
S214007A702378C3EB10131B065CBF0023237020780B
S214007A80B0FA80F0400910BD965C002007B501F002
S214007A903DFD6A4601F0A0FD18B10448522100F0F1
S214007AA097F9DDE9000103B05DF804FB2445030007
S214007AB008B501F05FFC18B102487A2100F088F999
S214007AC0002008BD2445030008B500F0B1F80E4AB2
S214007AD0536A43F4E0235362EFF308830B4A043BF4
S214007AE04FF0CD3193420BD2FDF7DEF9084B012261
S214007AF01A61FFF7DDFFBDE808400648FEF7D0BC78
S214007B0043F80419EEE700BF00ED00E00000002097
S214007B1000300E404444030007B504220DEB02017A
S214007B20002027F015FE042804D0054840F267110F
S214007B3000F04EF9019800F091FA03B05DF804FBEE
S214007B4024450300102870B5034635D020D80328F6
S214007B5015D9002070BD032202231A491A4D0C685D
S214007B600021C8B28442F4D955F8200028B1067A1C
S214007B709E4202D1467A9642ECD00131F1E7421E8F
S214007B80022A19D8DFE802F0021B16000022E3E7FB
S214007B90A0F12002032ADCD8213B022BF6D801A252
S214007BA052F823F0B17B0000B57B0000577B000045
S214007BB00122D1E70222CFE700220323CDE70122EC
S214007BC0CBE700BF644E03000411002010B5FFF79A
S214007BD0B9FF044630B1037A022B03D103680BB118
S214007BE01B6823B9074840F2332100F0F1F82368F8
S214007BF01B681B6C186900F44830A0F50053584207
S214007C00584110BD2445030010B50A0A41400748F4
S214007C10C9B2082301F00104490804B14140013B00
S214007C2013F0FF03F6D181EA020010BD2083B8ED01
S214007C3010B5FEF733FB0446FEF72AFBE30721D414
S214007C4001221046114600FA01F3234002F1010218
S214007C501AD0214B33F811302049062B19D040F2A8
S214007C600722934212D14FF000524FF20F00548871
S214007C7084420BD11088984208D14CF23C33538092
S214007C80088010BD0021E4E7112ADBD1134A1380D7
S214007C9012E04FF000534FF20F025888904218D16E
S214007CA01B88B3F5406F28BF4FF4C0630B804FF0BE
S214007CB000534CF23C325A80084B1A8840F201734B
S214007CC09A4201BF064A074BD2E90001C3E9000108
S214007CD0D7E74FF4C063E9E7AE45030076520020CD
S214007CE0901000200C250020164B1888020A10F071
S214007CF0FF00134604D1012A23D143F080007047C9
S214007D00072BFAD801A252F823F000BF317D0000FD
S214007D10FB7C00002D7D0000417D0000417D0000C1
S214007D20357D0000397D00003D7D0000092070474C
S214007D3018467047032070470B2070470620704790
S214007D40022070477652002010B5044624F08AF9C7
S214007D50194B4AF6E8529A605A639A6B02F00F0281
S214007D60022A13D1154AD2F8C820520742BF144A35
S214007D70012111641B6C03F00303013B012B9FBF21
S214007D80104B0022C3F8702CC3F8802E4FF000531F
S214007D904FF20F021C805A80BFF35F8FBFF34F8FE6
S214007DA009490A4BCA6802F4E0621343CB60BFF38A
S214007DB04F8F00BFFDE700BF00300E4000400E4072
S214007DC0004008400000C64300ED00E00400FA054D
S214007DD038B504460D4629F0C7FA08492B46224610
S214007DE0002024F01BFD24F072FF24F03BF9294606
S214007DF02046BDE8384024F050BF00BF9B45030036
S214007E006B4A6C4B2DE9F04155685D65516A996582
S214007E1069496A4CD1F80002D865D1F8041219668F
S214007E20916A5966D16A9966116BD966516B196762
S214007E30D26B586B5A67D3E90E1210F0040F18BFB6
S214007E4011465F4A1A6500209142D8645DD301F15D
S214007E502000A04259D888691864C5F30805CE6981
S214007E605E64062D55D1574DA84252D3564DA842B2
S214007E704FD205884DF6426085424AD11868C3F84D
S214007E8090005868C3F8940040F20170A24215466C
S214007E9005D22E68B6F1CD3F02F10402F6D00022DC
S214007EA0C3E91E22C3E92022C3E92222641BDFF8AD
S214007EB014C1424DDFF810E19C648D422CD8D3E902
S214007EC01EC7D3E92065D3E922414FF0000E013AE0
S214007ED0D2B2FF2A3BD1BEF1000F05D0C3E91EC7C0
S214007EE0C3E92065C3E92241B3F85430C3F308035D
S214007EF0DA1E0F2A52D8DFE802F0345841445151B6
S214007F005151514E5151515151380021C3E9101170
S214007F102B494FF42060B9E755F8044D6445CCD39F
S214007F207445CAD2E607C8D5284F002657F8048FEE
S214007F30A045C2D00136062EF8D132B1013AD2B2EF
S214007F4002F11E0643F82640B7E70522F8E7E046AA
S214007F504FF0010EBC4637462E4625460C46414697
S214007F60B5E740F60120BDE8F081194BDB6913F058
S214007F70020F40F2025318BF1846F4E740F60320FB
S214007F80F1E740F2017240F60423B0F5206F14BF0B
S214007F9010461846E7E740F60520E4E7013B40F6C2
S214007FA00722302B98BF1046DDE740F60220DAE7BE
S214007FB000ED00E00010002000E100E000100020CE
S214007FC000000020C840000020430300741000207A
S214007FD00020054000F00CB800F00AB800F008B821
S214007FE000F006B800F004B800F002B800F000B8E0
S214007FF072B61EF0080F09D01EF0040F0DD0DFF881
S21400800050E0AEE8FF1F6FF002000CE0DFF840E043
S214008010AEE8FF1F6FF00E0005E0DFF834E0AEE8D4
S214008020FF1F6FF006006946EFF309828EE807002F
S21400803086460848084C854501D3A54501D384F3F8
S2140080400888FFF7DDFE84F30888FFF77DFE000052
S21400805000100020400000200010002083B24BF6E5
S214008060EF62002B08BF1346044A000C13804FF63D
S214008070CE2308BF1846024B18807047DE15002036
S214008080DC1500200B4BB3F900201888002AB8BF77
S21400809080F0620042001A80074AB2F90010138886
S2140080A00029BCBF83F4805383F00B035900118072
S2140080B058407047DE150020DC15002008B501F09A
S2140080C077FC60B10A4B0344072B0DD8072B0BD85F
S2140080D0DFE803F00C060A080A0A0A04C12008BDF5
S2140080E0C320FCE7C420FAE7C520F8E7C220F6E77D
S2140080F0FF1FFF0F10B5094A137813F002040CD1C6
S2140081000749084809780078884206D0064804805F
S214008110064863F07D030170137010BD765D002085
S2140081207D5D00207B5D0020745200207A5D00207B
S214008130054B064A19881288914202BF044A01215B
S214008140117000221A807047825200208052002050
S214008150745D002007B503460091022203493D20C6
S21400816028F0A7F803B05DF804FB00BFDD45030068
S21400817007B5064B06491B780093022281233D2053
S21400818028F097F803B05DF804FB00BF805D002080
S214008190DD45030038B50C4D0C4C2A7823789A42FE
S2140081A000D138BD0A48002129F078FB094B1B880E
S2140081B0834202BF084B01221A702378013303F072
S2140081C007032370E9E700BF7D5D0020785D00208F
S2140081D07A52002080520020745D0020074B93F9ED
S2140081E00030002B08DB064A137803F041014029D3
S2140081F004BF43F005031370704700BF805D002086
S214008200765D002007B5064A06492823CDE90032E8
S2140082103D207023022228F04CF803B05DF804FBE2
S2140082203E00E00FD6450300702807B5034604D18C
S21400823003B05DF804EBFFF7E5BF074A074912787D
S2140082400192074A127800923D20022228F031F867
S21400825003B05DF804FB00BF755D0020DC4503003D
S214008260805D002008B50A4811F022FC094811F08C
S2140082701FFC094811F01CFC084811F019FC0848BE
S21400828011F016FCBDE80840064811F011BC00BF0E
S214008290825200207E5200207C5200207A5200201B
S2140082A0805200207852002008B5DC2200210448C5
S2140082B029F050FA034B1880034B01221A7008BDB0
S2140082C0985C002080520020745D002030B585B098
S2140082D0FFF7EAFF24F0FBFC4FF07E63234DB3F874
S2140082E05230234C4FF6FF72934208BF4FF47A7316
S2140082F02B8000232380FFF73FFBFFF74BFB002874
S214008300FBD04FF07E634FF6FF72B3F848309342CF
S21400831008BF4FF4C8632B8000232380FFF7E4FCDC
S214008320431E144D144C2870DBB20A2B18D840F2AA
S214008330035222FA03F3DB0712D50222C123CDE94A
S214008340003202900D4984233D2027F0B2FFFF2320
S2140083502B70D023237005B0BDE83040FFF752BF26
S214008360FFF750FFA023237005B030BD72520020E7
S214008370745200207E5D0020765D0020DB45030001
S21400838037B504460D4611F089FD022825D81C484D
S21400839040F21711FFF71CFD1A4B197801F1400344
S2140083A0DBB2022B1FD901F0A003A02B04D00B06D2
S2140083B019D57E20FFF7CEFE4FF07E63B3F8463029
S2140083C013B1204624F084FCB5B10F4800222146A4
S2140083D003B0BDE8304029F0F5B9204611F05EFD47
S2140083E0DC28D4D8D8E7CDE9001484230749022234
S2140083F03D2027F05EFFDFE705482A462146E7E7EF
S214008400E1450300825D00207E52002053460300B3
S2140084107C5200202DE9F84FFFF7BCFAA84C48B371
S2140084202378580626D599074CBFA64BA64BA74AD5
S2140084301B7812789A4232D00120FFF7BFFA7320D9
S214008440FFF7F2FEA24A13780133DBB213704FF047
S2140084507E624FF6FF71B2F84E208A4208BF0322B2
S214008460934219DD9B4B512272201A70FFF7DCFEF7
S21400847020232370984D994E94F900202378002AE3
S21400848018DA13F030030ED01A2024F040FC2378BC
S21400849003F07F032370EFE7FFF72CFEEAE7904B2D
S2140084A000221A80E6E72A78022AF0D18C4A2B703E
S2140084B01380E9E72A78012A00F0F2800DD9931E8E
S2140084C0012BD9D83178FF2900F01E81002940F011
S2140084D0EF80844B19783246E8E09A0719D5794937
S2140084E07A4A794892F800C007780A78ACEB02001E
S2140084F0BA1A02F0070200F00700904298BF81F80F
S21400850000C00A78BA4204D123F002032370FFF7B2
S21400851041FE237813F0300F1ED013F0200F714F5A
S21400852015D0C2233B706B4B1878B87002237B7053
S214008530237823F03C032370032001232B70694B20
S21400854019783246FFF748F924F0E1FB94E7C12397
S2140085503B70FFF7C9FBE8E713F00C081FD0624F2B
S21400856013F0040F39785F4B0FD06039C9B2802002
S2140085701970FFF7EFFD237803F0F30323705B4BCE
S2140085803A781A7001231846D8E781F080017E20D9
S2140085901970FFF7DFFD237803F0F703EEE79B077C
S2140085A032D5DFF820A1524B9AF800701B78DFF81E
S2140085B044B1FF1A23F05AFD414681464D4829F042
S2140085C0FBF807F007078046B7B9484623F054FD86
S2140085D0494B4046A3F8008011F060FC424B9AF8E5
S2140085E000201B7843EA02133E4A43F0080301309A
S2140085F01370C0B20323A1E74146584629F032F96A
S214008600013F8046FFB2DFE7304B2F4F19783A78AC
S214008610DFF8D4804FF07E634FF6FF70B3F8443037
S214008620834208BF05230B44013B521A5B1A02F033
S214008630070203F007039A4228DC304829F0B7F80F
S214008640E0B92E4829F0B3F82C4B01462C480029F7
S21400865008BF18462B4B0021186029F0ADF8264BB2
S214008660188011F01BFC3A7898F8003043EA0213A1
S2140086701C4A01301370C0B202235FE7204829F07D
S21400868096F818B9FFF7EEF90028DAD1174B1A78E2
S21400869098F800309A425DD0237843F00803F9E654
S2140086A03378FF2B4CD00F49C95C3246002049E78F
S2140086B0114B0139C9B2188811F0C4FD01460AE70A
S2140086C0765D00207A5D00207B5D00207D5D0020C9
S2140086D0775D00207E5D00207F5D0020975C002097
S2140086E074520020825D0020795D00207C5D0020B1
S2140086F0785D00207A520020785200207E520020BA
S2140087007C52002014250020022A1CD1124A13781D
S214008710013303F007031370104B0021186829F08B
S214008720BDF80F4B0F481988002229F04BF80E4B66
S2140087301B880BB9FFF720F90C4B1A780C4B1A70F4
S21400874000232B7098E60B4A1378013303F00703D7
S2140087501370ECE7BDE8F88F7B5D00201425002041
S214008760785200207A52002074520020795D002052
S2140087707C5D00207A5D00202DE9F04FA44F85B087
S21400878080460023DFF8B892A8F8003099F8003049
S21400879013B93B70FFF7CCFCDFF8A8A29D4E0DF195
S2140087A00E0024F0B8FA272800F0A0819DF80E00ED
S2140087B03D783A460DF10F01FFF75CF82028044695
S2140087C030D070B1FFF7B4FC7A2804D8732878D874
S2140087D0272C00F08B81904840F25511FFF7F8FAED
S2140087E0D4E73B789D4205D0022B3FD88B4B9DF8B3
S2140087F00F205A55DFF824923B7899F80010884CE1
S214008800C02940F08380012B40F0CB80FFF7B0FCFE
S214008810FFF7AEFC24F004FAFFF78AFC237858062C
S214008820AFD4BBE03B789D42B9D0022B04D87B4B3B
S2140088309DF80F205A55B2E7032B1FD0754B1888AA
S214008840784B1B888342AAD111F028FBDFF8C4B10D
S214008850C5B2691CC9B2584629F0CBF89DF80F205E
S214008860BBF80000294611F001FD20E0032B05D0DF
S2140088706C4B30881B888342BCD1E5E79AF8003001
S214008880684D83B133882B804FF0000B01212846BA
S2140088908AF800B029F0ADF80123009329886248D1
S2140088A05A4629F0BFF830882B888342CCD0202C3B
S2140088B03FF475AF7A2C8ED8732C02D8002C87D153
S2140088C098E7743C062C86D801A353F824F000BF22
S2140088D0ED880000D7870000F588000001890000B9
S2140088E0D787000005890000098900007420FFF77B
S2140088F09BFC4BE77620FFF797FCFFF76FFC45E7FE
S2140089007720F8E77920F6E77A20F4E70E0607D412
S214008910032B46D92678730645D4FFF709FC3DE0BD
S21400892001F0E002802A23D1012B3AD17D20FFF707
S21400893011FCFFF7FDFB267871062FD50225DFF820
S21400894008C13A4A99F800309CF80000117803F004
S214008950070BABEB000E091A0EF0070E01F007012D
S2140089608E4529D97820FFF75FFCFFF737FC08E72C
S214008970A02A0BD1012B14D17F20FFF7EBFBFFF7CA
S214008980D7FB2678720609D50325D8E77B20FFF7A4
S2140089904BFCFFF7CDFB23785D06E6D4202323703F
S2140089A0EFE67C20F3E7224B1B78B3EB111F01D0D8
S2140089B0FFF7BEFB0125C2E7A5F1020A83451FFAB1
S2140089C08AFA0DD01B488CF800B00021017016F012
S2140089D002004DD0184A1180184A12785A4535D1EF
S2140089E0BAF1010F39D9124999F800200B78C2F371
S2140089F0021098426FD10B4D2888002846D12620B9
S214008A00FFF7ECFBFFF710FC262005B0BDE8F08F63
S214008A10755D002080520020E1450300805D002047
S214008A20765D002082520020815D00207B5D002064
S214008A30795D0020775D0020745200207A5D00206A
S214008A40955C0020745D00207D5D0020FEF794FF9D
S214008A50BAF1010FC7D899F8003013F0080312D105
S214008A60234A1370032D7FF48CAEFFF743FB88E692
S214008A70FEF7A4FF1F4A13785B4501D0FEF77CFF84
S214008A80FFF788FBE4E7FEF7D3FFEBE7160742BFE6
S214008A90227842F0080222702278013303F007039E
S214008AA00B7022F005024FF07E632270B3F846305A
S214008AB00BB124F00DF92B88019399F80030009340
S214008AC03D2085230C49022227F0F3FB2B88A8F8CB
S214008AD00030002099E71207237802D543F00803F8
S214008AE05DE7DB073FF541AF75203CE727208CE7C5
S214008AF0965C00207B5D00205346030008B5114BB2
S214008B001B781BB1002000F0010008BD0E4B1A7840
S214008B100E4B1B789A42F5D10DF00CFA0028F1D1D5
S214008B200B4828F044FE0028ECD00A4828F03FFE08
S214008B300028E7D0084B1B78002BE3D10120FFF775
S214008B4045F8E0E7955C00207C5D0020795D00201C
S214008B507C5200207E5200207F5D0020054B1A7854
S214008B602AB95B78002B0CBF032002207047012037
S214008B70704700BF8E5D00200329F8B598BF134BE1
S214008B80054698BF5C5C0E4688BF0024032805D8BF
S214008B90DFE800F002080B0E44F002040C4B1F68DE
S214008BA04FB9F8BD44F00804F8E744F02004F5E7B0
S214008BB044F08004F2E77B681A68144203D05B68CE
S214008BC03146284698473F68EAE700BF5846030004
S214008BD04425002038B5104D2B78ABB10F4C2378C8
S214008BE01BB124F0B8F800232370002024F0B4F85A
S214008BF00B4C50B100F082FA002320782B70012134
S214008C00FFF7BAFF0123237038BD064B01221A7006
S214008C10054B22781A70F7E78A5D0020885D0020F1
S214008C20905D00208B5D00208C5D002010B523F049
S214008C3012FA064B1B7804461BB1BDE8104023F021
S214008C400EBAFFF7C7FF2046F7E700BF875D002094
S214008C50094A137830B101331370084B1B78012B87
S214008C6003D87047013B13707047054B1B780BB950
S214008C70FFF7B0BF704700BF8E5D0020905D0020FC
S214008C808B5D002070B5144E23F0E5F93378054669
S214008C90ABB900F06FFB044620B1284623F0DFF99D
S214008CA0204670BDAFF300800C4823F059F900F061
S214008CB03FFE0B4B1C6000F043FC0A4B186000F0B4
S214008CC0C7F924F04BF8084B186001232846337088
S214008CD0002423F0C4F9E3E7915D0020442500203A
S214008CE018250020402500201C2500202DE9F843EB
S214008CF0284A0138135C39B1274F397801330129E6
S214008D00135404D8BDE8F883013B1354FAE7FFF781
S214008D1025FF0128044635D8DFF8888023F09BF924
S214008D2098F80030054613B31C4E33781BB9012261
S214008D3032701B4A1370DFF8709099F8003023B138
S214008D4024F009F8002389F80030284623F087F934
S214008D50012024F001F823F07EF9337805461BB194
S214008D6000F0CCF900233370002388F80030284642
S214008D7023F075F938788442C4D02146FFF7FCFE0C
S214008D803C70BFE70329F5D10228F3D100F002FAC0
S214008D90F0E700BF8E5D0020905D0020875D00201C
S214008DA08B5D00208A5D0020885D002038B523F0AA
S214008DB052F9094B1B78012B054604D823F04FF9CE
S214008DC00024204638BD054B1C6800F0D5F9044445
S214008DD0284623F044F9F4E7905D0020182500208B
S214008DE038B54160044623F036F921460546044866
S214008DF023F0B9F82846BDE8384023F030B900BF64
S214008E0044250020054B1B68584300F57420044B8E
S214008E1000F23F20B0FBF3F0704700BF4025002073
S214008E2040420F002DE9FF47EFF3108772B6AFF30D
S214008E30008025F031FC002871D0714EDFF8E48107
S214008E40337823B10020FFF703FF00233370FFF7CA
S214008E5085FE0446002869D0841EE4B2012C6CD935
S214008E60FFF77CFE0128674CDFF8BC91054600F250
S214008E708E802078A84205D099F80030002B00F0AC
S214008E80B2802570207800F061F999F8003013B1AF
S214008E905D4B1B782370AFF3008007B962B6EFF323
S214008EA0108772B6594B1A7852B100221A70564B78
S214008EB020781B78984203D101212170FFF75CFED1
S214008EC0534800F091FA25F0FBFB05460028B7D181
S214008ED0DFF8588198F80030A3B189F80000DFF871
S214008EE0409199F800301BB123F035FF89F8005007
S214008EF0002023F031FF002879D000F0FFF800238F
S214008F0088F80030337823B10020FFF7A1FE002355
S214008F10337020780021FFF72FFE00232370AFF375
S214008F20008007B962B604B0BDE8F0873378002B3E
S214008F3096D0FFF78DFE347092E703A9002000F06C
S214008F40A1FA044600288BD1D8F80030039A9A423A
S214008F5005D80120FFF77CFE0123337080E72D4BF8
S214008F601D6800F009F9039B05449D42F1D200F00C
S214008F7027F982000399264842F0020292B2CDE910
S214008F8000422346244A491B23F0ECFE68E7DFF83C
S214008F909CA09AF80030CBB923F0DAFE2078854200
S214008FA003D099F80030D3B125709AF80030002B22
S214008FB07FF468AF194B1B7823B923F0CBFE184B10
S214008FC001221A7001238AF800305BE72078854278
S214008FD03FF458AF99F80030002B7FF452AF294683
S214008FE0FFF7CAFDE0E72946FFF7C6FD49E701207F
S214008FF000F0ACF807B962B6EFF3108772B677E701
S214009000895D0020905D00208C5D0020855D00203D
S21400901020250020182500202D8C00008D5D0020C6
S214009020885D00201C2500208B5D00208A5D0020C6
S21400903010B523F010F8054B00221C781A7023F0A8
S2140090400EF800F095FB2043C0B210BD865D0020F0
S21400905008B5154B5A6A5A6AD3F8903003F00403E1
S214009060002B124B14BF012200221A7005D04FF4B9
S2140090701670FFF7C7FE0E4B18600E4B1B680120DC
S214009080C3F303239840C0F1010000EB8000643076
S214009090FFF7B8FE084A136803441360024BD3F880
S2140090A09020064B1A6008BD00400E40935D0020DD
S2140090B054250020002004404C2500204825002090
S2140090C008B50B4B1B7893B1022000F003FC70B17F
S2140090D000F008FA58B1002201210220FCF744FAF9
S2140090E023F083FE034B1860034B01221A7008BD61
S2140090F0935D002050250020925D002038B50E4C70
S2140091000E4D23782BB92B781BB123F06EFE0C4B3B
S214009110186023F0CAF82B786BB10A4AD2F8903060
S2140091201B07FBD523F061FE054B1B68C01A064BD8
S21400913018600023237038BD925D0020935D0020E8
S2140091405025002000400E405425002002280AD05A
S21400915003280BD001280CD1064A136923F0040318
S214009160136130BF70470020FCF7A4BB0020FCF75B
S214009170D5BB704700ED00E0044B1B680BB103EB5A
S214009180D303034A10681844704700BF54250020D4
S2140091904C250020084B45F60E02D3F88011C3F884
S2140091A08021064A126802F4A0721A66CA0744BFF3
S2140091B00022C3F88021704700400E40482500205A
S2140091C0014B1878704700BF935D002038B500F05B
S2140091D01FFB094C094B1A6823680025C31A2AB1DD
S2140091E023B15169994203D3C91A5161206038BD31
S2140091F055615B1A9268F2E75C2500206025002026
S214009200C38870B504460D463BB9FFF7CFFD8542CF
S214009210064602D223F090FD35460E4965610B687E
S2140092208BB90C60A3600DE0AD1A9A6865611846AC
S2140092306AB113465A69AA42F6D930B18460521B05
S214009240A3605A6170BD0020F4E70C60F7E79C60ED
S214009250A260F7E76025002038B5134D2B685B69E0
S21400926093B1124A146802201C4400F005FB204605
S21400927000F0D4FA0E492A6800230B70D0888007C5
S21400928009D501230B7038BD022000F0F5FA022044
S21400929000F018FBEEE79268002AF4D05069034409
S2140092A0012BEBD9EFE700BF602500205C250020EE
S2140092B0955D002070B516469DF814200271049A3C
S2140092C00260C0E903360022BDF81830826004460A
S2140092D00D46C380EEB900F09BFA2844A0619DB10C
S2140092E02E4622F0B8FE0546FFF770FF31462046B0
S2140092F0FFF786FF104B1B68A34201D1FFF7ACFFB8
S214009300284622F0ACFE02E0E36865617BB90020E7
S21400931070BD00F07DFA3044A061002DE0D1E36816
S2140093206561002BDDD0216820469847D9E7216883
S21400933020469847EBE700BF602500200C490B68E5
S21400934000227BB183420AD183687AB19360836836
S2140093501BB15A6941690A445A61002070471A468F
S2140093609B68EEE70028EFD0022070470B60EEE720
S2140093706025002070B5154E22F078FE347805463C
S214009380FCB9134B1C60134B1C60134B1C8000F085
S214009390FBF9012000F070FA00F0C4FA0F4B024609
S2140093A0186020B9284622F067FE232070BD2346A9
S2140093B00B4840F2E73102F06DFC0A4B18600123BF
S2140093C03370284622F058FE0020EFE7965D002016
S2140093D0602500205C2500208452002064250020A3
S2140093E018FCFFFF5825002070B5044640B322F055
S2140093F032FE144E0546FFF7E9FE3068A04209D05B
S2140094002046FFF79BFF0446B0B1284622F027FE11
S214009410204670BDFFF792FF04460028F5D133685A
S2140094203BB9022000F036FA284622F018FE002447
S214009430EEE7FFF711FFF7E73368002BF4D1F0E70C
S2140094402224E5E76025002038B50C460546A8B17D
S214009450A1B100230B7022F009FE094B1B68012105
S21400946033B922F009FE002038BD9D4204D1217098
S2140094702278002AF9D0F4E79B68F1E72220F3E788
S21400948060250020F8B506460F4622F0EFFD134B88
S2140094901B680446002523B9204622F0EDFD1B205C
S2140094A011E05A691544DA88B2420DD10C4E00F02C
S2140094B0AFF93368C01AA8420AD3002320463B609F
S2140094C022F0DAFD0020F8BDFF2EEFD09B68E2E721
S2140094D000F09EF933682B441B1AEFE76025002046
S2140094E05C25002008B5074B187848B123F07DFCB2
S2140094F0054B1B689B69C01A02288CBF0020012000
S21400950008BD00BF955D00206025002070B522F0E4
S214009510ADFD064600F07CF9084B1D880446012088
S214009520ADB200F0D7F918B100F072F90135044673
S214009530304622F0A1FD2046294670BD8452002008
S214009540014B1868704700BF64250020F8B50C4B27
S2140095501B68834205460E460FD30A4B00241F683D
S21400956040F2E73021464FF47A720023E5FB07010C
S21400957002F090FB30602046F8BD2120FCE700BFDB
S2140095805825002064250020014B1868704700BF4E
S214009590582500200F4B1A6810B59AB1531E4FF489
S2140095A07A711342A0FB01010ED1B2FA82F2C2F127
S2140095B01F04531CE040D24301FA03F3184321FA78
S2140095C002F20243104610BD002302F063FB02467F
S2140095D0F8E700BF6425002038B5154B8342154BCD
S2140095E08B41144621D3144B1A68F2B14FF47A75A6
S2140095F0A0FB050305FB0131531E134211D1B2FA3D
S21400960082F2C2F11F05531C01FA03F3D243E8406D
S21400961021FA02F218431043E940C4E90001002091
S21400962038BD002302F036FBF7E72120F8E700BF3D
S214009630EFA7C64B3789410064250020C2072DE9F5
S214009640F84304460BD5474A138801339BB2138070
S214009650FFF7BCFD444B1B680BB1FFF7FDFDA307EE
S2140096607DD522F003FD0546FFF7B0FD4FF000085C
S2140096703D4F46463C680CB163698BB13B4B0022BC
S214009680012E1A7003D118F0020F18BF1E70002C9E
S21400969061D0FFF7E1FD2846BDE8F84322F0ECBCB8
S2140096A023465A693AB91A792179914288BF1C46ED
S2140096B09B68002BF5D1284622F0DEFC2569DDB13B
S2140096C000F0A6F8A269A0EB02084FEAE873A845E6
S2140096D073F1000311DB23691344A361E368B4F854
S2140096E00680013613B121682046984722F0BEFC5A
S2140096F00546FFF76BFDBDE7A84622F0B7FC81469E
S2140097002046FFF71BFE484622F0B6FC2369002BD6
S214009710E4D0A38BB5EB080533B1E28B13449BB2C0
S214009720B3F57A7F0FD2E38322F0A0FC2946804669
S2140097302046FFF765FDA36922691344A3614046EE
S21400974022F09AFCCAE7A3F57A73E383A369013B88
S214009750013DA361E8E7022000F09CF89BE7BDE826
S214009760F88300BF8452002060250020945D00200E
S21400977010B522F07BFC034B1C7822F07DFC2046C3
S21400978010BD00BF945D002010B51D4B86B0186854
S214009790596803AA03C2197AD3F809001170019018
S2140097A0B3F80D201748DB7BADF8082001218DF8B3
S2140097B00A300024FBF752FC03A88DF80C408DF805
S2140097C01040FCF7C7FD01A901208DF80440FCF706
S2140097D0A1FD0D4A536A23F4FF6323F00703536287
S2140097E040F2FF73136201209460FCF7ADFD074B57
S2140097F04FF00052C3F880211A6006B010BD00BFBB
S2140098005C460300A00914000020044000E100E0CC
S214009810014B9868704700BF0020044010B504460E
S21400982022F019FC124A9368516D9269520704D4CB
S214009830CA1A032A01D899420DD1E21A022A98BF01
S214009840DC1C0B4BB4F1FF3F38BF013C5C655A6A29
S21400985042F004025A6222F002FC064A137833B140
S21400986003490B6D43F002030B650023137010BD14
S21400987000200440181600208207054A00F0010365
S214009880516A48BF43F004030B435362704700BF5E
S21400989000200440820700F0010309D5074A012191
S2140098A0117007490A6D22F0030243F004030A65AB
S2140098B003494A6A22EA03034B62704718160020DF
